:020000040800F2
:1000000000200020DD010008E5010008E9010008EA
:1000100000000000000000000000000000000000E0
:1000200000000000000000000000000005020008C1
:100030000000000000000000090200080D02000896
:100040001502000815020008150200081502000834
:100050001502000815020008150200081502000824
:100060001502000815020008150200081502000814
:100070001502000815020008150200081502000804
:100080001502000815020008000000001502000813
:1000900015020008150200081502000815020008E4
:1000A00015020008150200081502000815020008D4
:1000B0001502000800000000150200080000000002
:1000C0005FF808F130B583B000F0D4FA314B324A12
:1000D0001360324A1360324B324A03E011681960F0
:1000E0000433043230498B42F8D32B4B1A682F4B20
:1000F0009A4204D1294B1A682D4B9A4200D0FEE750
:10010000244B2C4A13602C4A13602C4B02E0002233
:100110001A6004332A4A9342F9D3264B1B68002BFA
:1001200003D1254B1B68002B00D0FEE700F0A6FA98
:1001300001A8694600F092FA224B234DED1AAD104A
:10014000002404E0A2001F4BD35898470134A54275
:10015000F8DC1E4B1E4DED1AAD10002404E0A20089
:100160001A4BD35898470134A542F8DC01980099FE
:1001700000F0FEFC051C174B174CE41AA41004E019
:10018000013CA200134BD3589847002CF8DC281CE4
:1001900000F05EFABABADECA00000020200000209B
:1001A00000000020580D000824000020785634126A
:1001B000325476982400002068000020240000209B
:1001C0006C0000201802000818020008180200083D
:1001D00018020008180200081802000808B5FFF706
:1001E00071FFC04600BEFEE704207146084202D0FF
:1001F000EFF3098001E0EFF308807146044A1047ED
:1002000000BEFEE700BEFEE700BEFEE7704700004E
:080210000102000800BEFEE738
:1002180038B5051C0C1C314B984203D03048A1213D
:1002280000F020FA2368002B09D0082B07D0102BE8
:1002380005D0182B03D02A48A22100F013FA2379FD
:10024800012B03D92648A32100F00CFAA368002B40
:100258000FD08022D20093420BD080221201934209
:1002680007D0C0221201934203D01D48A42100F0F8
:10027800F9F9E368002B0DD0402B0BD0802B09D067
:10028800C02B07D080225200934203D01448A521E6
:1002980000F0E8F92369002B05D0202B03D0104883
:1002A800A62100F0DFF96369002B05D0042B03D0E9
:1002B8000B48A72100F0D6F9EA680A4B1A402379BF
:1002C8005B0321680B43A1680B43E1680B43216979
:1002D8000B4361690B431343EB6038BD00240140B5
:1002E800B80C000803D2FFFF38B5041C0D1C0C4BDA
:1002F800984203D00B48E92100F0B4F9012D03D945
:100308000848EA2100F0AEF9002D04D0A2680123C4
:100318001343A36003E0A26802231343A36038BD1C
:1003280000240140B80C000870B5041C0D1C161CF4
:100338000D4B984203D00D480D4900F093F9002D5C
:1003480001D0EB0C04D00948B421890000F08AF9E7
:10035800072E03D90548074900F084F9A36A1D430D
:10036800A562666170BDC04600240140B80C000853
:10037800CF020000D102000010B5041C054B9842C2
:1003880003D00548054900F06DF9A268042313431A
:10039800A36010BD00240140B80C00086F030000E2
:1003A80038B5051C0C1C1A4B984203D019481A4939
:1003B80000F058F9631E012B1CD9042C1AD0082C04
:1003C80018D0802C16D0102C14D0144B9C4211D06D
:1003D800134B9C420ED0134B9C420BD0124B9C42A9
:1003E80008D081231B069C4204D00A488B21C900EF
:1003F80000F038F9E30103D5AA680C4B134000E07C
:100408002B681C4201D0012000E0002038BDC04606
:1004180000240140B80C0008570400000100000146
:10042800020000010400000110000001FFFFFFFEB0
:1004380070B5051C0E1C9023DB05984212D03C4B6E
:1004480098420FD03B4B98420CD03B4B984209D076
:100458003A4B984206D03A4B984203D03948B421D7
:1004680000F000F93268002A03D13648B52100F0BF
:10047800F9F83379032B03D93248B62100F0F2F8A2
:10048800F379022B03D92F48B72100F0EBF80024A9
:100498004BE00123A34032681A409A4244D1337991
:1004A800013B012B28D87379012B05D9032B03D0E5
:1004B8002448C72100F0D6F8AA68630003219940B0
:1004C8008A43AA60AA68717999400B1C1343AB60F0
:1004D800B379012B03D91B48CE2100F0C3F8AA88B1
:1004E80023041B0C012199408A43AA80AA88B17968
:1004F80099408BB21343AB80296863000322101C18
:1005080098408143296028683179994001432960DE
:10051800E9682004C00B82409143E960EA68F179F8
:1005280099400B1C1343EB6001340F2CB1D970BDFB
:100538000004004800080048000C0048001000486B
:1005480000140048E80C000838B5041C0D1C902362
:10055800DB05984213D00E4B984210D00D4B9842B1
:100568000DD00D4B98420AD00C4B984207D00C4B3B
:10057800984204D00B48C821490000F073F8002DB8
:1005880004D108489221FF3100F06CF8A56138BD0C
:100598000004004800080048000C0048001000480B
:1005A80000140048E80C000838B5041C0D1C0D4B5D
:1005B800184201D1002803D10B480C4900F052F829
:1005C800012D03D908480A4900F04CF8002D04D041
:1005D800084B5A6914435C6103E0064B5A69A2430D
:1005E8005A6138BDAAFF81FE1C0D000836050000BF
:1005F800370500000010024038B5041C0D1C0D4BD7
:10060800184201D1002803D10B480C4900F02AF800
:10061800012D03D908480A4900F024F8002D04D018
:10062800084B9A6914439C6103E0064B9A69A243FC
:100638009A6138BDFEA5B8FF1C0D00085A050000D8
:100648005B05000000100240FEE7C04608B5012027
:10065800FFF7FAFF01230360014B0B607047C046A8
:100668000400002008B5FFF7F1FFC04608B500F008
:100678005DF808BD08B500F08BF808BD82B000230E
:1006880001930093264B1968802252020A431A608C
:10069800234B1A6880239B0213400093019B01336C
:1006A8000193009B002B04D1019AA023DB019A42FD
:1006B800EED11B4B1B689A0302D50123009301E07E
:1006C80000230093009B012B28D11122154B1A609F
:1006D800134B5A685A605A685A605968124A0A4055
:1006E8005A605968882252030A435A60196880225E
:1006F80052040A431A600A4B1B689A01FBD5084B3F
:100708005A6803218A435A60596802220A435A6088
:10071800034B5B680C221340082BF9D102B07047D9
:100728000010024000200240FF7FC0FF08B5124BB6
:10073800196801221143196058681049014059602D
:1007480018680F490140196018680E49014019607E
:1007580058680D4901405960D96A0F208143D96210
:10076800186B0A4901401963596B91435963002278
:100778009A60FFF783FF08BD001002400CB8FF081D
:10078800FFFFF6FEFFFFFBFFFFFFC0FFACFEFFFF12
:1007980010B51E4B5B680C221340042B07D0082BA6
:1007A80009D0002B22D11A4A1A4B1A6021E0184AA4
:1007B800184B1A601DE0154B5C68A4025A68240F98
:1007C8000234C0235B021A4204D1134B5C43114B21
:1007D8001C600EE00D4BDB6A0F21194001310C48FB
:1007E80000F016FA44430B4B1C6002E0084A094B20
:1007F8001A60064B5B681B061B0F084AD25CD2B214
:10080800044B1968D140196010BDC0460010024061
:1008180000127A001C00002000093D000C00002096
:1008280082B0430018180023019304E0C046C04674
:10083800019B01330193019B8342F7D302B07047B8
:1008480038B51420FFF7ECFF0A4CA36980252D0268
:100858002B43A3611420FFF7E3FFA26980231B0643
:100868001343A3611420FFF7DBFFA3691D43A561B0
:1008780038BDC0460008004810B5041C454B9969AE
:100888008022D2010A439A6143B2002B07DA9023EF
:10089800DB059969802212020A439A6106E09023D7
:1008A800DB059969802212060A439A61630607D517
:1008B8009023DB059969802252010A439A6106E078
:1008C8009023DB059969802252050A439A61A306A1
:1008D80006D5314B9969802292000A439A6105E056
:1008E8002D4B9969802292040A439A61E30606D542
:1008F800294B9969802252000A439A6105E0264BE8
:100908009969802252040A439A61FFF799FF2307E5
:1009180007D59023DB059969802212020A439A6160
:1009280006E09023DB059969802212060A439A6142
:10093800630707D59023DB059969802252010A4392
:100948009A6106E09023DB059969802252050A43E3
:100958009A61A30706D5104B9969802292000A4331
:100968009A6105E00C4B9969802292040A439A61C6
:10097800E30706D5084B9969802252000A439A6119
:1009880005E0054B9969802252040A439A61FFF7F2
:1009980057FF10BD000800480004004838B5051C82
:1009A800002404E0D8B2FFF767FF0134E4B22B5DFE
:1009B800002BF7D138BDC04610B5041C474B9969C8
:1009C8008022D2050A439A6143B2002B07DA9023AA
:1009D800DB059969802212020A439A6106E0902396
:1009E800DB059969802212060A439A61630607D5D6
:1009F8009023DB059969802252010A439A6106E037
:100A08009023DB059969802252050A439A61A3065F
:100A180006D5334B9969802292000A439A6105E012
:100A28002F4B9969802292040A439A61E30606D5FE
:100A38002B4B9969802252000A439A6105E0284BA2
:100A48009969802252040A439A61FFF7F9FE230745
:100A580007D59023DB059969802212020A439A611F
:100A680006E09023DB059969802212060A439A6101
:100A7800630707D59023DB059969802252010A4351
:100A88009A6106E09023DB059969802252050A43A2
:100A98009A61A30706D5124B9969802292000A43EE
:100AA8009A6105E00E4B9969802292040A439A6183
:100AB800E30706D50A4B9969802252000A439A61D6
:100AC80005E0074B9969802252040A439A61FFF7AF
:100AD800B7FE0448FFF7A4FE10BDC0460008004852
:100AE80000040048B80B000008B51B4B5969802268
:100AF80092020A435A6159698022D2020A435A6112
:100B08005969802212030A435A619023DB05196848
:100B18008222D2050A431A60104B1968A022D20219
:100B28000A431A600E4B1968A022D2050A431A60BC
:100B38000C48FFF775FE3320FFF73EFF3220FFF722
:100B48003BFF0C20FFF738FF2820FFF735FF012077
:100B5800FFF732FF08BDC0460010024000040048FD
:100B68000008004830750000F8B5FFF7BDFF2248BF
:100B7800FFF714FF8020C0020121FFF715FD1F4970
:100B880003260E6001250D710024CC711C4F381C02
:100B9800FFF74EFC381C0321FFF7D6FC80208002AB
:100BA8000121FFF701FD17490E71CC719020C00596
:100BB800FFF73EFC802080000121FFF71DFD124950
:100BC80010230B600D718C60104C201CFFF720FB6C
:100BD800201C20210722FFF7A7FB201C0121FFF77B
:100BE80083FB0A480121FFF7DBFB0028F9D00748FF
:100BF800FFF7C2FBFEE7C0464C0D00084800002086
:100C080000040048500000202C000020002401406F
:100C1800002934D00123002210B488422CD30124A7
:100C28002407A14204D2814202D209011B01F8E73C
:100C3800E400A14204D2814202D249005B00F8E7F5
:100C4800884201D3401A1A434C08A04202D3001B21
:100C58005C0822438C08A04202D3001B9C08224354
:100C6800CC08A04202D3001BDC082243002803D092
:100C78001B0901D00909E3E7101C10BC70470028C4
:100C880001D00020C04307B4024802A140180290D6
:100C980003BDC046190000000029F0D003B5FFF7D6
:100CA800B9FF0EBC4243891A1847C0467047C04670
:100CB8002E2E2F73797374656D2F7372632F73746F
:100CC8006D333266302D7374647065726970682F85
:100CD80073746D3332663078785F6164632E6300B5
:100CE8002E2E2F73797374656D2F7372632F73743F
:100CF8006D333266302D7374647065726970682F55
:100D080073746D3332663078785F6770696F2E63FD
:100D1800000000002E2E2F73797374656D2F737287
:100D2800632F73746D333266302D7374647065721B
:100D38006970682F73746D3332663078785F7263C8
:100D4800632E63004469636B686F6C650000000084
:100D5800785634122800002000000000000000002F
:100D6800000000000102030406070809006CDC0209
:040D780032547698E3
:04000005080000C52A
:00000001FF
