:020000040800F2
:1000000000200020C9000008D1000008D500000829
:1000100000000000000000000000000000000000E0
:10002000000000000000000000000000F1000008D7
:100030000000000000000000F5000008F9000008C2
:10004000C5000008C5000008C5000008C50000087C
:10005000C500000809070008C5000008C500000821
:10006000C5000008C5000008C5000008C50000085C
:1000700035060008C5000008C5000008C5000008D6
:10008000C5000008C500000800000000C500000809
:10009000C5000008C5000008C5000008C50000082C
:1000A000C5000008C5000008C5000008C50000081C
:1000B000C500000800000000C500000800000000A6
:1000C0005FF808F100BEFEE710B500F019F8C04671
:1000D00000BEFEE704207146084202D0EFF309801B
:1000E00001E0EFF308807146044A104700BEFEE7C6
:1000F00000BEFEE700BEFEE770470000ED0000080E
:1001000030B583B000F0E4FB314B324A1360324A21
:100110001360324B324A03E0116819600433043231
:1001200030498B42F8D32B4B1A682F4B9A4204D19B
:10013000294B1A682D4B9A4200D0FEE7244B2C4ADB
:1001400013602C4A13602C4B02E000221A60043327
:100150002A4A9342F9D3264B1B68002B03D1254B27
:100160001B68002B00D0FEE700F0B6FB694601A833
:1001700000F0DAFB224C234B1C1BA410002504E0EA
:10018000AA001F4BD35898470135AC42F8DC1E4CEF
:100190001E4B1C1BA410002504E0AA001A4BD358C8
:1001A00098470135AC42F8DC0099019800F068FAF4
:1001B0000500174C174B1C1BA41004E0013CA200C7
:1001C000134BD3589847002CF8DC280000F088FB2C
:1001D000BABADECA0000002084000020000000201F
:1001E000F4120008880000207856341232547698B1
:1001F00088000020B400002088000020B800002003
:1002000040020008400200084002000840020008C6
:08021000400200084002000852
:10021800F41200080000002088000020F4120008F2
:10022800000000000000000088000020B800002046
:080238000000000000000000BE
:1002400082B0430018180023019304E0C046C04662
:10025000019B01330193019B9842F7D802B070478C
:1002600070B51420FFF7ECFF0A4CA36980252D021E
:100270002B43A3611420FFF7E3FFA369802212063A
:100280001343A3611420FFF7DBFFA3692B43A36192
:1002900070BDC0460008004810B50400454A936987
:1002A0008021C9010B43936143B2002B07DA9022EE
:1002B000D2059369802109020B43936106E09022E5
:1002C000D2059369802109060B439361630607D524
:1002D0009022D2059369802149010B43936106E086
:1002E0009022D2059369802149050B439361A306AF
:1002F00006D5314A9369802189000B43936105E05B
:100300002D4A9369802189040B439361E30606D546
:10031000294A9369802149000B43936105E0264AED
:100320009369802149040B439361FFF799FF2307E9
:1003300007D59022D2059369802109020B4393616E
:1003400006E09022D2059369802109060B43936150
:10035000630707D59022D2059369802149010B4399
:10036000936106E09022D2059369802149050B43F1
:100370009361A30706D5104A9369802189000B4336
:10038000936105E00C4A9369802189040B439361D2
:10039000E30706D5084A9369802149000B4393611E
:1003A00005E0054A9369802149040B439361FFF7F7
:1003B00057FF10BD000800480004004870B5050054
:1003C000002404E0C0B2FFF767FF0134E4B228570D
:1003D0000028F7D170BDC04610B50400474A9369A4
:1003E0008021C9050B43936143B2002B07DA9022A9
:1003F000D2059369802109020B43936106E09022A4
:10040000D2059369802109060B439361630607D5E2
:100410009022D2059369802149010B43936106E044
:100420009022D2059369802149050B439361A3066D
:1004300006D5334A9369802189000B43936105E017
:100440002F4A9369802189040B439361E30606D503
:100450002B4A9369802149000B43936105E0284AA8
:100460009369802149040B439361FFF7F9FE230749
:1004700007D59022D2059369802109020B4393612D
:1004800006E09022D2059369802109060B4393610F
:10049000630707D59022D2059369802149010B4358
:1004A000936106E09022D2059369802149050B43B0
:1004B0009361A30706D5124A9369802189000B43F3
:1004C000936105E00E4A9369802189040B4393618F
:1004D000E30706D50A4A9369802149000B439361DB
:1004E00005E0074A9369802149040B439361FFF7B4
:1004F000B7FE0448FFF7A4FE10BDC0460008004840
:1005000000040048B80B000010B51B4B5A6980214D
:1005100089020A435A615A698021C9020A435A6111
:100520005A69802109030A435A619022D20513684F
:100530008221C9050B431360104A1368A021C90228
:100540000B4313600E4A1368A021C9050B431360C7
:100550000C48FFF775FE3320FFF73EFF3220FFF710
:100560003BFF0C20FFF738FF2820FFF735FF012065
:10057000FFF732FF10BDC0460010024000040048E3
:1005800000080048307500000E4A5369C021C902B6
:100590000B4353610C4A13680C490B4313609023BF
:1005A000DB051968FF20814319601968C02000012C
:1005B00001431960D86855210143D960044B9382E7
:1005C0007047C046001002400004004855555100D5
:1005D000FF080000104A9369802189000B43936152
:1005E0000E4B996A20220A439A62D96810220A4364
:1005F000DA60596804220A435A60996801220A4362
:100600009A60064B1B68DB07FBD4044A91680423FD
:100610000B4393607047C046001002400024014025
:10062000034B802252011A6020221A607047C04694
:1006300000E100E0044B1A6804218A431A601A6C36
:10064000024B1A807047C04600240140AC000020D5
:10065000084A916901230B439361074BDA68DA601A
:10066000064B1968022211431960D9680A43DA60FF
:100670007047C046001002400000014000040140E5
:1006800010B50022194B1A80FFF73EFF1848FFF7FC
:1006900095FEC020FFF7A0FE1648FFF78FFEFFF77C
:1006A00073FF9023DB051B8ADB07FAD4FFF792FF69
:1006B000FFF7CEFFFFF7B4FF0120FFF78DFE02200A
:1006C000FFF78AFE0C48FFF779FE084C22880B4B97
:1006D0009A82C020FFF780FE2288094C0949200039
:1006E00000F0BCF92000FFF769FEE8E7AC0000204D
:1006F00094120008A4120008B01200080004004878
:100700009C000020B8120008054A516902230B43DF
:100710005361044A916804230B4393607047C046B9
:10072000000401400024014082B0002301930093A3
:10073000264A1368802149020B431360234B1A6831
:1007400080239B0213400093019B01330193009B84
:10075000002B04D1019AA023DB019A42EED11B4B5E
:100760001B689B0302D50123009301E00023009343
:10077000009B012B28D11122154B1A60134B5A688C
:100780005A605A685A605968124A0A405A605A6850
:10079000882149030A435A601A68802149040A43A0
:1007A0001A600A4B1B689B01FBD5084B5A68032152
:1007B0008A435A60596802220A435A60034B5B68B5
:1007C0000C221340082BF9D102B0704700100240F0
:1007D00000200240FF7FC0FF10B5124B1A680121B4
:1007E0000A431A605868104A02405A6018680F4A53
:1007F00002401A6018680E4A02401A6058680D4A92
:1008000002405A60DA6A0F208243DA62186B0A4AA1
:1008100002401A635A6B8A435A6300229A60FFF7B8
:1008200083FF10BD001002400CB8FF08FFFFF6FE6A
:10083000FFFFFBFFFFFFC0FFACFEFFFF10B51F4B2C
:100840005B680C221340042B07D0082B09D0002B27
:1008500023D11B4A1B4B1A6022E0194A194B1A601C
:100860001EE0164B5C685A68A40C0F20044002344A
:10087000C0235B021A4204D113484443114B1C604D
:100880000EE00E4BDB6A0F21194001310C4800F0DD
:1008900053F844430B4B1C6002E0094A094B1A60B1
:1008A000064B5B681B090F221340084AD35CDBB27E
:1008B000044A1168D940116010BDC04600100240C2
:1008C00000127A001400002000093D0004000020FE
:1008D00010B5FFF781FF10BD10B5FFF7AFFF10BDDA
:1008E000FEE7C04610B503000C4A1268002A02D188
:1008F0000B490A4A1160094A1068033303229343E3
:10090000C318084A934206D900F0A2F80C230360EA
:100910000120404201E0014A136010BD8C0000201C
:10092000B8000020001C002001230360014B0B6075
:100930007047C04618000020002243088B4274D341
:1009400003098B425FD3030A8B4244D3030B8B42D0
:1009500028D3030C8B420DD3FF22090212BA030CD9
:100960008B4202D31212090265D0030B8B4219D3BA
:1009700000E0090AC30B8B4201D3CB03C01A5241DA
:10098000830B8B4201D38B03C01A5241430B8B4222
:1009900001D34B03C01A5241030B8B4201D30B030B
:1009A000C01A5241C30A8B4201D3CB02C01A524132
:1009B000830A8B4201D38B02C01A5241430A8B42F5
:1009C00001D34B02C01A5241030A8B4201D30B02DE
:1009D000C01A5241CDD2C3098B4201D3CB01C01AF8
:1009E000524183098B4201D38B01C01A5241430902
:1009F0008B4201D34B01C01A524103098B4201D3F0
:100A00000B01C01A5241C3088B4201D3CB00C01A5C
:100A1000524183088B4201D38B00C01A52414308D4
:100A20008B4201D34B00C01A5241411A00D20146F9
:100A3000524110467047FFE701B5002000F006F86C
:100A400002BDC0460029F7D076E770477047C04620
:100A5000014B18687047C046800000200EB410B5E6
:100A60009DB002A9029008610B4882248860486109
:100A7000012040421FABC881084804CBA400006895
:100A800001938C8100F06EF80023029A13701DB060
:100A900010BC08BC03B01847FFFFFF7F8000002098
:100AA000F0B58E6885B007000C00039201939E425A
:100AB00043D890238A89DB001A423ED00325096976
:100AC000236801985B1A029363695D43EB0F5D191C
:100AD000029B6D1001331B18AB4200D91D0053055A
:100AE00010D52900380000F03BFB061E14D0029AF6
:100AF000216900F0D0FAA289194B134080221343D8
:100B0000A38112E02A00380000F080FB061E0CD101
:100B10002169380000F0DEFA0C23402201203B60FE
:100B2000A38940421343A38117E0029B2661F61874
:100B300026606561019EED1AA560019BB34200D25B
:100B40001E0032000399206800F0AEFA0020A3686E
:100B50009B1BA36023689E19266005B0F0BDC046AC
:100B60007FFBFFFFF0B59FB0029005938B890F00CC
:100B700016001B0610D50B69002B0DD1402100F08B
:100B8000EFFA38603861002804D10C23029A01384A
:100B90001360D8E040237B61002306AD6B612033F6
:100BA0006B761033AB7634002378002B03D1A31B74
:100BB000049312D003E0252BF9D00134F4E7A31BF2
:100BC000320039000298FFF76BFF431C00D1B4E0FC
:100BD0006A69049B944663446B612378002B00D1BF
:100BE000ABE00122002352426A6002A9543252183B
:100BF00001342B60EB60AB601370AB65534E217812
:100C00000522300000F03CFA002807D00123801BA9
:100C100083402A68013413432B60EFE72B68DA0620
:100C200004D55322202102A8121811701A0704D5E6
:100C300053222B2102A81218117022782A2A03D0DD
:100C4000099B00200A210EE0059A111D12680591EA
:100C5000002A01DB099204E05242EA6002221343B7
:100C60002B6001340BE02278303A092A04D84B4338
:100C700001349B180120F6E7002800D0099323785F
:100C80002E2B1ED163782A2B0AD1059B02341A1D04
:100C90001B680592002B01DA01235B42079310E0E9
:100CA00000230A201A0001346B60217830390929A9
:100CB00004D84243013452180123F6E7002B00D038
:100CC0000792234E21780322300000F0D9F9002842
:100CD00006D04023801B83402A68013413432B60D5
:100CE000217806221B48661C297600F0C9F90028E5
:100CF00012D0194B002B06D10722059B07339343D3
:100D00000833059314E005AB00933A00134B290018
:100D1000029800E000BF07E005AB00933A000F4BDC
:100D20002900029800F08AF80390039B013304D055
:100D30006B69039A9B186B6135E7BB890B985B065F
:100D400001D5012040421FB0F0BDC046BE120008D0
:100D5000C4120008C812000800000000A10A000820
:100D6000F7B5170001938A680B6900900C00934255
:100D700000DA130022003B6043321278002A01D0CF
:100D800001333B6023689B0602D53B6802333B601E
:100D9000062523681D401ED0230043331B785A1EAE
:100DA0009341226892061CD53020E1184331087027
:100DB00021005A1C45310978A218433202331170C0
:100DC0000FE022000123193201990098089EB047D4
:100DD000431C0ED00135E3683A689B1A9D42F0DB54
:100DE000DAE72200019943320098089DA847431C86
:100DF00002D10120404220E006232068E1683A68E1
:100E000003400025042B03D18D1AEB43DB171D4053
:100E1000A3682269934201DD9B1AED180027BD42A9
:100E20000AD0220001231A3201990098089EB04787
:100E3000431CDED00137F2E70020FEBDF0B58BB0D9
:100E400006920A0043320793059004920A7E0C0032
:100E5000109B6E2A00D1ABE011D8632A22D009D8AA
:100E6000002A00D1B5E0582A00D0C5E045310A700B
:100E7000814A4FE0642A1DD0692A1BD0BCE0732A46
:100E800000D1AAE009D86F2A29D0702A00D0B3E097
:100E9000202209680A43226037E0752A1FD0782A89
:100EA00033D0A9E00E001A684236111D196013688C
:100EB0003370A4E021681A68080606D4490604D5F0
:100EC000111D19600023D55E02E0111D196015681F
:100ED000002D3BDA2D23049A6D42137036E0216811
:100EE0001A68080606D4490604D51568111D19604C
:100EF000ADB202E0111D196015685F4B227E0393AD
:100F000008276F2A1DD00A271BE0220078214532CE
:100F100011705A4A19680392081D226818600D68FA
:100F2000100602D4500600D5ADB2D30702D5202357
:100F30001A4322601027002D03D1202322689A43F0
:100F400022602300002243331A7002E00A274A4B32
:100F500003936368A360002B09DB0422216891439B
:100F60002160002D05D1049E002B11D07BE0002DC7
:100F700079D0049E28003900FFF764FD039B013EF1
:100F80005B5C280033703900FFF7D6FC051EF1D1F9
:100F9000082F09D12368DB0706D5636822699342CD
:100FA00002DC3023013E3370049B9B1B23612BE04A
:100FB00009681A68080607D4490605D5111D196085
:100FC0001368A28A1A8004E0111D1960136862690F
:100FD0001A600023049E236116E01A68111D19602F
:100FE000166800216268300000F04AF8002801D03D
:100FF000801B6060636803E0260042363270012384
:1010000023610023049A1370079B09AA009321000F
:10101000069B0598FFF7A4FE431C02D10120404225
:1010200027E02369320006990598079DA847431CCD
:10103000F4D0236800259B070FD4099BE0689842F1
:1010400017DA180015E022000123193206990598D5
:10105000079EB047431CE1D00135E368099A9B1A0B
:101060009D42F0DBE9E72600039B42361B78337094
:101070008EE70BB0F0BDC046CF120008E0120008AA
:10108000C9B28218904204D003788B4202D001305A
:10109000F8E700207047002310B59A4203D0CC5CDB
:1010A000C4540133F9E710BD10B5884202D98B183A
:1010B000984201D3002305E09B1A013A08D3995CBA
:1010C0008154FAE7934203D0CC5CC4540133F9E76E
:1010D00010BD000030B500293ED004390B68002B4C
:1010E00000DAC9181D4A13681400002B02D14B60A6
:1010F000116031E08B420DD90A688818834203D110
:1011000018685B6882180A604B60216024E08A429C
:1011100003D813005A68002AF9D11D685C198C4263
:101120000BD10968691858181960824214D11068E7
:101130005268411819605A600EE08C4202D90C23A3
:10114000036009E008680C18A24203D114685268D1
:10115000201808604A60596030BDC04698000020E1
:10116000032370B5CD1C9D43083506000C2D01D21C
:101170000C2505E0002D03DA0C230020336040E04D
:10118000A942F9D81F4B1C681A002100002913D06E
:101190000B685B1B0DD40B2B02D90B60CC181EE027
:1011A0008C4202D1636813601AE04B6863600C00E4
:1011B00016E00C004968E9E7134C2368002B03D1C3
:1011C000300000F049F820602900300000F044F8B9
:1011D000431CD1D00323C41C9C43A0420AD12560E8
:1011E000200007220B30231D9043C31A09D05A4216
:1011F000E25006E0211A300000F02EF8431CEED138
:10120000BAE770BD9800002094000020F8B50600F1
:101210000C001500002904D11100FFF7A1FF040004
:1012200018E0002A03D1FFF755FF2C0012E000F070
:1012300025F885420ED929003000FFF791FF071EDF
:1012400007D021002A00FFF726FF21003000FFF71A
:1012500041FF3C002000F8BD002370B5064C05009E
:1012600008002360FFF73EFB431C03D12368002BDB
:1012700000D02B6070BDC046B00000200B1F1A6864
:10128000101F002A04DA891804390B68D0180438B2
:101290007047000045454533303137572050726163
:1012A000632036002A2A6E616D65732A2A000000C9
:1012B0005465737400000000256400004300232D72
:1012C000302B2000686C4C0065666745464700304F
:1012D000313233343536373839414243444546009C
:1012E000303132333435363738396162636465669C
:0112F00000FD
:1012F40078563412000000000000000001020304CC
:1013040006070809006CDC029000002000000000C1
:1013140000000000000000000000000000000000C9
:1013240000000000000000000000000000000000B9
:10133400BC120008000000000000000000000000D3
:101344000000000000000000000000000000000099
:101354000000000000000000000000000000000089
:101364000000000000000000000000000000000079
:0813740020000020325476989D
:0400000508000101ED
:00000001FF
