:020000040800F2
:1000000000200020C9000008D1000008D500000829
:1000100000000000000000000000000000000000E0
:10002000000000000000000000000000F1000008D7
:100030000000000000000000F5000008F9000008C2
:10004000C5000008C5000008C5000008C50000087C
:10005000C5000008C5000008C5000008C50000086C
:10006000C5000008C5000008C5000008C50000085C
:10007000C5000008C5000008C5000008C50000084C
:10008000C5000008C500000800000000C500000809
:10009000C5000008C5000008C5000008C50000082C
:1000A000C5000008C5000008C5000008C50000081C
:1000B000C500000800000000C500000800000000A6
:1000C0005FF808F100BEFEE708B500F019F8C04679
:1000D00000BEFEE704207146084202D0EFF309801B
:1000E00001E0EFF308807146044A104700BEFEE7C6
:1000F00000BEFEE700BEFEE770470000ED0000080E
:1001000030B583B000F082FB314B324A1360324A83
:100110001360324B324A03E0116819600433043231
:1001200030498B42F8D32B4B1A682F4B9A4204D19B
:10013000294B1A682D4B9A4200D0FEE7244B2C4ADB
:1001400013602C4A13602C4B02E000221A60043327
:100150002A4A9342F9D3264B1B68002B03D1254B27
:100160001B68002B00D0FEE700F054FB01A8694695
:1001700000F07CFB224B234DED1AAD10002404E06F
:10018000A2001F4BD35898470134A542F8DC1E4B00
:100190001E4DED1AAD10002404E0A2001A4BD358F6
:1001A00098470134A542F8DC0198009900F018FA4C
:1001B000051C174B174CE41AA41004E0013CA200E4
:1001C000134BD3589847002CF8DC281C00F026FB72
:1001D000BABADECA0000002098000020000000200B
:1001E000784600089C0000207856341232547698E5
:1001F0009C000020EC0000209C000020F00000206B
:1002000040020008400200084002000840020008C6
:08021000400200084002000852
:1002180078460008000000209C000020784600086E
:1002280000000000000000009C000020F0000020FA
:080238000000000000000000BE
:1002400082B0430018180023019304E0C046C04662
:10025000019B01330193019B8342F7D302B07047A6
:1002600038B51420FFF7ECFF0A4CA36980252D0256
:100270002B43A3611420FFF7E3FFA26980231B0631
:100280001343A3611420FFF7DBFFA3691D43A5619E
:1002900038BDC0460008004810B5041C454B99699C
:1002A0008022D2010A439A6143B2002B07DA9023DD
:1002B000DB059969802212020A439A6106E09023C5
:1002C000DB059969802212060A439A61630607D505
:1002D0009023DB059969802252010A439A6106E066
:1002E0009023DB059969802252050A439A61A3068F
:1002F00006D5314B9969802292000A439A6105E044
:100300002D4B9969802292040A439A61E30606D52F
:10031000294B9969802252000A439A6105E0264BD5
:100320009969802252040A439A61FFF799FF2307D3
:1003300007D59023DB059969802212020A439A614E
:1003400006E09023DB059969802212060A439A6130
:10035000630707D59023DB059969802252010A4380
:100360009A6106E09023DB059969802252050A43D1
:100370009A61A30706D5104B9969802292000A431F
:100380009A6105E00C4B9969802292040A439A61B4
:10039000E30706D5084B9969802252000A439A6107
:1003A00005E0054B9969802252040A439A61FFF7E0
:1003B00057FF10BD000800480004004838B5051C70
:1003C000002404E0D8B2FFF767FF0134E4B22B5DEC
:1003D000002BF7D138BDC04610B5041C474B9969B6
:1003E0008022D2050A439A6143B2002B07DA902398
:1003F000DB059969802212020A439A6106E0902384
:10040000DB059969802212060A439A61630607D5C3
:100410009023DB059969802252010A439A6106E024
:100420009023DB059969802252050A439A61A3064D
:1004300006D5334B9969802292000A439A6105E000
:100440002F4B9969802292040A439A61E30606D5EC
:100450002B4B9969802252000A439A6105E0284B90
:100460009969802252040A439A61FFF7F9FE230733
:1004700007D59023DB059969802212020A439A610D
:1004800006E09023DB059969802212060A439A61EF
:10049000630707D59023DB059969802252010A433F
:1004A0009A6106E09023DB059969802252050A4390
:1004B0009A61A30706D5124B9969802292000A43DC
:1004C0009A6105E00E4B9969802292040A439A6171
:1004D000E30706D50A4B9969802252000A439A61C4
:1004E00005E0074B9969802252040A439A61FFF79D
:1004F000B7FE0448FFF7A4FE10BDC0460008004840
:1005000000040048B80B000008B51B4B5969802255
:1005100092020A435A6159698022D2020A435A61FF
:100520005969802212030A435A619023DB05196836
:100530008222D2050A431A60104B1968A022D20207
:100540000A431A600E4B1968A022D2050A431A60AA
:100550000C48FFF775FE3320FFF73EFF3220FFF710
:100560003BFF0C20FFF738FF2820FFF735FF012065
:10057000FFF732FF08BDC0460010024000040048EB
:10058000000800483075000030B585B0802080023A
:10059000012100F025FB02A900240C718C710F23AE
:1005A00002930125CD714D719020C00500F06AF9CC
:1005B0006A4615719471FF230093D471032353711C
:1005C000054C201C694600F05DF9201CFF2100F05D
:1005D0000FFA05B030BDC04600040048000000001E
:1005E00070B51D4C201C00F02DFAFFF78DFFFFF7B2
:1005F000CBFF1A48FFF7E2FEC020FFF7EDFE2668AA
:1006000012491148124A134B00F012FB041C0D1C36
:10061000301C03F00DFB221C2B1C02F069F8104C5F
:1006200003F094FA021C201C0E4903F059FB201C15
:10063000FFF7C4FE9020C00500F0B0F9C307F9D45D
:100640000120FFF7C9FEFEE7000000000000244083
:100650000000000000001840B4000020FC44000826
:10066000D80000200C45000882B0002301930093BD
:10067000264B1968802252020A431A60234B1A68DB
:1006800080239B0213400093019B01330193009B45
:10069000002B04D1019AA023DB019A42EED11B4B1F
:1006A0001B689A0302D50123009301E00023009305
:1006B000009B012B28D11122154B1A60134B5A684D
:1006C0005A605A685A605968124A0A405A60596812
:1006D000882252030A435A601968802252040A434E
:1006E0001A600A4B1B689A01FBD5084B5A68032114
:1006F0008A435A60596802220A435A60034B5B6876
:100700000C221340082BF9D102B0704700100240B0
:1007100000200240FF7FC0FF08B5124B196801227C
:1007200011431960586810490140596018680F4911
:100730000140196018680E490140196058680D4958
:1007400001405960D96A0F208143D962186B0A4968
:1007500001401963596B9143596300229A60FFF776
:1007600083FF08BD001002400CB8FF08FFFFF6FE33
:10077000FFFFFBFFFFFFC0FFACFEFFFF10B51E4BEE
:100780005B680C221340042B07D0082B09D0002BE8
:1007900022D11A4A1A4B1A6021E0184A184B1A60E3
:1007A0001DE0154B5C68A4025A68240F0234C02374
:1007B0005B021A4204D1134B5C43114B1C600EE0E8
:1007C0000D4BDB6A0F21194001310C4801F0E0FBB1
:1007D00044430B4B1C6002E0084A094B1A60064B6D
:1007E0005B681B061B0F084AD25CD2B2044B196827
:1007F000D140196010BDC0460010024000127A00BE
:100800001400002000093D000400002008B5FFF797
:1008100083FF08BD08B5FFF7B1FF08BDFEE7C0467E
:1008200008B50120FFF7FAFF08B50D4B1B68002B38
:1008300002D10C4A0A4B1A60094B1B680330032291
:1008400090431818084A904206D903F043FA0C2343
:1008500003600120404202E0014A1060181C08BDFC
:10086000A0000020F0000020001C002001230360F5
:10087000014B0B607047C0461800002008B5FFF719
:10088000CFFFC04670B5051C0E1C9023DB059842B7
:1008900012D03C4B98420FD03B4B98420CD03B4B74
:1008A000984209D03A4B984206D03A4B984203D02E
:1008B0003948B421FFF7E2FF3268002A03D13648F5
:1008C000B521FFF7DBFF3379032B03D93248B6217B
:1008D000FFF7D4FFF379022B03D92F48B721FFF795
:1008E000CDFF00244BE00123A34032681A409A4216
:1008F00044D13379013B012B28D87379012B05D9D9
:10090000032B03D02448C721FFF7B8FFAA68630070
:10091000032199408A43AA60AA68717999400B1C07
:100920001343AB60B379012B03D91B48CE21FFF7EA
:10093000A5FFAA8823041B0C012199408A43AA80A1
:10094000AA88B17999408BB21343AB8029686300C0
:100950000322101C9840814329602868317999400E
:1009600001432960E9682004C00B82409143E9609B
:10097000EA68F17999400B1C1343EB6001340F2CAA
:10098000B1D970BD0004004800080048000C0048C0
:1009900000100048001400481845000810B5041C59
:1009A0009023DB05984213D00B4B984210D00B4B91
:1009B00098420DD00A4B98420AD00A4B984207D071
:1009C000094B984204D00948A7214900FFF756FF78
:1009D000208A80B210BDC0460004004800080048CC
:1009E000000C00480010004800140048184500089A
:1009F00038B5041C0D1C9023DB05984213D00B4B1B
:100A0000984210D00A4B98420DD00A4B98420AD017
:100A1000094B984207D0094B984204D00848D82186
:100A2000FF31FFF72BFFA58238BDC0460004004808
:100A300000080048000C004800100048001400485E
:100A40001845000870B5041C5E4B5B680C2213400F
:100A5000042B0CD002D8002B05D028E0082B0AD09C
:100A60000C2B20D023E0584B0360002022E0564B93
:100A7000036000201EE0534B5D68AD025A682D0FE5
:100A80000235C0235B021A4202D15048684308E095
:100A90004C4BDB6A0F21194001314B4801F078FAC9
:100AA0006843206006E04A4B0360002002E0464BAA
:100AB00023600020434B5A681206120F454DA95C73
:100AC000C9B22668321CCA40111C62605A685205BD
:100AD000520FAA5CD2B2D1400A1CA1601B6BD9058F
:100AE00002D43D4BE36008E0364B5B68590402D406
:100AF0005308E36001E09308E360324B1B6B590637
:100B000002D4364B236102E080231B0223612D4B6C
:100B10001B6BD90602D42C4B636100E06661294B44
:100B20001B6B990701D1A26119E0264B1B6B0321B6
:100B30000B40012B01D1A66111E0224B1B6B03215D
:100B40000B40022B03D180231B02A36107E01D4B46
:100B50001B6B03210B40032B01D11B4BA361194BD2
:100B6000196BC0239B02194201D1E26120E0154BB1
:100B70001B6BC02292021A4080235B029A4201D171
:100B8000E66115E00F4B1B6BC02292021A408023D6
:100B90009B029A4203D180231B02E36108E0094BC8
:100BA0001A6BC0239B021A409A4201D1064BE361A3
:100BB000044B1B6B1A0602D4054B236200E0206233
:100BC00070BDC0460010024000127A0000093D00CE
:100BD000006CDC0220000020809FD5001280000005
:100BE00038B5041C0D1C0D4B184201D1002803D14F
:100BF0000B480C49FFF742FE012D03D908480A496A
:100C0000FFF73CFE002D04D0084B5A6914435C6189
:100C100003E0064B5A69A2435A6138BDAAFF81FE20
:100C20004C45000836050000370500000010024062
:100C3000F0B546464F46C0B48FB0161C1F1C00903E
:100C4000019100F0ADF9BC4A0023D356041C0D1CE1
:100C5000904602940395013305D0301C391C01F0F5
:100C600021F8002806D1029803990FB00CBC9046D9
:100C70009946F0BD0098019901F014F881460028CA
:100C800031D1301C391CA14B9F4A01F0E1F90028F9
:100C9000E9D001230493A94B04AC63604B46236263
:100CA000009A019BA260E360994A9A4BA261E361BA
:100CB00042460023D356266167615A1C0ED0022B90
:100CC0000CD0201C01F01EF8002800D17BE0236A24
:100CD000002B03D002F0FEFF236A0360A269E369E0
:100CE00002920393BFE700980199884B864A01F06E
:100CF000AFF9002822D0301C391C844B824A01F005
:100D0000A7F9051E2CD0012304938C4B04AC63601F
:100D100000232362009A019BA260E3607B4B7A4A26
:100D2000A261E36142460023D35626616761002B2E
:100D3000C7D0774A774BA261E361CFE7201C291C1B
:100D400000F0A8FF8146002842D0201C291C6F4BD0
:100D50006D4A01F07DF900286CD10294039582E779
:100D6000301C391C00F096FF002800D17BE7301CB6
:100D7000391C664B644A01F071F9002800D172E712
:100D8000012304936D4B04AC6360009A019BA26045
:100D9000E36043461978256226616761002900D126
:100DA0007AE05D4A5D4BA261E36102293CD102F029
:100DB00091FF21230360236A002B8FD002F08AFF6A
:100DC000226A02608AE702F085FF212303607EE742
:100DD0000098019900F05EFF0028B6D0301C391C45
:100DE00000F058FF0028B0D0201C291C00F05AFF4A
:100DF00004AC002855D101230493504B206263605A
:100E0000009A019BA260E36043461D7826616761FA
:100E1000002D41D03D493C48021C0B1C01F068FCF0
:100E2000A061E161022DC2D0201C00F06BFF002800
:100E3000C1D1BCE70098019900F02CFF0294039502
:100E4000002800D10FE7301C391C00F023FF02946A
:100E50000395002800D106E704AC0423049326611F
:100E60006761364B636000232362009A019BA26096
:100E7000E360264B244AA261E36142460023D35635
:100E8000022B04D0201C00F03DFF002893D102F07B
:100E900021FF222303608EE71C4B1B4AA261E36102
:100EA000C2E703230493254B2661676163604B46C9
:100EB0002362009A019BA260E36042460023D3565E
:100EC000002B3DD1164A174B00980199A261E361AE
:100ED0000E4B0D4A01F0C2F80028CED0124A134B37
:100EE000301C391C02F06EF8061C0F1C00F014FFB9
:100EF000321C3B1C01F0ACF80028BED10C4A0D4B53
:100F0000A261E361B9E7C0460000000000000000F4
:100F1000000000000000F03F000000000000F0FFB3
:100F2000000000E0FFFFEF47000000000000E03F8E
:100F3000000000E0FFFFEFC7300000207C45000804
:100F4000104B0F4A00980199A261E3610E4A0F4BC2
:100F500001F084F8002890D00D4A0E4B301C391C4B
:100F600002F030F8061C0F1C00F0D6FE321C3B1CB1
:100F700001F06EF8002800D07FE7074A074B7AE7B8
:100F8000000000000000F07F0000000000000000F2
:100F9000000000000000E03F000000000000F0FF43
:100FA000F0B55F4656464D464446F0B499464B462A
:100FB0005C00934664088FB00D1C0F1C5A46211C20
:100FC0000090061C824602935846114337D06900B0
:100FD000490888466849049588452BDC28D066492D
:100FE0008C4227DC00D180E000210891049900297F
:100FF00000DA7EE0002833D15F4B9C4200D196E0BE
:101000005E4B9C426AD002988023DB05984201D156
:1010100000F0E1FB5A4B0299994221D1049A002A2F
:101020001EDB291C009800F04BFD061C0D1C08E07F
:10103000002ED4D0534A131C434433430AD14F4D9E
:101040000026301C291C0FB03CBC90469946A24695
:10105000AB46F0BD4C4800F057FE061C0D1CF0E7F7
:101060000098291C00F012FE534606908C46002B77
:1010700020D0FB0F013B0493049E089B33436AD0AE
:10108000424B9C4200DC8DE0414B9C4201DC00F075
:1010900035FC404B984500DC89E3029E002E00DCC5
:1010A00089E334493248021C0B1C01F08BFF061CFB
:1010B0000D1CC6E74046002804D0304BBA00920809
:1010C0009A42D6D1029C002C01DA00F0C4FB049EA7
:1010D000002E00DA73E3069E6546B2E7029C002C00
:1010E00001DA00F076FC009EABE7002800D17BE738
:1010F000A0E729498C422BDC26498C4200DC79E7A9
:1011000021158C4625498C4501DC00F086FC244BDA
:1011100061465B1A111CD9400A1C9A40824200D0D9
:1011200068E701220A4002239B1A089362E7154AE6
:10113000131C4344334300D181E7164B984500DC30
:101140007FE3029C002C00DA35E35E464D4678E7EB
:10115000022108914EE70098009A291C2B1C02F0EE
:10116000C1F9021C0B1C01F0C3FA061C0D1C68E738
:101170009C7500883CE4377E0000F07F0000F03F63
:101180000000E03F000010C0484500080000E041BA
:101190000000F043FFFFEF3FFFFF3F431304000059
:1011A00033040000E24A0023904509DC0698C54B51
:1011B000C34A614601F006FF3523069088465B422C
:1011C0004046DC4902155218D21892460303DA4D04
:1011D000DA4A1B0B1D43934201DC00F0F6FBD84AB0
:1011E000934201DC00F036FCD64B01229244ED180C
:1011F00000240021069A2B1C06920793C900D24BAB
:1012000088464344186859680A900B910A9A0B9BC8
:101210000698079902F066F90A9A0B9B061C0F1CA8
:101220000698079900F042FF021C0B1CA648A7492C
:1012300001F05EFA0C900D910C9A0D9B301C391C3C
:1012400001F0C0FE029003910B1C802189056D10F6
:10125000802000220D430003009201939C4A9D4B85
:1012600029180B1900980199141C1D1C01F0AAFEE5
:10127000021C0B1C301C391C02F034F90A9A0B9B1F
:10128000061C0F1C201C291C02F02CF9021C0B1C34
:101290000698079902F026F9021C0B1C0098019988
:1012A00001F090FE021C0B1C301C391C02F01AF9D4
:1012B0000C9A0D9B01F086FE069007910298039907
:1012C000021C0B1C01F07EFE041C0D1C221C2B1C9E
:1012D00001F078FE804A814B061C0F1C201C291C43
:1012E00001F070FE7E4A7F4B00F0E0FE221C2B1CBA
:1012F00001F068FE7C4A7D4B00F0D8FE221C2B1CBE
:1013000001F060FE7A4A7B4B00F0D0FE221C2B1CC1
:1013100001F058FE784A794B00F0C8FE221C2B1CC5
:1013200001F050FE764A774B00F0C0FE021C0B1C09
:10133000301C391C01F046FE029A039B041C0D1C54
:101340000098019900F0B2FE069A079B01F03AFE60
:10135000221C2B1C00F0AAFE061C0F1C00980199F1
:10136000021C0B1C01F02EFE674A684B0A900B9181
:1013700000F09CFE321C3B1C00F098FE00240D1C6B
:10138000221C009801992B1C01F01CFE221C2B1C16
:10139000009001910698079901F014FE5A4A5B4BA0
:1013A00006900791201C291C02F09CF80A9A0B9BBE
:1013B00002F098F8021C0B1C301C391C02F092F849
:1013C000029A039B01F0FEFD021C0B1C0698079974
:1013D00000F06CFE061C0F1C321C3B1C009801998F
:1013E00000F064FE4A4A4B4B0024201C0D1C01F007
:1013F000E9FD494A494B06900791201C291C01F040
:10140000E1FD009A019B02900391201C291C02F02F
:1014100069F8021C0B1C301C391C02F063F8404AAE
:10142000404B01F0CFFD021C0B1C0298039900F009
:101430003DFE464B43441A685B6800F037FE061CCD
:1014400050460F1C02F0B6FB0D1C4149041C4144E0
:101450000A684B680698079902920393321C3B1C5A
:1014600000F024FE029A039B00F020FE221C2B1C9D
:1014700000F01CFE00220B1C00920193101C2B1C80
:10148000221C02F02FF8029A039B02F02BF8069A16
:10149000079B02F027F8021C0B1C301C391C02F0C1
:1014A00021F802900391089B049C013B234300D048
:1014B000C2E11D481D49049005914BE0C046C0465D
:1014C0000000000000004043000000000000F03F6A
:1014D0000000000000000000EF4E454A287ECA3F91
:1014E00065DBC9934A86CD3F01411DA96074D13F98
:1014F0004D268F515555D53FFFAB6FDBB66DDB3FAA
:10150000033333333333E33F00000000000008406F
:10151000000000E009C7EE3FF5015B14E02F3EBE7E
:10152000FD033ADC09C7EE3F000000000000F0BFF9
:10153000FFFF0F0001FCFFFF0000F03F8E9803004B
:1015400079B60B000000F0FFA045000890450008A8
:10155000804500080026321C4B465846494601F09B
:10156000C1FF009A019B01F02DFD029A039B041C10
:101570000D1C5846494601F025FD021C0B1C201C81
:10158000291C00F093FD009A019B02900391301CEE
:10159000494601F017FD00900191009A019B0298C5
:1015A000039900F083FDCC4B041C0D1C0F1C8846D6
:1015B000994200DC19E1C94A8B18034300D012E2BA
:1015C000AC4BAB4A0298039900F070FD009A019B66
:1015D00008900991201C291C01F084FF021C0B1C9F
:1015E0000898099900F04EFDA946002800D0FAE1BC
:1015F0004A46BB4B802411156403C918201C0841BE
:10160000C11948009C4A9D4B0B1C0903B54E090BA0
:10161000400D0C43B4498519B44E081A04412E41BB
:101620004046B343A146002800DA1EE20098019923
:1016300001F058FF00900191009A019B02980399D4
:1016400000F034FD4A46120590460024201C8C4AC6
:101650008C4B0D1C0F1C01F0B5FC009A019B0890EF
:101660000991201C291C01F03DFF021C0B1C029853
:10167000039901F037FF844A844B01F0A3FC844AAC
:10168000844B261C0D1C041C391C301C01F09AFCD8
:10169000021C0B1C201C291C00F008FD041C0D1C46
:1016A000221C2B1C0898099900F000FD089A099B40
:1016B000061C0F1C01F016FF021C0B1C201C291C11
:1016C00001F010FF321C009001913B1C301C391CB2
:1016D00001F078FC704A714B041C0D1C01F072FC87
:1016E0006F4A704B01F0FEFE221C2B1C01F06AFCBD
:1016F0006D4A6E4B00F0DAFC221C2B1C01F062FCE0
:101700006B4A6C4B01F0EEFE221C2B1C01F05AFCC4
:10171000694A6A4B00F0CAFC221C2B1C01F052FCE7
:10172000021C0B1C301C391C01F0DCFE041C0D1CBF
:10173000221C2B1C301C391C01F044FC604A614BFC
:1017400002900391201C291C01F0CCFE021C0B1CF2
:101750000298039900F0CCFF009A019B041C0D1C19
:10176000301C391C01F02EFC009A019B00F09EFCFD
:10177000021C0B1C201C291C01F0B4FE321C3B1C5B
:1017800001F0B0FE0B1C021C4F48504901F0AAFEAC
:10179000464673181C15002C00DC60E1021C0498FE
:1017A000059901F00FFC061C0D1CFFF74AFC029C7A
:1017B000002C00DA75E400260025FFF742FC4C48B7
:1017C000089C031C4344234300D01AE10698614659
:1017D000069A6346C3E4291C2B1C0098009A01F06A
:1017E000F1FB061C0D1CFFF72CFC4B005B08994617
:1017F000404B994500DC25E13F480B1823430DD1B0
:10180000009A019B201C01F06DFE021C0B1C02982B
:10181000039900F02DFC002800D1E9E62C4A2D4B5D
:101820000498059901F0CEFB294A2A4B01F0CAFB26
:10183000061C0D1CFFF705FC2349244A0491059260
:1018400088E6029E002EB6DA80200006051C5E4661
:101850004D44FFF7F6FB069A63461B481B4900F010
:1018600047FF06908C46FFF732FCC046C046C04694
:10187000FE822B654715973C000000000000000029
:1018800000000000432EE63FEF39FAFE422EE63F0D
:10189000396CA80C615C20BED0A4BE726937663E6C
:1018A000F16BD2C541BDBB3E2CDE25AF6A56113F60
:1018B00093BDBE166CC1663F3E5555555555C53F47
:1018C0000000000000000040000000000000F03FA9
:1018D00059F3F8C21F6EA501FFFF8F40000070BFD3
:1018E00002FCFFFF01FCFFFF13040000FFFF0F00DD
:1018F000000010C0FFCB904000346F3F6C4B984508
:1019000000DC54E76B4B984501DDFFF7C6FB6146F1
:10191000584B574A069801F0E5FD574A574B041CAF
:101920000D1C01F04FFB564A564B061C0F1C201C89
:10193000291C01F047FB221C009001912B1C201C4C
:10194000291C01F03FFB504A504B02900391201C90
:10195000291C01F037FB021C0B1C4D484D4901F0BE
:10196000C1FD221C2B1C01F02DFB021C0B1C4A4844
:101970004A4901F0B7FD021C0B1C0298039901F0C3
:1019800021FB474A474B01F01DFB021C0B1C009832
:10199000019901F0A7FD041C0D1C221C2B1C301CFE
:1019A000391C00F083FB00220B1C00920193101CD9
:1019B0003B1C321C01F096FD021C0B1C201C291C38
:1019C00001F090FD029003916DE500240021FFF7E6
:1019D00011FC2B1C27492648009A00F089FE061CA2
:1019E0000D1CFFF72EFB304A304B0498059901F08F
:1019F000E9FA2D4A2D4B01F0E5FA061C0D1CFFF704
:101A000020FB089E012E01D0FFF765FB8020000619
:101A1000051C069E6544FFF714FB002801D0FFF764
:101A20001FFB6346C91A221C0A41101C8840A042B1
:101A300001D0FFF7E5FA01231A4002239B1A08930D
:101A4000FFF7DEFA1C4B994500DDD1E500239846EF
:101A50009946FAE58024E4020121FFF7CBFB4A46D0
:101A600000F006FA021C0B1C99E66442A146DDE573
:101A7000000000000000F03F000000604715F73F45
:101A800044DF5DF80BAE543E000000000000D03F84
:101A9000555555555555D53F000000000000E03F15
:101AA000FE822B654715F73F9C7500883CE4377E26
:101AB000FEFFEF3F0000F03F0000E03FC046C046A1
:101AC000F0B55F4656464D464446F0B46C4E0D1C8C
:101AD000371C83B0041C021C0B1C2F40B74200D1E2
:101AE000ADE0002900DC8BE02F1500D194E0654DBE
:101AF00009038023090B5B037F190B43FE0700D505
:101B000070E07F10C20FB8465B00002780219B1851
:101B10001624420000970020890345189D4204DCEA
:101B200068185B1B009D6D180095D50F5B00013C8C
:101B30005B1952004908002CEFD1802100260906CC
:101B400020250196B446894609E0834246D0D40F49
:101B50005B00013D1B1952004908002D1CD0664650
:101B60008C198342F1DD6718E60FBC46F607824602
:101B70004E452CD01B1AA24280414042019F1B1AA5
:101B8000121B7F18D40F5B00013D019750461B19B3
:101B900052004908002DE2D1134328D1019843088F
:101BA000009D394E6A109219ED0702D58021090671
:101BB0000B4340460705B9181C1C0D1C201C291C92
:101BC00003B03CBC90469946A246AB46F0BDFF0F21
:101BD000FF077E427E41B2468244CBE79442C2D99F
:101BE000181CB4E7C20F5B009B18400089E70199FD
:101BF00001312FD0019C012323401B195B08CFE743
:101C00006B005B081A43D9D0002700292BD1C10AE9
:101C1000153F40050029FAD08022520311421ED1FF
:101C20000023490001331142FBD001242022E41A91
:101C3000D21A3F19041CD4402143984057E7201C76
:101C4000291C01F0BFF9221C2B1C00F02FFA041CE8
:101C50000D1CB3E7009A002301320092A0E7202276
:101C600001240023E5E7221C2B1C201C291C01F069
:101C700039FC021C0B1C00F03BFD041C0D1C9DE7F5
:101C80000000F07F01FCFFFF0000E03F4B0059081F
:101C90007047C0464800024B4008C018C00F70474C
:101CA000000010800B1C011C021C30B519430220DF
:101CB000002900D130BD802109068B4216D00D4984
:101CC00004205C180C498C42F4D90C4D5C198C42F0
:101CD000F0D90B4C590049080320A142EAD9074C1E
:101CE0000020A142E6D150425041E3E7002AE1D072
:101CF000EFE7C0460000F0FFFFFFDF7F0000F07F4E
:101D0000FFFF0F0000207047024901487047C0469E
:101D1000000000000000F87FF0B546464F46C0B412
:101D2000CA0F90464B004D4A5B0D9E1883B0041CB1
:101D30000D1C8C46071C132E3BDC002E5CDB484F31
:101D4000021C37413B1C0B400343994648460B1C81
:101D5000002827D07B081A1C0A4022430027002AAB
:101D60000AD0132E00D176E0291C80229943D2029A
:101D70000B1C324113439C464046C1003948634620
:101D800041180C684D683A1C201C291C00F08EF983
:101D90000090019100980199221C2B1C01F0A2FBDC
:101DA000021C0B1C101C191C03B00CBC904699465D
:101DB000F0BD332E0BDD0B1C8021021CC9008E42AE
:101DC000F0D1291C00F072F9021C0B1CEAE7264A2C
:101DD0000126D2187642D64091460B1C021C0642C0
:101DE000E0D076080642C7D08023B443DB054846DE
:101DF0000341271C1F43BFE74E0076080643021C21
:101E00000B1C002ECED00903090B014348420143AD
:101E100080200003090B0140680C40040B1C0343A5
:101E20004046C1000F4841180C684D68291C201C11
:101E300000F03CF900900191009801992B1C221CA4
:101E400001F050FB0D1C4146021CC80769004908FF
:101E5000031C0B43A6E780273F0685E701FCFFFF35
:101E6000FFFF0F00B0450008EDFBFFFF0000000082
:101E7000F8B53D4E171C331C0B40041C0D1C0A1CEE
:101E80001B1525D14B005B0818431ED0201C291CB4
:101E90002E4B2D4A01F096F8344B041C0D1C9F422A
:101EA00031DB0E4033150A1C363B3149DB198B42BE
:101EB00015DD221C2B1C2648264900F061F8244A17
:101EC000244B01F07FF8041C0D1C291C201CF8BDBC
:101ED00028498B421ED02649DB198B42E9DC002BB6
:101EE00005DD25491B050A401D1C1543EDE7191C9E
:101EF000353118DA214B9F42DBDC17481749221C89
:101F00002B1C00F03DF8144A144B01F05BF8041C44
:101F10000D1CDAE7201C291C221C2B1C00F0C6F823
:101F2000041C0D1CD1E7144936331B050A401D1C47
:101F30001543201C291C0A4A0A4B01F043F8041CD3
:101F40000D1CC2E7C046C046000000000000504320
:101F50009C7500883CE4377E59F3F8C21F6EA501DA
:101F6000000000000000903C0000F07FB03CFFFF4C
:101F7000FE070000FF070000FFFF0F8050C30000B6
:101F800030B5DA0FD2074B005B08111C194330BD86
:101F9000002934D00123002210B488422CD301241C
:101FA0002407A14204D2814202D209011B01F8E7B1
:101FB000E400A14204D2814202D249005B00F8E76A
:101FC000884201D3401A1A434C08A04202D3001B96
:101FD0005C0822438C08A04202D3001B9C082243C9
:101FE000CC08A04202D3001BDC082243002803D007
:101FF0001B0901D00909E3E7101C10BC7047002839
:1020000001D00020C04307B4024802A1401802904A
:1020100003BDC046190000000029F0D003B5FFF74A
:10202000B9FF0EBC4243891A1847C0467047C046E4
:102030008446101C62468C46191C634600E0C0466C
:102040001FB500F041FF002801D40021C8421FBD88
:1020500010B500F071FE4042013010BD10B500F027
:1020600033FF002801DB002010BD012010BDC04659
:1020700010B500F029FF002801DD002010BD01206F
:1020800010BDC04610B500F0A1FE002801DC002004
:1020900010BD012010BDC04610B500F097FE00280D
:1020A00001DA002010BD012010BDC046F8B55F4622
:1020B000564644464D46F0B40C034D00CE0F610A1F
:1020C000440F2143C400180380465800400D824647
:1020D000D80F84464046400A530F0343D0006D0D8D
:1020E000371C83465246664500D1A4E0AF1A002F44
:1020F00000DC09E1002A3BD1184300D0EAE0630785
:1021000000D187E00F232340042B00D182E0221D61
:10211000A242A4416442802309191B040B40371CCE
:10212000141C002B00D17CE0CE4B01359D4200D128
:1021300005E1CD4BE40819404807490204430B0B65
:10214000002000211B031A0B0B0D6D051B0513430B
:102150006A08C64DFF071D4015436D006D08291C18
:102160003943201C3CBC90469946A246AB46F8BD7C
:10217000BC488542C3D0802000040343382F00DDD3
:10218000F0E01F2F00DD24E12020C01B1A1C814637
:1021900082405846F8400243944658464A4690408A
:1021A000421E9041FB40624602431F1CA21A944209
:1021B000A4416442C91B091B141C0B029FD5490290
:1021C0004F0A002F00D1C8E0381C01F065FD021C49
:1021D000083A1F2A00DDB5E02821091A201C974083
:1021E000C84007439440954200DDB2E0551B691C8E
:1021F0001F2900DDDCE01F22551B3B1C221CAB40CD
:10220000CA40AC40651EAC411343CF401C43391C4F
:10221000002574E780231B040B40371C002B00D0E3
:1022200082E7904B4807E4080443C9089D4248D020
:1022300009030B0B84E7AA1A9446002A00DC98E0F5
:102240005046002852D08748854200D157E7802069
:10225000000403436246382A00DDFCE01F2A00DD4B
:102260004AE120226046101A1A1C8240824691469A
:1022700058466246D0404A46024390465846524627
:102280009040421E9041424602436046C3401219AC
:10229000A242A441644259180919141C080200D42E
:1022A0002DE7704B01359D4200D122E16E4B600855
:1022B0001940012323401C1C0443CB071C4349083D
:1022C0001DE7231C0B433AD080231B030B431B0346
:1022D0001B0B35E7013F002F65D15846221A944267
:1022E000A4416442C91A091B141C66E758461843E6
:1022F00000D104E70122524294446046002800D0F5
:10230000C5E058460219C3E7002F73D1681C400589
:10231000400D012800DCDEE05A46A21A9442BF417B
:10232000C81A7F42C71B380200D489E05A46141BE2
:10233000A3459241591A52428F1A664641E700233B
:102340000024FDE6271C283887400024954200DC45
:102350004CE74549AD1A3940D1E6201C01F09CFC00
:10236000203034E75A461A43531E9A41D2B200270E
:102370001CE7002A00D0DCE0681C4205520D012A4F
:1023800000DC8DE0374DA84200D1F3E05D462A190C
:10239000A242A441644259180919CC0752081443B7
:1023A0004908051CABE62F48854200D0E6E6A6E6C4
:1023B0002B1C1F3B3A1CDA40131C20296CD03F22F7
:1023C000551BAF403C43601E84411C430021002547
:1023D00095E6381C20381A1CC240101C202F5DD0F6
:1023E0004022D71BBB405A461A43531E9A41024310
:1023F0000027DBE6002D3BD01A4DAA4500D193E023
:1024000080252D047F422943382F00DDACE01F2FAB
:1024100000DD29E12025ED1B081C261CA840FE40FC
:10242000AC400643651EAC413443F9405D462C1B6D
:10243000A34592415B1A5242991A55466646BCE63C
:10244000131C3B43141C002B00D0BAE600270021CC
:1024500000250024E5E65A461A43531E9A41D2B29B
:10246000002314E7FF070000FFFF7FFFFFFF0F803F
:102470000D1C254358D0FF43002F51D1041BA34509
:102480009241591A5242891A5546664695E696482F
:10249000854200D0DEE632E6002793E70023A2E77C
:1024A000081C2043002D00D0C4E0002800D1F7E034
:1024B0005846184300D122E658460219A242A441C8
:1024C000644259180919141C0A0200D417E6874BF4
:1024D0000125194013E6081C2043002D39D100289E
:1024E00071D15946194303D0191C5C46664606E66D
:1024F00000270021002494E6604620381A1CC240C0
:1025000060469146202800D1ACE04022121A934048
:102510005A461A43531E9A414B461A430023B6E6C5
:10252000714DAA4500D06FE7191C5C4655466646BA
:10253000E5E5002D22D10D1C254377D0D543002D94
:1025400071D15C445C4592415918524289185546F4
:10255000A4E600284DD15946194300D194E0191C36
:102560005C466646604DCAE50C43611E8C41E4B290
:1025700000215BE7051C0021002452E65A4DAA45C4
:1025800054D05542802210040143382D00DD81E0F3
:102590001F2D00DD92E02022501B0A1C8446824041
:1025A000201CE8400243904662469440601E8441ED
:1025B00042461443E9405C445C459241CB18524288
:1025C000991855466AE65846184300D197E558468B
:1025D000271ABC429241C81A5242801A020266D59A
:1025E0005846041BA3459241591A5242891A66461D
:1025F00085E55846184333D04807E4080443802053
:10260000C9080003014208D0DD08054205D159463A
:10261000CA085C071443291C6646630FC9001943A6
:10262000E400314D6BE5304A9245AED1191C5C4651
:10263000554664E5002836D05846184310D080250A
:102640004807E408C9082D0304432942E5D0D80807
:102650002842E2D15D46EA085C071443011CDCE72E
:10266000214D4CE5002353E73D1C203D0A1CEA4068
:10267000151C202F34D04026F71BB9400C43611E97
:102680008C412C430021D1E680210027C903164D3F
:102690000024C6E50C43611E8C41E4B200218AE7A8
:1026A000191C5C462BE5191C5C460F4D27E5031CE5
:1026B0003B4300D11CE7011C3C1C20E5202040428C
:1026C00040190A1CC2409046202D0BD04020451BCB
:1026D000A9400C43611E8C4145462C4300216AE70A
:1026E0000021CBE70021F4E7FF070000FFFF7FFF99
:1026F000F0B5564644465F464D46F0B41F1C0B03EA
:102700001B0B98464B0087B0041C81465B0DC80F1D
:10271000161C9A460090002B51D06A4B9A4531D036
:102720008022414652030A43630FD2001A43664B8C
:1027300090460025E20091469A44002402953B030E
:102740001B0B9B46FD0F7B00311C5B0D019560D080
:102750005C4A934254D08021584649030143720F8A
:10276000C9001143584A8B469B18F1000020009A7B
:1027700004436A4003920F2C00D9ADE0534EA400ED
:102780003459A746404604436ED10021022508244F
:10279000884689460295D2E7009C0298C34649467E
:1027A0000194022864D0032800D1ABE2012800D0B4
:1027B00038E2019A002402400025A14660E0434629
:1027C00023434AD04046002800D1C0E101F064FA1A
:1027D000031E272B00DDB3E128210D1A211C083B25
:1027E0004246E9409A400D1C1543221C9A40A846D7
:1027F0009146374B00251B1A9A46002402959EE706
:102800005A4616430320002EB1D1B34600210220C0
:10281000ADE75A4632431BD05B46002B00D18AE11C
:10282000584601F039FA272800DD7DE12822171AE1
:10283000011C321C08395B46FA408B40171C1F43B1
:10284000331C8B40BB46191C214B1B1A00208EE702
:102850000027BB460021012089E700200125042430
:102860008046814602956AE703250C24029566E7B7
:10287000019C0394039D01222A400024114DA1468E
:10288000002000212403260B0C0D2405114B34439A
:102890002D0523402B435B005B08D207191C4846DB
:1028A000114307B03CBC90469946A246AB46F0BDEA
:1028B0000022802424039146024DE1E700240025F4
:1028C000A146DDE7FF07000001FCFFFFC04500084F
:1028D0000DFCFFFFFFFF0F805546ED1A0495D8450C
:1028E00000D953E100D14EE1049C0025013C4E4645
:1028F00004944746A946584603020C0E1C4309029D
:10290000250C23041B0C0091381C291C0193FFF794
:102910003FFB019983464143381C8A46291CFFF737
:102920007BFB330C090419438A450CD95B46091912
:10293000013B8C4200D947E18A4500D844E102229C
:102940005242934409195346CB1A181C291C984625
:10295000FFF71EFB071C0198291C7843824640465E
:10296000FFF75AFB36040B04360C33439A4509D95A
:102970001B197A1E9C4200D924E19A4500D821E116
:10298000023F1B195E4632041743380CBB46009EBB
:10299000009F51463F0C32045B1A5946BA46120C4E
:1029A0000F043F0C904651467A434F434146414302
:1029B00056467043CF19160CBE19B14202D9802772
:1029C0007F02C019310C12043604120C4018B618DC
:1029D000834200D2C4E000D1BEE0191A4846861BEB
:1029E000B145BF417F42CF1BA74200D113E1291C53
:1029F000381CFFF7CDFA019902904143381C8946F3
:102A0000291CFFF709FB330C0904194389450CD92C
:102A1000029B0919013B8C4200D9FFE0894500D88F
:102A2000FCE0029F0919023F02974F46CF1B381C5A
:102A3000291C0597FFF7ACFA071C0198291C78435D
:102A400081460598FFF7E8FA36040904360C0E4370
:102A5000B14509D936197B1EB44200D9E0E0B14531
:102A600000D8DDE0023F3619029D4946761A290456
:102A700039430B0457460A0C1B0C40464546584345
:102A800055437B437A43EB18070CDB199D4202D96F
:102A900080256D0252191D0C00041B04000C5219F4
:102AA0001B18964235D300D1FCE001231943049E44
:102AB000994FF519002D00DCA1E0480709D00F233C
:102AC0000B40042B05D00B1D8B42894149428B449E
:102AD000191C5A46D20107D5904B5C46049E8027AC
:102AE0001C40FF00A346F5198D4B9D427ADD039CE7
:102AF0000122224000248B4DA146C1E680242403FC
:102B0000474627424CD13C432403240B009A854D71
:102B1000B6E63619481EB4425ED9011C9642C4D1AD
:102B2000009E9E42C1D1C2E7031C283B311C994044
:102B30008B46002188E6301C01F0AEF8203072E6AA
:102B4000283B211C994000228846914651E6201CD2
:102B500001F0A2F820303BE60021B14500D33DE76B
:102B6000009F5A46B944B945BF417F423F19FB18FF
:102B7000013A9C421ED2984200D97EE000D1B5E0D5
:102B8000191A93462AE7894500D8ADE648464646D5
:102B900042467708D3074608C0071E438146AAE687
:102BA0005846204212D1044324032A1C240B894690
:102BB0005C4D65E6A342E3D1009F4F45DBD9211A66
:102BC00093460BE7171CDDE69B46BCE63C4324031B
:102BD000240B009A534D53E6B24259D800D18AE0F3
:102BE000011C62E75F46C9087B07039E0B437C021A
:102BF0006D0501229946240B6D0D324040E64A4B8B
:102C0000049FDB1B382B10DD039C01222240002493
:102C10000025A14634E60121494248E7029304E732
:102C20001F1C21E7019C039441E71F2B40DC3F4818
:102C3000049F0C1C3A1858469140DC4090402043B9
:102C40000A1C511E8A41011C11435A46DA40131CCA
:102C5000480709D00F220A40042A05D00A1D8A42DB
:102C6000894149425B18111C1A0234D5039C012288
:102C7000224000240125A14602E6009F022149428C
:102C8000B9448B44B945894149420919CB18A4E696
:102C9000009D881E6900A942AD416D422C1936196C
:102CA00000913AE7002B00D033E70024009437E787
:102CB0001F4A049C5D46121BD5402A1C202B1FD0A6
:102CC0001C4E5F46A3199F403B1C19434B1E994164
:102CD00011430023BCE75A07C9080A43039F9146E2
:102CE0005B0201221C0B3A400025C9E54E45C4D8C1
:102CF0009346002172E6009F9F42C9D3011C0FE753
:102D00000023E2E7802424035F463C432403240B92
:102D1000019A8946034DB3E5FF030000FFFFFFFE64
:102D2000FE070000FF07000002FCFFFF1E0400007A
:102D3000E2FBFFFF3E040000F0B55F4656464D46FD
:102D40004446F0B40D1C041C8046E80F814618036D
:102D50000F03000B3F0B83B084461B4800974900CC
:102D60005E00DF0F490D9246760DBB4681420CD0C6
:102D70001548864210D00120B14215D003B03CBCAA
:102D800090469946A246AB46F0BD009F01202743DE
:102D9000F4D10D488642EED1604602430120002A5C
:102DA000ECD10120B142E9D1009B6345E6D1D04589
:102DB000E4D1D94506D00029E0D11C43201C441E93
:102DC000A041DBE70020D9E7FF070000F0B55F4630
:102DD00056464D464446F0B4CD0FDE0FAC461D03BB
:102DE0002D0BB146374E0F034C00AB465D008046BD
:102DF0003F0B640D92466D0DB44232D0314EB54258
:102E000035D0002C0ED1384341424141081C002DE1
:102E10000BD0002919D1CC452DD06546684201233D
:102E2000184318E0002DF6D1281C59460A43534296
:102E30005341002806D1002BEDD0634658420123B0
:102E4000184308E00020002B05D14A46504250416B
:102E50004042012318433CBC90469946A246AB46EB
:102E6000F0BD3E1C0643C9D002204042F3E75E4657
:102E70001643C6D0F8E7AC4207DC0BDA614648429D
:102E80004841404201231843E5E76646704201236A
:102E90001843E0E75F450AD80ED000205F45DAD23C
:102EA000654668426841404201231843D3E76246C1
:102EB000504201231843CEE7D045F8D80020D04532
:102EC000EED3C8E7FF070000F0B556464D4644462E
:102ED0005F46F0B40D1C83B0041C0190E80F8146DE
:102EE00018030F03000B3F0B844635480097490039
:102EF0005E00DF0F490D9246760DB846814234D010
:102F00002F48864236D0002918D0002E1FD1341CFD
:102F100067463A4353425341002C1FD00020002BF8
:102F200005D142465042504140420123184303B06C
:102F30003CBC90469946A246AB46F0BD009804437F
:102F400060426041041C002EE2D00028E9D1C14556
:102F500015D04F46784201231843E8E7002BF6D0FE
:102F60004B46584201231843E1E7009F02202743C4
:102F7000DDD1C5E7674602201743D8D1C3E7B14288
:102F800004DD4A46504201231843D0E7B14207DB33
:102F900000986045E4D80AD0009F00206745C6D25B
:102FA0004F4678427841404201231843BFE7019AD7
:102FB0005245D5D8019A00205245F1D3B7E7C04613
:102FC000FF070000F0B5564644465F464D46F0B454
:102FD0001F1C0B031B0B9A464B0087B0041C80463A
:102FE0005B0DC80F161C02938146002B68D0694BFD
:102FF0000299994232D08022534652031A43D2009A
:10300000630F1A439246644AE00089188046029191
:10301000002400253B031B0B9B467800FB0F321C52
:10302000400D039300D175E05A4B984269D080223D
:10303000594652030A43730FD2001A43564B934624
:10304000C018F200002303994E4671401C430F2C18
:1030500000D9A9E0514EA4003459A74653461C4359
:1030600000D087E00025AA46A84608240225D1E71B
:103070004946022D6CD0032D00D117E2012D00D05E
:1030800058E10D40EDB20024A9460023A0460020DF
:10309000002125030A0D1C052D0B1205404B2A4368
:1030A000134023435B004C465B08E207191C404673
:1030B000114307B03CBC90469946A246AB46F0BDD2
:1030C0005346234350D05346002B00D184E1504651
:1030D00000F0E2FD031E272B00DD76E128210D1A0A
:1030E000211C083B5246E9409A400D1C1543221C06
:1030F0009A40AA4690462B4B00241B1A02930025A7
:1031000088E75B461E430323002E9CD1B346002272
:10311000022398E75B46334321D05846002800D16C
:103120004EE100F0B9FD272800DD42E128210F1A09
:10313000021C311C083A5B46F94093400F1C1F43A8
:10314000331C9340BB461A1C164B181A00237AE70F
:1031500001230B4000249946A0460E4B97E7002719
:10316000BB46002201236EE7002104248A468846DC
:1031700001254FE70C2403254CE700258024A946B0
:103180002403A846034B82E7DA46904603991D1CA8
:103190006FE7C046FF07000001FCFFFF0046000884
:1031A000FFFF0F800DFCFFFF029F160C38180490E4
:1031B0004046070C0004000C1204120C031C53437D
:1031C000041C3D1C7443554398463B1C73436419CF
:1031D000A44644460293230C63449D4204D9029DB5
:1031E000802464022D1902951D0C039545462C047C
:1031F0001B04240C1C1905945C46230C051C584325
:103200002404240C8446381C604365435F43814694
:10321000CC44280C6044BB46814502D980277F02FC
:10322000BB442D04070C2D0C000440195546BC4628
:103230002F04E3448446280C3D0C2F1C5743B8460A
:103240002F1C77434243B94647463F0C9144BA4648
:10325000D14446434A4502D980225202B6184F460D
:103260003A0CB6183A0447463F043F0CB8462F1CA8
:1032700067435D434443584365190190380C2D184A
:103280004244B846AC4204D9019880235B02C0187E
:103290000190039C029F201C6044C0196045A4411A
:1032A00047466442A4462B043C049946240C4C44F3
:1032B000A046D8448018C246E24490429241574604
:1032C00052429146F219E245BF417F424B46BC460D
:1032D000D845BF41D4187F4263461F432D0C7F1948
:1032E000B24292414C45AD4152426D421543019E5E
:1032F0007D19AB19E20D5B02059F134342023A436D
:103300009A46531E9A41C30D101C18436402204371
:1033100080465046C0010DD5454601225646049CC4
:103320006B082A401A43F30701341A4376080494C1
:103330009046B246049E634FF319002B61DD404670
:1033400040070BD00F2244462240042A06D04246B2
:103350000432424580414042824490465546ED0148
:1033600007D5594B5646049F80201E40C000B246E8
:103370003B18564A934200DDEAE644465546E208C9
:103380006807104301226C025B050A408046240B4B
:103390005B0D91467BE6DA4690461D1C69E680246B
:1033A0002403574627421CD13C432403240B484B9B
:1033B0006DE6031C283B311C99408B460022C3E676
:1033C000301C00F069FC2030ADE6283B211C994000
:1033D00000228A4690468EE6201C00F05DFC2030DC
:1033E00078E65846204207D1044303992403240B6E
:1033F00089469046364B4AE63C432403240B344B23
:1034000045E6344B049E9B1B382B06DD01230B4005
:1034100000249946A046002339E61F2B25DC049C96
:103420002D4D46466019524644468640DC40824057
:103430005746301C2243DF40441EA04102433B1C40
:10344000540709D00F201040042805D0101D9042C9
:10345000924152429B18021C1D021AD501230B40B7
:1034600000249946A046012311E61C48049C5546B9
:10347000001BC540281C202B16D0194E5746A219F8
:1034800097403A1C43461A43531E9A410243002375
:10349000D6E758075B02D2081C0B01230B401043F0
:1034A000994680460023F2E50022EBE780242403BE
:1034B00050460123044319402403240B8946044B3E
:1034C000E5E5C046FF030000FFFFFFFEFE0700002A
:1034D000FF07000002FCFFFF1E040000E2FBFFFFED
:1034E0003E040000F8B55F46564644464D46F0B4EB
:1034F0000C034D00CF0F610A440F2143C400180391
:10350000DE0F8046B44646465800760A530F3343D2
:10351000D600D14A6D0DBA46400DB346904200D157
:10352000F5E06246012672409446674500D1ABE063
:103530002F1A002F00DC11E100283ED15846184315
:1035400000D0F1E0600700D197E00F232340042B67
:1035500000D122E1221DA242A44164428023091924
:103560001B04012750460B400740141C002B00D1C0
:1035700079E0B94B01359D4200D10BE1B74BE4082E
:1035800019404807490204430B0B002000211B038C
:103590001A0B0B0D6D051B0513436A08B04DFF0791
:1035A0001D4015436D006D08291C3943201C3CBC8F
:1035B00090469946A246AB46F8BDA7488542C1D081
:1035C000802000040343382F00DDFDE01F2F00DDC5
:1035D00031E12020C01B1A1C5E468240FE4032436F
:1035E00094465A468240101C421E9041FB4062465F
:1035F00002431F1CA21A9442A4416442C91B091B26
:10360000141C0A029ED549024F0A002F00D1D6E0B1
:10361000381C00F041FB021C083A1F2A00DDC3E001
:103620002821231C091A9740CB401F439440954200
:1036300000DDC0E0551B691C1F2900DDEAE01F22E8
:10364000551B3B1C221CAB40CA40AC40651EAC4124
:103650001343CF401C43391C002573E780217E4D66
:103660000027C90300247C4B4807E4080443C90829
:103670009D4250D009030B0B87E780231B040127D1
:1036800052460B40174071E72A1A9446002A00DC84
:10369000A1E0002854D07048854200D152E7802034
:1036A000000403436046382800DD0EE11F2800DDDA
:1036B00057E162462020801A1E1C8640B1465E46B5
:1036C000D6404A4632435E4686409046301C421EF3
:1036D0009041424602436046C3401219A242A441AF
:1036E000644259180919141C080200D42AE75A4BDD
:1036F00001359D4200D131E1584B6008194001234A
:1037000023401C1C0443CB071C4349081AE71E43F3
:1037100000D00AE705E7231C0B433BD080231B03A3
:103720000B431B031B0B30E7013F002F6DD15E469F
:10373000A21B9442A4416442C91A091B141C60E7ED
:103740005846184300D1FDE601267642B44460464F
:10375000002800D0D0E05E463219BFE7002F00D02D
:1037600080E0681C4005400D012800DCE8E05A4676
:10377000A21A9442BF41C81A7F42C71B3E0200D41E
:1037800098E05846041BA3459241591A52428F1A99
:10379000E2463AE700230024F7E680231B040127D2
:1037A00056460B403740E1E6271C28388740002466
:1037B000954200DC3EE72949AD1A3940C2E6201C9B
:1037C00000F06AFA203026E75A461A43531E9A41FF
:1037D000D2B200270EE7002A00D0DEE0681C4605C2
:1037E000760D012E00DC90E01B4DA84200D1F5E0E3
:1037F0005E463219A242A441644259180919CC0705
:10380000520814434908051C9CE61348854200D021
:10381000D9E697E62B1C1F3B3E1CDE40331C2029BB
:103820006FD03F22551BAF403C43601E84411C4378
:103830000021002586E6381C20381E1CC640301C9E
:10384000202F60D04022D71BBB405A461A43531E3C
:103850009A4102430027CDE6FF070000FFFF7FFFEC
:10386000FFFF0F80002D37D0B64DA84200D18FE06A
:1038700080252D047F422943382F00DDA8E01F2F2B
:1038800000DD24E12025ED1B0E1CAE40B046261CB9
:10389000FE404246AC401643651EAC413443F940FD
:1038A0005A46141BA34592415B1A5242991A051CB1
:1038B000E246A6E6131C3B43141C002B00D0A4E6F2
:1038C0000027002100250024CDE65A461A43531E46
:1038D0009A41D2B2002300E70D1C254358D0FF4384
:1038E000002F51D15A46141BA3459241591A5242F6
:1038F000891A051CE24684E69248854200D0D1E64A
:1039000020E6002790E700239FE7081C2043002DB6
:1039100000D0C2E0002800D1EFE05846184300D1A3
:1039200010E658460219A242A441644259180919E6
:10393000141C0A0200D405E6834B0125194001E658
:10394000081C2043002D38D100286FD15946194357
:1039500003D0191C5C46E246F4E500270021002450
:1039600081E6604620381A1CC2406646101C202E94
:1039700000D1AAE04022921B93405A461A43531E9C
:103980009A4102430023A8E66E4DA84200D073E797
:10399000191C5C46051CE246D4E5002D22D10D1C05
:1039A000254376D0D543002D70D15C445C459241CF
:1039B000591852428918051C96E600284CD15946E0
:1039C000194300D14AE6191C5C46E2465D4DB9E553
:1039D0000C43611E8C41E4B2002161E7051C00210B
:1039E000002440E6574DA84253D055428022160489
:1039F0003143382D7BDC1F2D00DD8CE02022561B4F
:103A00000A1CB446B240261CEE4032439046624641
:103A10009440661EB44142461443E9405C445C4510
:103A20009241CB1852429918051C5DE6584618433E
:103A300000D187E55E46A71BBC429241C81A52429C
:103A4000801A060260D55846041BA3459241591AB4
:103A50005242891AE24675E55846184333D0480762
:103A6000E40804438020C9080003014208D0DD08AF
:103A7000054205D15946CA085C071443291CE24691
:103A8000630FC9001943E4002E4D5BE52D4A9042B7
:103A9000AFD1191C5C46051C54E5002830D05846AF
:103AA000184310D080254807E408C9082D030443B3
:103AB0002942E5D0D8082842E2D15D46EA085C07F1
:103AC0001443011CDCE71F4D3CE5002355E73D1C7A
:103AD000203D0E1CEE40351C202F2ED04026F71B1B
:103AE000B9400C43611E8C412C430021D8E60C43A5
:103AF000611E8C41E4B2002190E7191C5C4621E56F
:103B0000191C5C460F4D1DE5031C3B4300D124E707
:103B1000011C3C1C16E52026764276190A1CF24050
:103B20009046202D0BD04026751BA9400C43611EEA
:103B30008C4145462C43002170E70021D1E700214C
:103B4000F4E7C046FF070000FFFF7FFF70B50B1CC6
:103B5000124C09030E0B5900021C490DDD0F002009
:103B6000A14211DD0E4881420FDC80204003064354
:103B70000C48401A1F280BDD0B4A521AD640321C43
:103B80005042002D00D1101C70BD084BE818FBE717
:103B9000074BC240C9188E403243F1E7FE030000D4
:103BA0001D0400003304000013040000FFFFFF7F2A
:103BB000EDFBFFFFF8B5041E31D0C70F00D0444223
:103BC000201C00F069F8184D2D1A0A2819DD0B3851
:103BD000844024036D05240B6D0D3A1C0026002043
:103BE00000210B0D2403240B1B0523430F4C2D0533
:103BF0001C402C4364006408D307211C301C19436B
:103C0000F8BD061C1536231CB3401E1C0B23181AC6
:103C1000C44024036D05240B6D0D3A1CDFE7002220
:103C2000002500240026DAE71E040000FFFF0F80B5
:103C300010B5041E28D000F02FF8154A121A0A28D1
:103C400015DD0B38844024035205240B520D00234C
:103C5000002000212403181C0B0D240B1B052343FB
:103C60000C4C12051C4014436400610810BD031C79
:103C70001533211C99400B1C0B21081AC440240346
:103C80005205240B520DE3E7002200240023DFE756
:103C90001E040000FFFF0F801C2101231B0498421B
:103CA00001D3000C10391B0A984201D3000A0839CD
:103CB0001B09984201D30009043902A2105C401884
:103CC0007047C04604030202010101010000000028
:103CD00000000000014B18687047C04694000020A7
:103CE0000EB400B59CB01DAB04CB822202A9920099
:103CF0008A810A4A02908A604A6101225242CA813C
:103D0000074A086110681D9A019300F06BF8029A47
:103D1000002313701CB008BC03B01847FFFFFF7FDF
:103D200094000020F0B58D6885B0071C0C1C039230
:103D30000193AB4245D390228B89D20013423DD0F0
:103D400062690326564309692068F20F401A9619E2
:103D50000290021C0198013212187610964200D28D
:103D6000161C381C5A050FD5311C00F02BFB051E04
:103D700013D0029A216900F0BAFAA289184B1340B5
:103D800080221343A38111E0321C00F06FFB051E5B
:103D90000CD1381C216900F0CDFA0C233B60A389BB
:103DA000402213430120A381404217E0029B25617A
:103DB000ED1825606661019DF61AA6600198A8427B
:103DC00000D2019D2A1C2068039900F099FAA2688C
:103DD0000020531BA36023685D19256005B0F0BD6A
:103DE0007FFBFFFFF0B59FB0039005938B890E1CFE
:103DF000171C19060FD53269002A0CD1402100F09A
:103E0000E1FA30603061002803D103990C230B6084
:103E1000C9E04023736106AD00236B6120236B76FC
:103E20003023AB763C1C2378002B03D1E21B02929B
:103E300011D003E0252BF9D00134F4E70398311CAD
:103E40003A1C029BFFF76EFF013000D1A6E06969C2
:103E5000029A8B186B612378002B00D19EE001221F
:103E600052426A606A4600235B3201342B60EB6089
:103E7000AB601370AB654E4F2178381C052200F003
:103E80002BFA002807D0C71B2B680120B840184325
:103E900028600134EFE72B68D90603D56A46202154
:103EA0005B3211701A0703D56A462B215B32117001
:103EB00022782A2A01D0099B0EE0059A111D12686A
:103EC0000591002A01DB099204E05242EA600222D5
:103ED00013432B60013409E02278303A092A04D8D0
:103EE0000A214B4301349B18F6E7099323782E2BC4
:103EF00018D163782A2B09D1059B02341A1D1B683F
:103F00000592002B0DDA01235B420AE00134002305
:103F10002278303A092A04D80A214B4301349B18ED
:103F2000F6E70793234F2178381C032200F0D4F9D9
:103F3000002806D0C71B2B684020B84018432860D3
:103F4000013421781C480622671C297600F0C4F948
:103F5000002812D0194B002B06D1059B07220733EE
:103F600093430833059314E005AB00930398291C91
:103F7000321C134B00E000BF07E005AB0093039831
:103F8000291C321C0E4B00F091F804900499013169
:103F900004D06A69049953186B6143E7B3895A06E0
:103FA00001D40B9801E0012040421FB0F0BDC04693
:103FB00042460008484600084C4600080000000041
:103FC000253D0008F7B5151C01930A698B68061C8E
:103FD0000C1C934200DA131C221C2B604332127813
:103FE000002A01D001332B602068800602D52B689F
:103FF00002332B60216806270F401FD0231C433358
:104000001B785A1E9341226892061FD5E118403151
:104010003020C870211C5A1C45310978A218403242
:104020000233D17012E0221C301C01991932012395
:10403000089FB847013011D0009F01370097E06812
:104040002968009F431A9F42EDDBD7E7221C301CF2
:1040500001994332089FB847013002D10120404204
:1040600023E0206806212B68E2680140002504292E
:1040700003D1D51AEB43DB171D40A26823699A428E
:1040800001DDD31AED1800270097009FAF420BDA2D
:10409000221C301C01991A320123089FB8470130B5
:1040A000DCD0009F0137EFE70020FEBDF0B50D1C0E
:1040B0008BB0433506920590079304950B7E0C1C3C
:1040C000109A6E2B00D1A7E011D8632B22D009D80B
:1040D000002B00D1B0E0582B00D0C0E045310B7070
:1040E0007B4D4EE0642B1CD0692B1AD0B7E0732BAC
:1040F00000D1A5E009D86F2B29D0702B00D0AEE0FD
:104100000E68202333430B6036E0752B1FD0782BCD
:1041100032D0A4E013680D1C191D423511601B68D4
:104120009FE0216813680E0603D5191D11601E68F3
:1041300005E04806F9D5191D116000215E5E644B4B
:10414000002E3BDA049D2D2276422A7036E021684B
:1041500013680E0603D5191D11601E6804E0480699
:10416000F9D5191D1E881160594B227E039308272B
:104170006F2A1ED00A271CE0231C78214533554D99
:10418000197011682368081D039510601E0601D57B
:104190000E6802E05806FBD50E88D90702D520220A
:1041A000134323601027002E03D1226820239A4353
:1041B0002260231C002243331A7001E003930A2774
:1041C0006368A360002B03DB256804229543256008
:1041D000002E02D1049D002B0ED0049D301C391CF2
:1041E000FDF71AFF0398013D435C301C2B70391C0E
:1041F000FDF7CEFE061EF1D1082F09D12168C907AF
:1042000006D5626823699A4202DC013D30232B7097
:10421000049E731B23612AE0086813684969050638
:1042200004D5181D10601B68196005E04606F8D516
:10423000181D10601B68198000232361049D16E07F
:104240001368191D11601D68281C00F047F9636888
:104250002061984200D923612069606004E0251C38
:1042600042352B7001232361049E00233370079E87
:1042700005980096211C09AA069BFFF7A3FE0130B2
:1042800002D10120404221E02A1C059806992369A9
:10429000079DA8470130F4D02668B60705D4099BCE
:1042A000E068984212DA181C10E00025E0680999CD
:1042B000431A9D42F3DA221C05980699193201230C
:1042C000079EB0470130DCD00135EFE70BB0F0BD01
:1042D0005346000864460008C9B28218904204D0D0
:1042E00003788B4202D00130F8E70020704710B508
:1042F0000023934203D0CC5CC4540133F9E710BDD2
:1043000070B5814201D300230CE08C18A042FAD290
:104310008518131C013B0BD351426618F65C6918D3
:10432000CE54F7E7934203D0CC5CC4540133F9E791
:1043300070BD000030B5002940D004390B68002B57
:1043400000DAC9181E4A1368141C002B02D14B60F6
:10435000116033E099420FD208680A189A4205D1D9
:1043600013685268C01808604A6000E04B60216022
:1043700024E08A4203D8131C5A68002AF9D11D6828
:104380005C198C420BD10968691858181960904261
:1043900014D114685268091919605A600EE08C42F1
:1043A00002D90C23036009E008680C18944203D179
:1043B00014685268001908604A60596030BDC046F0
:1043C000AC00002070B50323CD1C9D430835061CAE
:1043D0000C2D01D20C2501E0002D3FDB8D423DD399
:1043E000204B1C681A1C211C002913D00868431B91
:1043F0000DD40B2B02D90B60CC181EE08C4202D1DD
:10440000636813601AE0486860600C1C16E00C1CBE
:104410004968E9E7144C2068002803D1301C00F0FB
:104420004BF82060301C291C00F046F8431C15D0C6
:10443000C41C03239C4384420AD12560201C0B30FA
:104440000722231D9043C31A0BD05A42E25008E0C2
:10445000211A301C00F030F80130EED10C2333600B
:10446000002070BDAC000020A8000020F8B5061C9C
:104470000C1C151C002904D1111CFFF7A3FF041C00
:1044800018E0002A03D1FFF755FF2C1C12E000F0C2
:104490002CF8A8420ED2301C291CFFF793FF071EF0
:1044A00007D0211C2A1CFFF722FF301C211CFFF71C
:1044B00041FF3C1C201CF8BD38B5074C0023051CEF
:1044C000081C2360FCF7B0F9431C03D12368002BC0
:1044D00000D02B6038BDC046E80000200023C25C3D
:1044E0000133002AFBD1581E704704390B68181F8E
:1044F000002B02DAC8581B18181F70474669726DE6
:104500007761726520546573740000002564204D46
:10451000487A2C20535730002E2E5C7379737465C3
:104520006D5C7372635C73746D333266302D7374BB
:10453000647065726970685C73746D33326630786C
:10454000785F6770696F2E63000000002E2E5C7329
:10455000797374656D5C7372635C73746D3332660A
:10456000302D7374647065726970685C73746D3338
:1045700032663078785F7263632E6300706F770005
:1045800000000000000000000000004003B8E23F0F
:10459000000000000000000006D0CF43EBFD4C3EC1
:1045A000000000000000F03F000000000000F83FA5
:1045B000000000000000304300000000000030C395
:1045C000D828000874280008BC280008A227000882
:1045D000BC280008B0280008BC280008A227000852
:1045E0007428000874280008B0280008A2270008D2
:1045F000982700089827000898270008FC2A000838
:10460000A831000896330008963300088831000866
:1046100072300008723000087A31000888310008D2
:10462000723000087A3100087230000888310008C2
:104630007030000870300008703000089E330008A9
:104640004300232D302B2000686C4C0065666745C5
:1046500046470030313233343536373839414243FA
:1046600044454600303132333435363738396162AB
:054670006364656600B3
:104678007856341200000000000000000102030414
:1046880006070809006CDC02A400002000000000F6
:1046980000000000010203040102030406070809E0
:1046A8000100000000000000000000000000000001
:1046B80000000000000000000000000000000000F2
:1046C8000000000040460008000000000000000054
:1046D80000000000000000000000000000000000D2
:1046E80000000000000000000000000000000000C2
:1046F80000000000000000000000000000000000B2
:0C470800000000003400002032547698BD
:0400000508000101ED
:00000001FF
