:020000040800F2
:1000000000200020C9000008D1000008D500000829
:1000100000000000000000000000000000000000E0
:10002000000000000000000000000000F1000008D7
:100030000000000000000000F5000008F9000008C2
:10004000C5000008C5000008C5000008C50000087C
:10005000C5000008D9090008C5000008C50000084F
:10006000C5000008C5000008C5000008C50000085C
:10007000C5000008C5000008C5000008C50000084C
:10008000C5000008C5000008000000005D0A000867
:10009000C5000008C5000008F1090008C5000008F7
:1000A000C5000008C5000008C5000008C50000081C
:1000B000C500000800000000C500000800000000A6
:1000C0005FF808F100BEFEE710B500F019F8C04671
:1000D00000BEFEE704207146084202D0EFF309801B
:1000E00001E0EFF308807146044A104700BEFEE7C6
:1000F00000BEFEE700BEFEE770470000ED0000080E
:1001000030B583B000F0B6FD314B324A1360324A4D
:100110001360324B324A03E0116819600433043231
:1001200030498B42F8D32B4B1A682F4B9A4204D19B
:10013000294B1A682D4B9A4200D0FEE7244B2C4ADB
:1001400013602C4A13602C4B02E000221A60043327
:100150002A4A9342F9D3264B1B68002B03D1254B27
:100160001B68002B00D0FEE700F088FD694601A85F
:1001700000F0B0FD224C234B1C1BA410002504E012
:10018000AA001F4BD35898470135AC42F8DC1E4CEF
:100190001E4B1C1BA410002504E0AA001A4BD358C8
:1001A00098470135AC42F8DC0099019800F088FBD3
:1001B0000500174C174B1C1BA41004E0013CA200C7
:1001C000134BD3589847002CF8DC280000F05AFD58
:1001D000BABADECA000000209C0000200000002007
:1001E000D05D0008A0000020785634123254769872
:1001F000A0000020E8000020A0000020EC0000206B
:1002000040020008400200084002000840020008C6
:08021000400200084002000852
:10021800D05D000800000020A0000020D05D00088C
:100228000000000000000000A0000020EC000020FA
:080238000000000000000000BE
:1002400082B0430018180023019304E0C046C04662
:10025000019B01330193019B9842F7D802B070478C
:1002600070B51420FFF7ECFF0A4CA36980252D021E
:100270002B43A3611420FFF7E3FFA369802212063A
:100280001343A3611420FFF7DBFFA3692B43A36192
:1002900070BDC0460008004810B50400454A936987
:1002A0008021C9010B43936143B2002B07DA9022EE
:1002B000D2059369802109020B43936106E09022E5
:1002C000D2059369802109060B439361630607D524
:1002D0009022D2059369802149010B43936106E086
:1002E0009022D2059369802149050B439361A306AF
:1002F00006D5314A9369802189000B43936105E05B
:100300002D4A9369802189040B439361E30606D546
:10031000294A9369802149000B43936105E0264AED
:100320009369802149040B439361FFF799FF2307E9
:1003300007D59022D2059369802109020B4393616E
:1003400006E09022D2059369802109060B43936150
:10035000630707D59022D2059369802149010B4399
:10036000936106E09022D2059369802149050B43F1
:100370009361A30706D5104A9369802189000B4336
:10038000936105E00C4A9369802189040B439361D2
:10039000E30706D5084A9369802149000B4393611E
:1003A00005E0054A9369802149040B439361FFF7F7
:1003B00057FF10BD000800480004004870B5050054
:1003C000002404E0C0B2FFF767FF0134E4B228570D
:1003D0000028F7D170BDC04610B50400474A9369A4
:1003E0008021C9050B43936143B2002B07DA9022A9
:1003F000D2059369802109020B43936106E09022A4
:10040000D2059369802109060B439361630607D5E2
:100410009022D2059369802149010B43936106E044
:100420009022D2059369802149050B439361A3066D
:1004300006D5334A9369802189000B43936105E017
:100440002F4A9369802189040B439361E30606D503
:100450002B4A9369802149000B43936105E0284AA8
:100460009369802149040B439361FFF7F9FE230749
:1004700007D59022D2059369802109020B4393612D
:1004800006E09022D2059369802109060B4393610F
:10049000630707D59022D2059369802149010B4358
:1004A000936106E09022D2059369802149050B43B0
:1004B0009361A30706D5124A9369802189000B43F3
:1004C000936105E00E4A9369802189040B4393618F
:1004D000E30706D50A4A9369802149000B439361DB
:1004E00005E0074A9369802149040B439361FFF7B4
:1004F000B7FE0448FFF7A4FE10BDC0460008004840
:1005000000040048B80B000010B51B4B5A6980214D
:1005100089020A435A615A698021C9020A435A6111
:100520005A69802109030A435A619022D20513684F
:100530008221C9050B431360104A1368A021C90228
:100540000B4313600E4A1368A021C9050B431360C7
:100550000C48FFF775FE3320FFF73EFF3220FFF710
:100560003BFF0C20FFF738FF2820FFF735FF012065
:10057000FFF732FF10BDC0460010024000040048E3
:100580000008004830750000F0B5474680B48CB0D4
:100590000121C020C00200F079FF0AA900240C71DB
:1005A0008C7103270A970126CE714E719025ED05B7
:1005B000280000F037FD02A9022398460B718C71C8
:1005C00080230293CC714F71280000F02BFD012293
:1005D0000721280000F006FE04A90F718C7120236A
:1005E0000493CE714F71280000F01CFD06A943460C
:1005F0000B718C71C023DB000693CC714F71280006
:1006000000F010FD01220921280000F0EBFD01227D
:100610000A21280000F0E6FD08A90E718C71FF2365
:100620000893CC714E71124D280000F0FBFC0021A4
:10063000280000F0ADFD6B4642461A719C71C02344
:100640001B0100936B46DC715E716946280000F067
:10065000E9FC02220A21280000F0C4FD02220B213D
:10066000280000F0BFFD0CB004BC9046F0BDC046B1
:100670000004004810B584B00121012000F02EFFD5
:100680000121002000F07AFF02A802230293012436
:100690008471002303710833437100F049FC01A801
:1006A000052303704470847000F0E6FD04B010BDB3
:1006B00010B586B001218020800000F00FFF0123DB
:1006C0006A46137100230493039302930822009255
:1006D00005930C4C6946200000F008FB0022202105
:1006E000200000F08FFB0121200000F06BFB0121B6
:1006F000044800F0D5FB0028F9D0024800F0AAFB1E
:1007000006B010BD0024014010B586B00121802044
:10071000C00100F0E3FEE1235B0200930023059398
:100720000C22049203938022920102920193054CC1
:100730006946200001F06CFA0121200001F03CFB29
:1007400006B010BD0038014010B588B0012101206D
:1007500000F0ECFE05A900230B814B80104B4B6091
:1007600002230B8000238B728024E405200000F01C
:1007700029FF14220021684604F076FD60236A46B2
:100780001380FA239B0102930123538069462000C2
:1007900001F0B0F80121200000F09AFF08B010BD70
:1007A00065BD000010B58AB00121022000F0BEFE38
:1007B00007A900230B814B80FA231B024B600E23F9
:1007C0000B8000238B720E4C200000F0FBFE1422E5
:1007D000002102A804F048FD602302AA1380094BFF
:1007E0001B6801930493012353801100200000F043
:1007F000BBFF0121200000F06BFF0AB010BDC04616
:10080000000400400400002030B585B001218020A4
:10081000400000F08BFE01A9002300250B814B80D6
:100820000E4B4B6007230B808D720D4C200000F0A7
:10083000C9FE01220121200001F04CF913236A4670
:100840001370557001239370684600F015FD012167
:10085000200000F03DFF05B030BDC04660EA00005A
:100860000020004030B585B001218020C00200F09A
:1008700035FE01A9002300250B814B800E4B4B60F8
:1008800007230B808D720D4C200000F09BFE01228F
:100890000121200001F01EF916236A4613705570DD
:1008A00001239370684600F0E7FC0121200000F06E
:1008B0000FFF05B030BDC04660EA000000480140AF
:1008C00030B58BB0FFF720FEFFF75EFE01A800F009
:1008D0000DFD019D0022344B0020344901F040FB06
:1008E00004F012FC041C280002F050FE211C02F04F
:1008F00011FD02F029FE02002D4B18602D4C2E49EF
:10090000200004F0B9FC2000FFF758FDC020FFF7DD
:1009100063FD2A48FFF752FD9020C00500F00EFC51
:10092000C307F9D40120FFF757FDFFF7C1FEFFF71A
:10093000A1FEFFF7E9FEFFF707FFFFF733FFFFF721
:1009400063FFFFF78FFF0FE001311D4B19601D485A
:1009500001F084F8002205E0013300E00023FF2BC2
:10096000FADD0132FF2AF9DD154B1968164B994261
:10097000EADD0220FFF730FD144B1A680D4C1449D4
:10098000200004F079FC2000FFF718FDC020FFF7DD
:1009900023FD8023DB05DA6B0E49200004F06CFC9C
:1009A0002000FFF70BFDDFE70000184000002440A7
:1009B000B8000020BC000020B05A0008B85A000857
:1009C0000400002000040040D80E0000E0000020D9
:1009D000D05A0008DC5A000810B5E121C901802076
:1009E000C00501F05BF8022000F008FB10BDC04616
:1009F00010B5094A136801331360084800F03EFA45
:100A0000074B18608023DB05DA6B064B1A60012167
:100A1000054801F0B5F810BDA400002000240140F5
:100A2000E0000020CC0000200048014070B5040028
:100A30000DE08021084801F01FFA0028F9D0651C5C
:100A40000021615689B2044801F0E8F92C00002326
:100A5000E356002BEDD170BD0038014070B5154D47
:100A6000154CF0222900200004F006FC2000FFF7BE
:100A7000DDFF124B1A682900200004F0FDFB200066
:100A8000FFF7D4FF0E4B1A682900200004F0F4FB96
:100A90002000FFF7CBFF0B4B1A682900200004F061
:100AA000EBFB2000FFF7C2FF0121074801F068F8C7
:100AB00070BDC046E85A0008D0000020A400002005
:100AC000CC000020E00000200020004082B0002385
:100AD00001930093264A1368802149020B43136057
:100AE000234B1A6880239B0213400093019B013320
:100AF0000193009B002B04D1019AA023DB019A42B1
:100B0000EED11B4B1B689B0302D50123009301E030
:100B100000230093009B012B28D11122154B1A6052
:100B2000134B5A685A605A685A605968124A0A4008
:100B30005A605A68882149030A435A601A6880211A
:100B400049040A431A600A4B1B689B01FBD5084BFA
:100B50005A6803218A435A60596802220A435A603C
:100B6000034B5B680C221340082BF9D102B070478D
:100B70000010024000200240FF7FC0FF10B5124B62
:100B80001A6801210A431A605868104A02405A60E4
:100B900018680F4A02401A6018680E4A02401A602C
:100BA00058680D4A02405A60DA6A0F208243DA62BE
:100BB000186B0A4A02401A635A6B8A435A6300222E
:100BC0009A60FFF783FF10BD001002400CB8FF08C9
:100BD000FFFFF6FEFFFFFBFFFFFFC0FFACFEFFFFC6
:100BE00010B51F4B5B680C221340042B07D0082B59
:100BF00009D0002B23D11B4A1B4B1A6022E0194A53
:100C0000194B1A601EE0164B5C685A68A40C0F2042
:100C100004400234C0235B021A4204D11348444307
:100C2000114B1C600EE00E4BDB6A0F2119400131A5
:100C30000C4802F0A5FA44430B4B1C6002E0094A41
:100C4000094B1A60064B5B681B090F221340084AC8
:100C5000D35CDBB2044A1168D940116010BDC046B4
:100C60000010024000127A001800002000093D0028
:100C70000800002010B5FFF781FF10BD10B5FFF789
:100C8000AFFF10BDFEE7C04610B50120FFF7FAFF29
:100C900010B503000C4A1268002A02D10B490A4A17
:100CA0001160094A1068033303229343C318084AAA
:100CB000934206D904F0D2FA0C230360012040428B
:100CC00001E0014A136010BDA8000020EC000020E4
:100CD000001C002001230360014B0B607047C046DD
:100CE0001C00002010B5FFF7CFFFC04670B505000F
:100CF0000C00314B984203D0A1213048FFF7F2FF9E
:100D00002368002B09D0082B07D0102B05D0182BF7
:100D100003D0A2212948FFF7E5FF2379012B03D94E
:100D2000A3212648FFF7DEFFA368002B0FD0802207
:100D3000D20093420BD080221201934207D0C022EE
:100D40001201934203D0A4211C48FFF7CBFFE368B4
:100D5000002B0DD0402B0BD0802B09D0C02B07D0FF
:100D600080225200934203D0A5211448FFF7BAFF16
:100D70002369002B05D0202B03D0A6210F48FFF7B5
:100D8000B1FF6369002B05D0042B03D0A7210B48CA
:100D9000FFF7A8FFE9680A4B19402279520323683C
:100DA0001A43A3681343E268134322691343626939
:100DB00013430B43EB6070BD00240140EC5A000864
:100DC00003D2FFFF70B504000D000C4B984203D016
:100DD000E9210B48FFF786FF012D03D9EA210848D6
:100DE000FFF780FF002D04D0A26801231343A36006
:100DF00003E0A26802231343A36070BD00240140F6
:100E0000EC5A000870B504000D0016000D4B984216
:100E100003D00D490D48FFF765FF002D01D0EB0C05
:100E200004D0B42189000948FFF75CFF072E03D9DD
:100E300007490648FFF756FFA16A2943A162666188
:100E400070BDC04600240140CF020000EC5A0008EB
:100E5000D102000010B5041E054B9C4203D0054989
:100E60000548FFF73FFFA26804231343A36010BDAA
:100E7000002401406F030000EC5A000810B5041E66
:100E8000054B9C4204D0DF2189000448FFF72AFF6C
:100E9000206C80B210BDC04600240140EC5A00080E
:100EA00070B505000C001A4B984203D019491A4836
:100EB000FFF718FF631E012B1CD9042C1AD0082C35
:100EC00018D0802C16D0102C14D0144B9C4211D06A
:100ED000134B9C420ED0134B9C420BD0124B9C42A6
:100EE00008D081231B069C4204D08B21C9000A48EC
:100EF000FFF7F8FEE30103D5AA680C4B134000E0AE
:100F00002B681C4201D0012000E0002070BDC046CB
:100F10000024014057040000EC5A000801000001C1
:100F2000020000010400000110000001FFFFFFFEAD
:100F300010B504000379002B05D0042B03D08521C4
:100F40002C48FFF7CFFE6379082B07D00C2B05D078
:100F5000102B03D086212748FFF7C4FE2368E22226
:100F6000D205134201D1002B03D187212148FFF77D
:100F7000B9FEA379012B03D988211E48FFF7B2FEE1
:100F8000A379002B2CD01C4B1A6821688A431A6065
:100F90005A6821688A435A6022799C4662441168E3
:100FA0002068014311609A6821688A439A60DA6870
:100FB00021688A43DA606379102B09D163469A6805
:100FC00021680A439A60D96822680A43DA600FE010
:100FD000094A94466344196822680A431A6007E084
:100FE0002379054A944663441A6821688A431A6043
:100FF00010BDC0461C5B00080004014010B5040091
:10100000E223DB05184201D1002804D12621FF315B
:101010000248FFF767FE024B5C6110BD1C5B0008D5
:101020000004014070B505000E009023DB059842D6
:1010300012D03C4B98420FD03B4B98420CD03B4BCC
:10104000984209D03A4B984206D03A4B984203D086
:10105000B4213948FFF746FE3368002B03D1B52190
:101060003548FFF73FFE3379032B03D9B6213248C9
:10107000FFF738FEF379022B03D9B7212E48FFF78B
:1010800031FE00244AE00123A34032681A40934213
:1010900043D13379013BDBB2012B27D87379012B84
:1010A00005D9032B03D0C7212348FFF71BFEAB68EC
:1010B000610003228A409343AB60AA6873798B4036
:1010C0001343AB60B379012B03D9CE211A48FFF744
:1010D00009FEAB882204120C012191408B43AB80A6
:1010E000A988B37993400B439BB2AB802B68610016
:1010F00003221000884083432B60286833798B409B
:1011000003432B60EB682004C00B82409343EB60E9
:10111000EA68F3798B401343EB6001340F2CB2D9AA
:1011200070BDC0460004004800080048000C00489C
:101130000010004800140048505B000810B504007F
:101140009023DB05984213D00B4B984210D00B4BE9
:1011500098420DD00A4B98420AD00A4B984207D0C9
:10116000094B984204D0A72149000848FFF7BAFD6F
:10117000208A80B210BDC046000400480008004824
:10118000000C00480010004800140048505B0008A4
:1011900070B504000D009023DB05984213D00B4B73
:1011A000984210D00A4B98420DD00A4B98420AD070
:1011B000094B984207D0094B984204D0D821FF31FF
:1011C0000748FFF78FFDA58270BDC04600040048A8
:1011D00000080048000C00480010004800140048B7
:1011E000505B000870B505000C0016009023DB056D
:1011F000984212D0174B98420FD0174B98420CD000
:10120000164B984209D0164B984206D0154B98427F
:1012100003D015491548FFF765FD0F2C03D9144974
:101220001248FFF75FFD072E03D912490F48FFF759
:1012300059FD072323409B009E40E408210008310C
:1012400089004A590F20984082434A514B591E4306
:101250004E5170BD0004004800080048000C0048D2
:1012600000100048001400480D020000505B000808
:101270000E0200000F02000070B504008378012BFD
:1012800003D952211748FFF72DFD6378032B03D9AB
:1012900053211448FFF726FDA378002B19D021789D
:1012A0008808114DC0308000465903231940C900F9
:1012B000FC331A008A4096436278920113408B40B7
:1012C0003343435123781F221A40012393402B605C
:1012D00007E023781F221A4001239340802202490D
:1012E0008B5070BD845B000800E100E0F8B504009D
:1012F0005F4B5B680C221340042B0CD002D8002BF0
:1013000005D029E0082B0AD00C2B21D024E0594B22
:101310000360002023E0574B036000201FE0544B84
:1013200058685A68800C0F252840851CC0235B0232
:101330001A4202D15048684308E04D4BDB6A0F2146
:10134000194001314B4801F01BFF6843206006E063
:101350004A4B0360002002E0464B236000204449D2
:101360004B681B090F221340454DEB5CDBB226682E
:101370003200DA40130062604A68120A07273A40D6
:10138000AA5CD2B2D340A3600A6BD20502D43D4A14
:10139000E26008E0364A5268520402D45A08E26019
:1013A00001E09A08E260324A126B520602D4364AD1
:1013B000226102E08022120222612D4A126BD206C3
:1013C00002D42C4A626100E06661294A126B9207DE
:1013D00001D1A36119E0264A126B03210A40012AB8
:1013E00001D1A66111E0224A126B03210A40022AB0
:1013F00003D180221202A26107E01D4A126B032171
:101400000A40032A01D11B4AA261194A116BC0226A
:101410009202114201D1E36120E0154B1A6BC02307
:101420009B02134080225202934201D1E66115E0F3
:101430000F4B1A6BC0239B021340802292029342EF
:1014400003D180231B02E36108E0094B1B6BC02220
:1014500092021340934201D1064BE361044B1B6B94
:101460001B0602D4054B236200E02062F8BDC04693
:101470000010024000127A0000093D00006CDC02FE
:1014800024000020809FD5001280000070B5040069
:101490000D000D4B184201D1002803D10B490C4817
:1014A000FFF720FC012D03D90A490948FFF71AFC70
:1014B000002D04D0084A53691C43546103E0064AD6
:1014C0005369A343536170BDAAFF81FE3605000036
:1014D000B85B0008370500000010024070B504003A
:1014E0000D000D4B184201D1002803D10B490C48C7
:1014F000FFF7F8FB012D03D90A490948FFF7F2FB72
:10150000002D04D0084A93691C43946103E0064A05
:101510009369A343936170BDFEA5B8FF5A0500000F
:10152000B85B00085B0500000010024070B50400C5
:101530000D000E4B184201D1002803D10C490D4873
:10154000FFF7D0FB012D04D9B121C9000948FFF7ED
:10155000C9FB002D04D0084AD3691C43D46103E0C1
:10156000054AD369A343D36170BDC046CCB611858B
:1015700087050000B85B00080010024070B5050048
:101580000C00052803D9EA210C48FFF7ABFB0F2C10
:1015900003D9EB210948FFF7A5FB032323409B0058
:1015A0000F269E40A108064A023189008858B043A0
:1015B000885088589D4005438D5070BDE85B0008F9
:1015C0000000014070B504000D00374B98421DD05B
:1015D0008023DB05984219D0344B984216D0344B07
:1015E000984213D0334B984210D0334B98420DD0D1
:1015F000324B98420AD0324B984207D0314B984236
:1016000004D0862149003048FFF76CFB6B88002B23
:101610000CD0102B0AD0202B08D0402B06D0602BEA
:1016200004D00E21FF312848FFF75CFB2B89002BEB
:101630000CD080225200934208D00132FF329342F4
:1016400004D0872149002048FFF74CFB23889BB238
:10165000154A944206D08022D205944202D0134A01
:10166000944203D1702293436A881343104A9442F0
:1016700004D0164A13402A8913439BB223806B6817
:10168000E3622B882385084B9C4208D00B4B9C427D
:1016900005D00B4B9C4202D00A4B9C4201D1AB7A45
:1016A00023860123A38270BD002C0140000400406A
:1016B00000100040001400400020004000400140A5
:1016C00000440140004801401C5C0008FFFCFFFF93
:1016D00070B504000D001A4B98421DD08023DB0525
:1016E000984219D0174B984216D0174B984213D0F6
:1016F000164B984210D0164B98420DD0154B98427D
:101700000AD0154B984207D0144B984204D0972129
:1017100089001348FFF7E6FA012D03D91149104853
:10172000FFF7E0FA002D05D02288012313439BB276
:10173000238003E0238801229343238070BDC046A9
:10174000002C014000040040001000400014004044
:10175000002000400040014000440140004801409A
:101760001C5C00085D020000F0B5474680B4040030
:101770000D00544B98420DD08023DB05984209D0D0
:10178000514B984206D0514B984203D05049514892
:10179000FFF7A8FA2B88002B0ED0102B0CD0202B93
:1017A0000AD0302B08D0602B06D0702B04D0D82163
:1017B00089004848FFF796FA6B88012B03D9464900
:1017C0004448FFF78FFAAB89002B05D0022B03D0DA
:1017D00042494048FFF786FA238C10229343238422
:1017E000268CA3889BB29846278B3D4B1F402A88A6
:1017F000120292B2174320239E43AA89120192B289
:10180000330013436E883601B6B21E432D4B9C4203
:1018100002D02E4B9C424BD12B8A80225200934205
:1018200006D0002B04D0E02189002A48FFF75AFA9D
:101830002C4B42461A402B8A9B009BB21A4390467F
:10184000204B9C4234D1AB88002B05D0042B03D015
:1018500025492048FFF746FAEB89002B06D0082BD4
:1018600004D0E32189001B48FFF73CFA6B8A8022F1
:101870009200934205D0002B03D01C491548FFF776
:1018800031FA80239E43EA89120193B21E4340231A
:101890009E433300AE883601B6B21E43144B424617
:1018A0001A4013006A8A920092B213439BB2984680
:1018B0004346A3802783AB68A363268404BC904679
:1018C000F0BDC046002C0140000400400040014033
:1018D0005F0300001C5C000861030000620300005D
:1018E000FF8CFFFFFFFBFFFF8B0300008D03000059
:1018F000FFF7FFFFF0B5474680B404000E00494BE8
:1019000098420BD08023DB05984207D0464B984283
:1019100004D0EF2189004548FFF7E4F93388002B14
:101920000DD0102B0BD0202B09D0302B07D0602BE3
:1019300005D0702B03D03E493C48FFF7D3F973889C
:10194000012B03D93B493948FFF7CCF9B389002B68
:1019500005D0022B03D038493448FFF7C3F9228C55
:10196000364B13402384258CA788BFB2A28B7323E8
:101970009A4333881A439046314B1D40B289120274
:1019800092B22B00134375882D02ADB21D43254B37
:101990009C423ED1B388002B05D0042B03D02949AB
:1019A0002248FFF79FF9F389002B06D0082B04D0BB
:1019B000F72189001D48FFF795F9738A802292006C
:1019C000934205D0002B03D01F491848FFF78AF92E
:1019D000338A80225200934205D0002B03D01B494A
:1019E0001248FFF77FF91A4B1D40F3891B029BB287
:1019F0001D43184B1D40B3881B029BB21D43164B61
:101A00001F40338A1B019BB21F43738A1B019BB289
:101A10001F43A7804346A383B368E363258404BCC4
:101A20009046F0BD002C0140000400401C5C000802
:101A3000BD030000BE030000BF030000FFFEFFFF68
:101A4000FFFDFFFFDB030000DD030000DE030000FD
:101A5000FFF7FFFFFFFBFFFFFFCFFFFF70B50400A5
:101A60000D00094B98420DD08023DB05984209D028
:101A7000064B984206D0064B984203D005490648CB
:101A8000FFF730F9A56370BD002C01400004004051
:101A900000400140B70400001C5C000870B5040061
:101AA0000D00084B98420AD08023DB05984206D0EF
:101AB000054B984203D005490548FFF713F9E56344
:101AC00070BDC046002C014000040040C604000068
:101AD0001C5C000870B504000D0016001D4B9842F8
:101AE0001DD08023DB05984219D01B4B984216D09D
:101AF0001A4B984213D01A4B984210D0194B984267
:101B00000DD0194B98420AD0184B984207D0184B69
:101B1000984204D0952109011648FFF7E3F8FF2306
:101B20002A009A4301D1002D03D113491148FFF730
:101B3000D9F8012E03D911490E48FFF7D3F8002E2A
:101B400003D0A3891D43A58102E0A389AB43A381F0
:101B500070BDC046002C0140000400400010004051
:101B600000140040002000400040014000440140BB
:101B7000004801401C5C00085109000052090000A7
:101B800070B505000C00174B98421CD08023DB0574
:101B9000984218D0144B984215D0144B984212D04A
:101BA000134B98420FD0134B98420CD0124B9842D3
:101BB00009D0124B984206D0114B984203D01149DC
:101BC0001148FFF78FF8FF2322009A4301D1002C20
:101BD00003D10E490C48FFF785F8E443A4B22C82E8
:101BE00070BDC046002C01400004004000100040C1
:101BF000001400400020004000400140004401402B
:101C000000480140240A00001C5C0008250A00006E
:101C1000F0B58DB004000D005C4B98420CD05C4BCD
:101C2000984209D05B4B984206D05B4B984203D058
:101C3000DC215A48FFF756F82B68013B584A93427B
:101C400003D9DD215548FFF74DF86B68002B0AD00A
:101C500080225201934206D0524A934203D0DE21A1
:101C60004E48FFF73FF8AB68002B0BD08022920163
:101C7000934207D0C0229201934203D0DF2147480C
:101C8000FFF730F8EB68002B0BD08022D200934294
:101C900007D0C022D200934203D0E0213F48FFF793
:101CA00021F82B690C221900914301D1002B03D19B
:101CB000E1213A48FFF716F86B69002B0FD080221C
:101CC000520093420BD00132FF32934207D00132CF
:101CD000FF32934203D0E2213048FFF703F8236834
:101CE00001229343236062682F4B1340AA68134379
:101CF000636021682D4B19406B68EA6813432A69B9
:101D00001A430B0013432360A268294B13406A69EE
:101D10001343A36003A8FFF7E9FA1C4B9C4201D1CF
:101D2000099E05E01A4B9C4201D10A9E00E0059EE7
:101D300023681B040CD576002B6801931900300032
:101D400001F01EFA07000199300001F09FFA0AE045
:101D50002B6801931900300001F012FA0700019975
:101D6000300001F093FA2B685B08994200D30137E9
:101D700023681B0406D57B0807221A400D4B3B4005
:101D80001A431700BBB2A3810DB0F0BD003801406B
:101D90000044004000480040004C00404C5C0008FB
:101DA0007F8D5B0000100010FFCFFFFFF3E9FFFF06
:101DB000FFFCFFFFF0FF000070B504000D00124BA8
:101DC00098420DD0114B98420AD0114B984207D03F
:101DD000104B984204D0C82149000F48FEF782FFFB
:101DE000012D04D99221FF310B48FEF77BFF002D16
:101DF00004D0226801231343236003E023680122F7
:101E00009343236070BDC046003801400044004049
:101E100000480040004C00404C5C000870B50500D4
:101E20000C000D4B98420CD00C4B984209D00C4B37
:101E3000984206D00B4B984203D00B490B48FEF753
:101E400051FF0B4B9C4203D90A490848FEF74AFF51
:101E5000E405E40D2C8570BD0038014000440040CD
:101E600000480040004C0040950300004C5C000816
:101E7000FF0100009603000070B505000C00314B17
:101E800098420CD0304B984209D0304B984206D043
:101E90002F4B984203D02F492F48FEF723FF012CE8
:101EA00049D0802C47D0402C45D0202C43D0102C3A
:101EB00041D080235B009C423DD00133FF339C42E4
:101EC00039D0082C37D0042C35D0022C33D08023C5
:101ED000DB009C422FD080231B019C422BD080230F
:101EE0005B019C4227D08023DB019C4223D08023CE
:101EF0001B029C421FD080235B029C421BD080238C
:101F00009B029C4217D08023DB029C4213D080238B
:101F10001B039C420FD080235B039C420BD0802389
:101F20009B039C4207D08023DB039C4203D00B49D8
:101F30000948FEF7D7FEEB69234201D0012000E0FB
:101F4000002070BD003801400044004000480040BF
:101F5000004C0040930700004C5C00089407000010
:101F6000F0B55F464D4656464446F0B491B01F006A
:101F700004000D00160000F0AFF9CF4B0290039162
:101F80009B461B785BB2994601334FD032003B0031
:101F90003000390003F056F80090002846D12200A6
:101FA0002B002000290003F04DF800228246002873
:101FB00034D100232000290001F07EF900283AD016
:101FC000002200233000390001F076F90590002846
:101FD00000D174E006AB9846012342460693B74B06
:101FE0005360434652469C60DD601A621E615F6129
:101FF0004246002300249361D4614B46002B00D15C
:1020000094E00023AE4C009301940098019911B024
:102010003CBC90469946A246AB46F0BD002330003A
:10202000390001F049F9002800D0EBE0029B039C45
:1020300000930194E9E70298039900F07DFF81463F
:10204000002800D186E0029803990022002301F0C5
:1020500033F90028EAD02000290000F06DFF029A31
:10206000039B009201930028CFD03000390000F08C
:1020700063FF029A039B009201930028C5D006AB30
:1020800098460423424606938C4B9460D560536077
:1020900000230024136200239361D4615B461B7804
:1020A000166157615BB2022B04D0404600F04EFF30
:1020B000002840D103F0D2F8222303603BE0300037
:1020C000390000F039FF029A039B00920193002827
:1020D0009BD0002200233000390001F0F3F80028E3
:1020E00000D192E706AB9846012342460693734B14
:1020F00053604346059A9C60DD601A621E615F6111
:102100005B461B785BB2002B0BD0002042466D492A
:102110009061D161022B09D103F0A0F82123036063
:1021200009E04246002300249361D461404600F058
:102130000DFF0028F0D043461B6A002B04D003F0AB
:102140008DF843461B6A03604346DC699B69009334
:1021500001945AE72000290000F0EEFE002800D18B
:1021600071E73000390000F0E7FE002800D16AE78F
:10217000029803990B00020002F064FF06AB984638
:1021800000287AD10323424606934C4B10625360D9
:102190005B461B789460D5605BB2166157619946C7
:1021A000002B48D1E0224146474B12068A61CB61A1
:1021B000200000220023290001F084F8002800D12B
:1021C00073E70022414B3000390002F06DF9040042
:1021D0000D0000F0C3FE02000B002000290001F0FA
:1021E0006BF8002805D1E022394B120641468A617E
:1021F000CB615B461B785BB299464B46022B00D005
:1022000053E757E706AB98460123424606932B4B0C
:10221000536043469C60DD600024009A284D1A629A
:102220001E615F619C61DD614B4600940195022B4C
:1022300000D07BE7E9E600224146264B20008A6178
:10224000CB6100220023290001F03CF80028D4D003
:1022500000221E4B3000390002F026F904000D0068
:1022600000F07CFE02000B002000290001F024F8A1
:102270000028BED10022134BB8E701234246069343
:102280000E4B536043464A469C60DD601A621E61F5
:102290005F6100245B461C57002C00D141E70023FE
:1022A00000221900100001F0DBFC43469861D9615F
:1022B000022C00D130E739E734000020805C0008B0
:1022C0000000F03F0000F0FFFFFFEF470000E03F9D
:1022D000FFFFEFC70000F07FF0B556464D4644467D
:1022E0005F46F0B41C001300670091B07F080093B4
:1022F000019406000D0080468946A2463B4332D039
:102300006E4B6C0064089C4229DC26D09F4226DC80
:102310006A4B9F4200D189E000239B464B46002B2D
:1023200000DA87E0002A2FD1644B9F4200D19FE062
:10233000634B9F425DD08023DB059A4501D100F0BD
:10234000C1FB604B9A451FD14B46002B1CDB300074
:10235000290000F0F7FC060007E000280DD05A4BDA
:10236000E01830430BD100265549300011B03CBC79
:1023700090469946A246AB46F0BDA742C8DD5348F9
:1023800000F0E6FD0600F0E73000290000F0D0FD87
:102390004346002B1DD0EB0F013B98465B4642465F
:1023A000134379D04A4B9F4200DC9FE0494B9F4248
:1023B00001DC00F0CEFB484B9C4279DD5346002BFC
:1023C00079DD464A464B1000190002F06DF8060010
:1023D000CBE7002C04D03A4AAB009B089342DAD1F9
:1023E0005346002B00DAADE34B46002B0DDB060015
:1023F000BBE753462900002BB7DA32002B00002040
:102400002F4901F02DFC0600AFE72F4B9C465B46A1
:1024100064441C4301D100F02BFC5B460600012BF9
:10242000A3D180231B069C4661449EE7002A00D16D
:1024300072E794E72B4B9F422BDC274B9F4200DC3B
:1024400070E729493B158C466344142B01DC00F0EE
:10245000F2FB3421CB1A0099D940080098408242FF
:1024600000D05FE70123194001335B1A9B4659E70F
:10247000154BE018064300D175E7174B9C4200DC72
:1024800051E35346002B16DB009B019C1E002100EC
:102490006BE702239B4645E732002B003000290002
:1024A00002F07CFA02000B0001F0DAFB06005CE7A8
:1024B0005346002B85DB0026002156E70000F07F05
:1024C0000000F03F0000E03F000010C0CC5A0008C0
:1024D0000000E0410000F043FFFFEF3F9C750088E3
:1024E0003CE4377EFFFF3F4301FCFFFFE84B002247
:1024F0009C4206DC0022E74B01F0D6FF35220C009F
:102500005242E54D2315AC46634499462403E34DFE
:10251000E34B240B914425439C4209DDE14B9C4253
:1025200000DCA9E301239C46DF4BE1449C46654463
:10253000002300240022089309940C930D94002496
:10254000D64B06920793069A079B29000A900B9197
:1025500002F024FA069A079B06000F000A980B99CE
:1025600001F052F802000B000020CC4901F078FB8A
:102570000A00010013000E910F9202003900300092
:1025800001F092FF0A0001008020049105921300DF
:1025900000228021000384460292039300228905D1
:1025A0006D100D4365442B190298039914001D000A
:1025B00001F07AFF02000B003000390002F0EEF962
:1025C000069A079B06000F002000290002F0E6F99A
:1025D00002000B000A980B9902F0E0F9029A039BA3
:1025E00001F062FF02000B003000390002F0D6F962
:1025F0000E9A0F9B01F058FF049D059E06900791CF
:102600002A0033002800310001F04EFF06000F00C1
:10261000A64AA74B01F048FFA64AA74B00F0F4FFDB
:1026200032003B0001F040FFA44AA54B00F0ECFF54
:1026300032003B0001F038FFA24AA34B00F0E4FF58
:1026400032003B0001F030FFA04AA14B00F0DCFF5C
:1026500032003B0001F028FF9E4A9F4B00F0D4FF60
:10266000320004000D003B003000390001F01CFF77
:1026700002000B002000290001F016FF029E039FBC
:1026800004000D000498059932003B0000F0BCFFE7
:10269000069A079B01F008FF22002B0000F0B4FF10
:1026A00032000A900B913B003000390002960397EC
:1026B00001F0FAFE0022894B04000D0000F0A4FF97
:1026C0000A9A0B9B00F0A0FF00260F0032000B00BF
:1026D0000298039901F0E8FE0022029003917F4BDB
:1026E0003000390002F05AF922002B0002F056F9AE
:1026F00002000B000A980B9902F050F9049A059B0E
:1027000001F0D2FE320004000D00069807993B004C
:1027100001F0CAFE02000B002000290000F074FF47
:1027200004000D0002000B000298039900F06CFFFA
:102730000026E0226A4B120630000F0001F0B4FEC2
:10274000029A039B049005913000390002F026F9AB
:1027500002000B002000290002F020F9614A604BC2
:1027600001F0A2FE604A04000D00604B3000390009
:1027700001F09AFE02000B002000290000F044FF47
:102780000C9A0D9B00F040FF060048460F0002F037
:1027900079FC04000D000498059932003B0000F01C
:1027A00033FF089A099B00F02FFF22002B0000F056
:1027B0002BFF002022002B000290039102F0EEF884
:1027C000089A099B02F0EAF8049A059B02F0E6F8E1
:1027D00002000B003000390002F0E0F8049005918F
:1027E0005B464246013B134300D197E100232B4C4B
:1027F000069307940098019900260B0032000F0001
:1028000002F0CCF8029A039B01F04EFE009A019B65
:1028100004000D000498059901F046FE02000B002B
:102820002000290000F0F0FE04000D00029803993A
:102830003B0032000494059501F036FE00900191B2
:102840000B0002002900200000F0DEFE284B81462C
:102850000F1E8A469F4200DC3CE1264BCB18034307
:1028600000D0DBE104980599234A244B00F0CCFE0C
:10287000009A019B04000D004846390002F08EF8D2
:1028800002000B002000290000F030FD3E0037E080
:10289000FFFF0F000000404301FCFFFF0000F03F7E
:1028A0008E98030079B60B000000F0FFEF4E454A0A
:1028B000287ECA3F65DBC9934A86CD3F01411DA9E9
:1028C0006074D13F4D268F515555D53FFFAB6FDB1F
:1028D000B66DDB3F033333333333E33F000008404F
:1028E00009C7EE3FFD033ADCF5015B14E02F3EBE65
:1028F000FFFF8F40000070BFFE822B654715973C9D
:10290000002800D08AE18022E74B52039C46130046
:10291000361566443341E549DB195E001C001B0394
:102920008C461B0B13431422760DE14F664437414E
:10293000961B334198465346BC4300202100002B90
:1029400000DAA9E102000B000098019902F026F8D4
:102950000B000090019102000498059900F054FECC
:1029600043461B05994600200022D24B06000F006B
:1029700001F09AFD009A019B02900391300039000A
:1029800002F00CF802000B000498059902F006F81A
:10299000C94ACA4B01F088FDC94A04000D00C94B61
:1029A0003000390001F080FD02000B0020002900FA
:1029B00000F02AFE04000D0002000B0002980399AB
:1029C00000F022FE029A039B06000F0001F0E6FFD2
:1029D00002000B002000290001F0E0FF320000900F
:1029E00001913B003000390001F05EFD04000D0054
:1029F000B54AB64B01F058FDB54AB64B01F0CEFFD3
:102A000022002B0001F050FDB34AB44B00F0FCFD56
:102A100022002B0001F048FDB14AB24B01F0BEFF8D
:102A200022002B0001F040FDAF4AB04B00F0ECFD5E
:102A300022002B0001F038FD02000B0030003900AD
:102A400001F0ACFF04000D0002000B003000390063
:102A500001F02AFD8023029003910022DB05200073
:102A6000290001F09BFF02000B000298039901F07E
:102A7000F7F8009A019B04000D003000390001F0C6
:102A800013FD009A019B00F0BFFD02000B00200027
:102A9000290001F083FF32003B0001F07FFF0200BC
:102AA0000B000020924901F079FF4B465B181A1584
:102AB000002A00DCF4E01900069A079B01F0F4FC00
:102AC000060052E4320030002B00290001F0ECFC3B
:102AD00006004AE4874B4E0076089E4200DCBFE0C9
:102AE000854BCB1803430CD1009A019B01F056FF94
:102AF00002000B000498059900F0EEFB002800D1BD
:102B000001E7069807997D4A7D4B01F0CDFC7B4A91
:102B10007B4B01F0C9FC0600FFF727FC0023794C32
:102B20000693079466E65346002B00DBC3E4009B44
:102B3000019C802212061E00944623006344190063
:102B4000FFF713FC02000B000020694901F088F830
:102B50004AE46D4B9C4200DCAAE4654B9C4201DDDB
:102B6000FFF72CFC0022624B01F018FFC022674BDC
:102B7000D20504000D0001F097FC654A06000F0025
:102B8000644B2000290001F08FFC00220290039189
:102B9000614B2000290001F087FC02000B005F4818
:102BA0005F4901F0FBFE22002B0001F07DFC0200DA
:102BB0000B0000205B4901F0F1FE2200049005911A
:102BC0002B002000290001F06FFC02000B0004988C
:102BD000059901F069FC544A4C4B01F065FC020078
:102BE0000B000298039901F0D9FE02000B000400CB
:102BF0000D003000390000F007FD002210003B00FE
:102C000032000290039101F0C9FE02000B00200087
:102C1000290001F0C3FE04900591E1E5434A444BCD
:102C20000698079901F040FC404A414B01F03CFCFA
:102C30000600FFF79AFB002A01D0FFF7A5FB14322C
:102C4000D31A3A001A41110099408F4201D0FFF780
:102C50006FFB012313400222D31A9B46FFF768FB48
:102C6000304B9E4200DD4EE60023994698467AE6B8
:102C700002000B00FFF714FC80232E4CDB050893A9
:102C800009942D4B2D4C00220C930D9480242C4B39
:102C9000E4020692079356E443465B42984651E6A7
:102CA000424600F0FDF907E702FCFFFF01FCFFFFD1
:102CB000FFFF0F00432EE63FEF39FAFE422EE63FBC
:102CC000396CA80C615C20BED0A4BE726937663E28
:102CD000F16BD2C541BDBB3E2CDE25AF6A56113F1C
:102CE00093BDBE166CC1663F3E5555555555C53F03
:102CF0000000F03FFFCB904000346F3F59F3F8C223
:102D00001F6EA5010000F0BFFEFFEF3F4715F73F24
:102D100044DF5DF80BAE543E0000D03F555555558D
:102D20005555D53F0000E03FFE822B659C7500881D
:102D30003CE4377E03B8E23F06D0CF43EBFD4C3E88
:102D40000000F83FF0B556464D4644465F46754B89
:102D5000F0B40A000D00190083B0060004002940F9
:102D6000994200D1BAE0002D00DC94E02D1500D18D
:102D7000A3E06D4B12039C468023120B5B0365445A
:102D80001A43EB0700D581E06B109846E30F9B18C0
:102D90009B18802216210026002764009203B81891
:102DA000984202DC87181B1AB618E00F5B00013945
:102DB0001B18640052080029F1D1002201929446A8
:102DC000802212062020914609E09F4241D0E10F67
:102DD000C9180138CB186400520800281ED061467B
:102DE00051189F42F1DA8D18AC46CD0FED07BA4667
:102DF0004D4539D0DB1B8C42BF417F42DB1B641A3F
:102E0000019901388B46934459460191E10FC91845
:102E10005746CB18640052080028E0D123432BD139
:102E2000019B5B08414972108C466244F10702D550
:102E3000802109060B43414609058D181E002F000D
:102E40003000390003B03CBC90469946A246AB46E0
:102E5000F0BDA1420ED88D18AC46CD0FED074D4503
:102E600048D09A460023CAE76546002DC2DB7D1C88
:102E7000AA46BFE73B00AAE7019B01333ED0019A77
:102E800001239446134063445B08CBE7E30F5200F1
:102E90009A18640078E76B005B0803432F00002B4F
:102EA000CED00025002A31D1E20A153D6405002A62
:102EB000FAD080235B031A4223D1802000234003F1
:102EC00000E00B005200591C0242FAD02020401AA8
:102ED000ED1A2300C3408C401A434AE702002B003E
:102EE000290001F0E1FA32002B0000F08DFB060012
:102EF0000F00A5E76546002DB9DAB2E701360023D9
:102F000090E7012320205B420021E1E73B00020023
:102F1000390001F043FD02000B0000F0A1FE0600A5
:102F20000F008DE70000F07F01FCFFFF0000E03F95
:102F300049004B0819007047034B48009C46400865
:102F40006044C00F7047C0460000108000207047EA
:102F5000002001497047C0460000F87FF0B54746A1
:102F600080B4CB0F98464A4C4B005B0D1E1982B0C3
:102F700007000A00132E35DC002E57DB454B0400FA
:102F800033411F000F4007430D00002F24D05B0882
:102F90001C000C4020430027002807D0132E00D12E
:102FA00072E08022D202324199430A434346DE0056
:102FB000394B11009E1934687568380022002B00C7
:102FC00000F022FB009001910098019922002B0053
:102FD00001F0E4FC04000D002000290002B004BC54
:102FE0009046F0BD332E0CDD802304000D00DB0085
:102FF0009E42F1D102000B0000F006FB04000D0020
:10300000EAE7264C0D00A446012463446442DC40F8
:10301000A446614604000142DED049080142C5D001
:103020008027FF051F4188430743BFE74B005B082C
:10303000034304000D00002BCED00B031B0B0343F6
:103040005A42134380221B0B120313404A0C5204B2
:10305000134319004346104ADB00D3181C685D680F
:1030600022002B0000F0D0FA009001910098019905
:1030700022002B0001F092FC42464B005B08D60771
:10308000334304001D00A7E780273F0689E7C046B9
:1030900001FCFFFFFFFF0F00885C0008EDFBFFFF56
:1030A0004B0070B55B0D14000A00002B1AD14B00C9
:1030B0005B08034315D00022224B01F0F5F9224BA7
:1030C0000A009C4222DB4B005B0D363B1F4DE31890
:1030D000AB4220DC002B0DDD1D4C1B0522401A43AA
:1030E000110070BD1B4DAB42F0D102000B0000F08F
:1030F0008BFAF6E71D00353518DA174B02009C42B3
:103100000ADC0B001548164900F032F8134A144B3C
:1031100001F0CAF9E5E702000B001248124900F07D
:1031200027F8104A104B01F0BFF9DAE7084C3633A4
:1031300022401B051343190000220C4B01F0B4F987
:10314000CFE7C04600005043B03CFFFFFE07000041
:10315000FFFF0F80FF07000050C3000059F3F8C2C3
:103160001F6EA5019C7500883CE4377E0000903CF2
:1031700030B54A00DB0FDB0752081A43110030BD9F
:10318000002243088B4274D303098B425FD3030AA6
:103190008B4244D3030B8B4228D3030C8B420DD3B9
:1031A000FF22090212BA030C8B4202D31212090247
:1031B00065D0030B8B4219D300E0090AC30B8B4285
:1031C00001D3CB03C01A5241830B8B4201D38B0333
:1031D000C01A5241430B8B4201D34B03C01A5241D8
:1031E000030B8B4201D30B03C01A5241C30A8B421B
:1031F00001D3CB02C01A5241830A8B4201D38B0206
:10320000C01A5241430A8B4201D34B02C01A5241A9
:10321000030A8B4201D30B02C01A5241CDD2C3091B
:103220008B4201D3CB01C01A524183098B4201D397
:103230008B01C01A524143098B4201D34B01C01A82
:10324000524103098B4201D30B01C01A5241C308FA
:103250008B4201D3CB00C01A524183088B4201D369
:103260008B00C01A524143088B4201D34B00C01A55
:103270005241411A00D20146524110467047FFE7C1
:1032800001B5002000F006F802BDC0460029F7D0C5
:1032900076E770477047C0468446101C62468C46ED
:1032A000191C634600E0C0461FB501F093F80028E2
:1032B00001D40021C8421FBD10B500F0E7FF404215
:1032C000013010BD10B501F085F8002801DB0020A9
:1032D00010BD012010BDC04610B501F07BF80028DC
:1032E00001DD002010BD012010BDC04610B501F069
:1032F0000DF8002801DC002010BD012010BDC046E3
:1033000010B501F003F8002801DA002010BD0120FB
:1033100010BDC046F0B5564644465F464D46F0B433
:1033200044024600C70F83B08846650A360EBA4687
:103330003DD0FF2E22D00023EC00802599469B46ED
:10334000ED0425437F3E43465C025800DB0F640AD0
:10335000000E984636D0FF2830D080230021E400AC
:10336000DB041C437F38301A01904846424608432C
:10337000724E800030587A4013008746002D44D1A9
:1033800008239946063B9B46DDE70122FF200024E7
:103390001A406402C305640AD2071C431443200088
:1033A00003B03CBC90469946A246AB46F0BD002D0A
:1033B00020D104239946033B9B46C4E7002C17D138
:1033C000022102E0002C0AD10121321A01924A4660
:1033D00043460A435A48920082587B409746200051
:1033E00001F01EFF431F76309C4040420021BAE7A7
:1033F0000321B8E7280001F013FF431F9D4000237D
:103400007630464299469B469DE70C239946093BF8
:103410009B4698E780240022E403FF20B9E70024BC
:10342000C2468B465A465346022AAED0032A7DD066
:10343000012A31D1012200201A400024A9E70122EB
:10344000101A1B2856DD1A4000200024A1E7802313
:10345000DB031D424BD18023DB032B435C02640A58
:103460003A00FF2095E76D016001854230D2019A54
:103470000024013A01921B220127290064006D00FB
:10348000002901DBA84201D82D1A3C43013A002A49
:10349000F3D16A1E95412C4301987F300028CEDD80
:1034A000620704D00F222240042A00D004342201F3
:1034B00003D5244A019814408030FE2800DD64E7DB
:1034C0000122A401640AC0B21A4062E72C00A9E7F5
:1034D0002D1A1A220124CFE76B02BCD500248023C9
:1034E000DB031C436402640A4246FF2051E71C428E
:1034F000B3D1F4E721002022C140101A8440621E9B
:1035000094410C43620704D00F222240042A00D0C9
:103510000434620104D5012201201A40002438E756
:103520000122A401640A1A40002032E78023DB0351
:103530001C436402640A5246FF202AE7985C000894
:10354000D85C0008FFFFFFF74302590A4300C20F8F
:103550001B0E00207E2B0EDD9D2B0DDC8020000439
:103560000143952B0BDC9620C31AD9400B0058421F
:10357000002A00D118007047034BD018FBE7963B98
:1035800099400B00F3E7C046FFFFFF7F70B5041EB4
:1035900028D001F045FE9E231B1A962B0ADC9622AA
:1035A000D21A94406202520AD8B25202520AC0059C
:1035B000104370BD992B18DC9922D21A9440114AFD
:1035C0002240610704D00F210C40042C00D00432AB
:1035D000510103D50B4B1A409F231B1A9201520A2B
:1035E000D8B2E2E700200022DFE705222500121A08
:1035F000B921D5402200C91A8A40541EA2412C008C
:103600001443DCE7FFFFFFFBF8B556465F464D4627
:103610004446F0B40F00FD0FAA4609037C002E00BB
:103620005F00450F490A7F0D2943C5001803BC46BA
:10363000400A570F640DDB0F3843D2009A4500D182
:10364000AAE06646A61B002E00DCFFE06346002BC6
:1036500039D10300134300D0D9E06B0709D00F2301
:103660002B40042B05D02B1DAB42AD416D424919B7
:103670001D000B0200D482E0CA4B01349C4200D1F1
:10368000FEE00A005646C84BED081A405007640594
:1036900052020543120B640D002112030B0D1B0592
:1036A0006405120B1A436308C04CF60714401C4310
:1036B000640064083443280021003CBC90469946CD
:1036C000A246AB46F8BDB74B9C42C6D080231B0434
:1036D0001843382E00DDEBE01F2E00DD1EE1202315
:1036E0009B1B9C4603006746BB4098461300474619
:1036F000F3403B436746BA40571EBA4113430200AA
:10370000F240EB1A9D42B6411D008A1A7642911B87
:103710000B0231D54A02560A002E00D1B4E0300027
:1037200001F07EFD0300083B1F2B00DDB5E02022E9
:103730002900D21AD1409E400A009D4032439C424B
:1037400000DDB1E01C1B631C1F2B00DDD5E0202138
:1037500014002800C91A8C40D8408D400443DA4038
:10376000681E854111002543002476E74146314318
:1037700000D134E2310045466B0700D06FE7564672
:103780004807ED08C9080543864B9C4235D00A031B
:103790006405120B640D7FE76346E31A9B46002B1A
:1037A00000DC8BE06746002F3CD07E4FBC4200D14E
:1037B00053E780273F0438435B46382B00DCF7E0B3
:1037C0000243501E82410020D2B253194218AB422C
:1037D00089411D00494289180B02CDD5714B013436
:1037E0009C4200D13DE101206F4A6B080A4028400D
:1037F0001843D507054351082FE72B000B4300D191
:10380000CBE180231B030B431A03120B44E7013E59
:10381000002E6DD1AE1AB5429B41091A5B42C91AFE
:10382000350075E70700174300D116E701235B4217
:103830009C46E3445B46002B00D0E0E0AA18AA4275
:103840009B4109185B4259181500C5E7002E75D138
:10385000661C7605760D012E00DCF3E0AE1AB0464C
:103860004545BF410E1A7F42F61B370200D48FE058
:10387000551BAA42B641411A76428E1B9A464BE727
:1038800056460022002507E7280001F0C9FC203039
:103890000300083B1F2B00DC49E72A002838824040
:1038A00000259C4200DC4DE73F49E41A1140D4E674
:1038B0000243501E8241D3B2002222E7002B00D0E7
:1038C000F3E0631C9C465B055B0D012B00DC9FE075
:1038D000344B9C4500D1C3E0AA180918AA42804184
:1038E00040424118CD075208154349086446B4E6E2
:1038F0002C4B9C4200D0ECE6AFE611001F3CE140AF
:103900000C00202B00D17FE04021CB1A9A401543B8
:103910006A1E95410021254300242DE7330007004E
:10392000203BDF403B00202E70D04027BE1BB04024
:103930000243501E824113430022E2E6002C4FD086
:10394000184CA44500D1ABE08024240476422143E6
:10395000382E00DDDFE01F2E00DD43E12027BC1BF9
:10396000A1460C004F46BC40A0462C004746F44000
:103970003C434F46BD406F1EBD41F1402C43151BDB
:10398000AA429241411A5242891A64469A46BFE6B7
:1039900041464546314300D0BEE6002600240025BE
:1039A000F2E6C046FF070000FFFF7FFFFFFF0F802A
:1039B0001F2B59DC2027FF1ABC46070063469F4097
:1039C0005B46B9461700DF40B8464F4643461F43A3
:1039D00063469A40531E9A415B463A43D840F4E608
:1039E0000C002C435CD0F643002E55D1551BAA4247
:1039F000A441411A6442091B9A46644688E6964FE0
:103A0000BC4200D0D8E628E6002280E700208FE7FD
:103A10000B002B43002C00D0C2E0002B00D101E1B1
:103A20000300134300D118E6AB18AB42B6410918A6
:103A3000764271180A0200D409E1884A1D0011403B
:103A400064460AE6002C5BD10E002E4300D08AE0CB
:103A50000100114300D1C2E0010015009A46FCE5C7
:103A60006446002100258FE620235B429C46DC440F
:103A700063460700DF405B46BC46202B00D1ACE02C
:103A800040235F46DB1B98400243501E8241634641
:103A900013431A00002098E66F4CA44500D057E766
:103AA0000100150064469A46D7E5002C39D10C0078
:103AB0002C436ED0DB43002B1AD0674CA44568D052
:103AC000382B00DDA4E01F2B00DDAEE020240F002A
:103AD000E41AA740B9462F00DF40B846A3464F4638
:103AE000444627435C46A5406C1EA541D9403D4352
:103AF000AD1895429B4109185B42591864466BE624
:103B00000C002C4315D1010011437BD0010015009E
:103B10009A46514CA1E50D43691E8D410021ECB23E
:103B20002DE74D4CA44534D0802424045B4221432E
:103B3000C6E7040014434ED0ED084C072C43802503
:103B4000C9082D03294208D0C6082E4205D1D20843
:103B5000410711430C009A463100620FC900E5008D
:103B600011433D4C79E50600164300D175E5AE1AC8
:103B7000B0464545BF410E1A7F42F61B370200D4BE
:103B8000F4E5551BAA42B641411A7642891B9A4672
:103B900063E50100150064465FE5002200257BE532
:103BA000002B3BD00300134315D0ED084B072B43EC
:103BB0008025C9082D03294207D0C4082C4204D10E
:103BC00041070B002100D2081343C9005A0F1143CB
:103BD000DD00214C41E5204C3FE5002054E7002664
:103BE0000025D1E534000F00203CE7403C00202EAA
:103BF0002BD04027BE1BB1400D43691E8D410021D3
:103C00002C43BCE6802100260903134C0025BBE5AC
:103C10000D43691E8D410021EDB269E701001500D9
:103C20000D4C1AE50100150017E51C000F00203CA3
:103C3000E7403C00202B0CD04027FB1A99400D4355
:103C4000691E8D410021254352E70021D4E71D0064
:103C500092E50021F3E7C046FF070000FFFF7FFF6A
:103C6000F0B556464D4644465F46F0B41D000E037F
:103C70004C00CB0F87B0070092468146360B640D8F
:103C800098466AD06D4B9C4235D08022430F120477
:103C90001343F6001E43C3009946694B00279C4618
:103CA0000023644402932B0368001B0BED0F514665
:103CB0009B46400D009500D178E0604B98426CD057
:103CC0005B46DA004B0F802109040B4313439B46EC
:103CD0005346D9005A4B9C46002360444246201A62
:103CE0006A40924601901F430F2F00D9B0E055481B
:103CF000BF00C0598746374300D088E0002399466B
:103D00000233082700260293CDE74346B3464946CF
:103D10000093029B009A9246022B00D0BFE1002143
:103D200053460122002689461A40444B002136039F
:103D30000C0D2405360B2643434C1B0526401E4321
:103D40007600D207760816434846310007B03CBCDF
:103D500090469946A246AB46F0BD330003434FD090
:103D6000002E00D1BCE1300001F05AFA03000B3BF9
:103D70001C2B00DDADE11D220100D31A08393A00E9
:103D80008F408E40DA40B9461643304B00279C46A0
:103D9000002360444442029385E753465A46134346
:103DA0002CD1002300219B46023397E70B4320D000
:103DB0005B46002B00D19EE1584601F031FA03002A
:103DC0000B3B1C2B00DD8FE102005946083A914065
:103DD0008B461D21CB1A5146D9400B0059460B4347
:103DE00051469B469140194B9C46604440420023FB
:103DF00074E7002300219B4601336FE703236DE73F
:103E00000023994601330427002602934BE703233E
:103E10000C27029347E70122D51A382D00DCB0E1C8
:103E200053461A4000210023002689467EE70023DE
:103E30008026994600223603004B77E7FF070000F3
:103E400001FCFFFF185D0008FFFF0F80F303000077
:103E50005E4500D972E100D16DE1019B4D46013B09
:103E600001930023340002935B461E020B0E1E4397
:103E70000B020393330C994633041B0C4946200074
:103E80000093FFF77DF9009B370043430600494646
:103E900020009846FFF7FAF92C0C09040C43A045C2
:103EA00009D9E419731EA74200D95CE1A04500D8E6
:103EB00059E1023EE4194346E41A49462000FFF75F
:103EC0005FF90300009A80465343494620009B4611
:103ED000FFF7DCF92A040904120C0A4393450DD9B3
:103EE0004346D219013B974200D93AE1934500D8A5
:103EF00037E102235B429C46D219E0445B46D21A6A
:103F00004346360433439B460399180C0B0C1D00A3
:103F1000059309045B46090C0C001B041B0C44436D
:103F2000049159436B4368431B190D0CEB189C42D9
:103F300003D980246402A44660441C0C09041B04B9
:103F4000090C20185D18824200D2DEE000D1D7E0D3
:103F5000161A029B9C465D1BAC459B415B42F61AC0
:103F6000B74200D106E149463000FFF709F9009B4E
:103F700004004343494630009846FFF787F92E0C6A
:103F800009040E43B04509D9F619631EB74200D99A
:103F9000F3E0B04500D8F0E0023CF6194346F31ACE
:103FA000494618000293FFF7EBF8009B06004343D5
:103FB000494602989846FFF769F92D0409042D0C2B
:103FC0000D43A84509D9ED19731EAF4200D9D6E0BB
:103FD000A84500D8D3E0023EED1924042100434651
:103FE0003143049E059A3000ED1A0B040C0C1B0C97
:103FF00058436643534354439A19030C9B189E42FB
:1040000003D980225202944664441A0C00041B0413
:10401000000C14191B18A54250D34DD0012319438D
:10402000964A019B94466344002B00DCF3E64A0762
:1040300009D00F220A40042A05D00A1D8A4289416C
:1040400049428B4411005A46D20108D55A468C4B3E
:104050001A4093468022D2009446019B6344894AC9
:10406000934200DD5BE65A46C908500708435602F2
:10407000514601225B058146360B5B0D0A4055E631
:1040800080231B031E4211D05A461A420ED15E46AF
:104090001E433603360B2A0089467B4B46E6032B2C
:1040A00000D1E1E0012BBBD11A40BBE61E43360331
:1040B000360B4246744B39E6002BB1D07D194A1EAF
:1040C000AF4252D91100A542A8D1039A9A42A5D174
:1040D000A6E703003E00283B9E400023994654E695
:1040E00001F09EF8203041E603005246283B9A40FA
:1040F0000021934677E6504601F092F820305EE6C4
:10410000029B0026AB4200D323E7039E0299B446EC
:1041100061448846B045B6415B467642F619B2180E
:10412000013B0291974213D290424FD800D18EE0CA
:10413000161A9B460DE7894500D28EE674084B4659
:10414000F60735005B081D434B46DB0702938BE601
:104150009742EDD10399029CA142E5D93E1A9B46B4
:10416000F7E69846CAE61E00A5E6AC423ED874D0F3
:10417000110053E70121494252E71C000EE71E00DF
:104180002BE71F2D3CDC20230A0058465B1B984080
:10419000EA4099400243481E81415E461143EE4089
:1041A0004B0709D00F230B40042B05D00B00191D22
:1041B00099429B415B42F61833023CD5534601229B
:1041C00000211A40002601238946AFE502235B4205
:1041D0009C46039CE344A446029B63449846A04546
:1041E000B6417642F6190293B218B1E603988A1ED8
:1041F00041008142B6417642F619AD19039161E75B
:104200001F225242D31A5A46DA401300202D29D0D9
:1042100040225846551BA8400143481E81410720B3
:104220000B4318400026002809D00F2200261A4010
:104230001900042ABBD10B0070077602360BDB088D
:1042400003439946012253461A4000236EE5029922
:104250008D42BBD89B4600267BE603989842C5D387
:10426000110032E70020D7E780265B4636031E4365
:104270003603360B009A8946034B57E5FF030000CF
:10428000FFFFFFFEFE070000FF070000F0B55F46DE
:1042900056464D464446F0B41F035C00DB0F9A4679
:1042A000194B0E034D00C90F8046360B6D0D8B4622
:1042B00091463F0B640D9D4219D0134B9C421BD07D
:1042C0000123A54206D018003CBC90469946A24660
:1042D000AB46F0BDBE42F6D1C845F4D1D34510D0AF
:1042E000002DF0D1304303005A1E9341EBE731001B
:1042F00001230143E7D1E0E73A430123002AE2D159
:10430000DEE70023DFE7C046FF070000F0B55F46A9
:10431000444656464D46F0B41F033C0B2C4F0E034B
:104320004D00A3465C008446360B6D0DC90F9046C8
:10433000640DDB0FBD422BD0254FBC422ED0002D8B
:104340000ED130430700814678427841002C17D1C6
:104350005F463A4314D14B460020002B0AD006E0BA
:10436000002C02D15846024301D099421AD00123B1
:10437000484218433CBC90469946A246AB46F0BD25
:104380000028F2D058425841012240421043F1E740
:1043900037000743D0D002204042EBE75F46174387
:1043A000CDD0F8E7A542E2DC05DB5E45DFD808D0DA
:1043B00000205E45DED24842484101234042184376
:1043C000D8E7C445D3D80020C445F4D3D2E7C046CB
:1043D000FF070000F0B55F464D4644465646F0B430
:1043E0001C03240BA4462F4C0F034D005E00C90F85
:1043F00080463F0B6D0D8B469146760DDB0FA54237
:1044000020D0284CA64222D0002D12D1384344425D
:104410004441002E20D0002C0DD05C426341012489
:104420005B421C4320003CBC90469946A246AB46EA
:10443000F0BD002E17D05B4519D05B465C420123CE
:104440001C43EFE7390002240143EBD1D9E7614671
:1044500002241143E6D1D7E761460A43DBD10024A9
:104460000028DFD0E9E761460A43E4D1E5E7B54239
:1044700003DD01225C421443D4E7B542CDDB67453E
:10448000DBD809D000246745CCD259464C42614163
:10449000012449420C43C5E7C845CED80024C8458D
:1044A000F3D3BFE7FF070000F0B55F4656464D4621
:1044B0004446F0B40D0399464E002B0B87B007001D
:1044C000924680469B46760DCC0F002E69D06D4BF0
:1044D0009E4235D05B468022DD001204430F134319
:1044E0002B439B46C3009846674B00279C460023FE
:1044F000664401934A4615035000D20F53462D0BD4
:10450000400D914600D176E05E4A90426CD0802208
:104510005B0F120413435C4AED0094461D4353465F
:104520000022DB00604449463618701C614002904E
:1045300017430F2F00D9AFE05448BF00C759BF46FB
:104540005B461F4300D088E000239B469846023319
:1045500008270193CEE74946022A6AD0032A00D1F0
:1045600009E2012A00D0BBE111400022002300250E
:104570009046CCB200212D030A0D12052D0B1543D8
:10458000434A1B0515401D436D00E4076D08254394
:104590004046290007B03CBC90469946A246AB462F
:1045A000F0BD034352D05B46002B00D18AE1584650
:1045B00000F036FE03000B3B1C2B00DD7BE11D22CF
:1045C000D31A3A0001005D46DA4008398D401300E5
:1045D0008F402B439B46B8462E4B00279C4600231A
:1045E00060444642019385E752462A432CD1002578
:1045F0000023022297E752462A4321D0002D00D102
:1046000054E1280000F00CFE03000B3B1C2B00DDE6
:1046100046E11D21CB1A51460200D9405346083AC3
:10462000954093400D431B4A94466044404200220B
:1046300079E7012400220C40124B0025904699E7AF
:104640000025002301226EE703226CE700239B462E
:1046500098460133042701934CE703230C27019369
:1046600048E700238025984600242D03054B81E769
:104670005D464346019A6FE75D4643462100019A35
:104680006AE7C046FF07000001FCFFFF585D000815
:10469000FFFF0F80F30300004246120C91461A0CF4
:1046A0009446424617044A461B041B0C5A43604674
:1046B00090464A4642431000039262461C003F0C5B
:1046C0007A437C4342440192220C9246019A52441E
:1046D000904506D98246802040028046C24450461A
:1046E0000390100C049048462404240C1204121960
:1046F00005922A0C2D042D0C68432C008246484656
:104700007C4350438146200C8046574357444744DE
:10471000BA4503D9802040028046C144380C3F048A
:10472000B84648442404240C01900498A044404412
:1047300004905846000C814658460404200C8246DA
:10474000070048465F434C46434360466043644627
:10475000834650464443380C8446E4186444A342DC
:1047600003D980235B029C46E34448463F04230C64
:104770003F0C2404E419574668436F4384464D4672
:10478000504655434243380C814662444A445B4498
:10479000944503D9802040028446654403983F0431
:1047A000834604983F0C8446E344C345804140421D
:1047B0008246100484460198674484466744A344B3
:1047C000BC46A345A4419946D44464428742BF41B4
:1047D000D4458041E144A04699459B417F424042F7
:1047E000C8440743120CBA18A045A4415F423B00DD
:1047F00064422343D71843467D19DB0D6D021D43E8
:104800005B465A02059B1A43531E9A415B46DB0DD9
:104810001A4343465B021343EA0107D501225C08B1
:1048200013402343EA07029E13436D08574AB21808
:10483000002A4BDD580709D00F201840042805D066
:10484000181D98429B415B42ED180300E80104D516
:104850004F4A15408022D200B2184E48824200DDF5
:10486000E7E60124DB08680718436D02530580461C
:104870002D0B5B0D0C407DE6802259461203114240
:1048800008D0154206D115432D0398462D0B4C46F2
:10489000414B6FE65D4615432D032D0B3E4B69E6FC
:1048A00003005546283B9D400023BCE6504600F0DF
:1048B000B7FC2030A8E60300283B9F400023BB46FE
:1048C000984689E600F0ACFC203073E60124A61A75
:1048D000382E07DD00220C4000230025904649E6D3
:1048E000029EA3E71F2E20DC20222C001800921B22
:1048F000F040944093400443581E83411C43F540CC
:10490000630709D00F232340042B05D023001C1D6F
:104910009C4292415242AD182B021FD50124002225
:104920000C4001230025904624E61F202C00404225
:10493000821AD440202E1CD04022961BB5402B4317
:10494000581E83410720234318400025002809D022
:104950000F2200251A401C00042AD8D12300680722
:104960006D022D0B0124DB08034398460C40002305
:1049700000E60025E3E780220124120315432D03FE
:1049800098462D0B0C40044BF4E5C046FF03000095
:10499000FFFFFFFEFE070000FF070000F0B55746CF
:1049A0004E464546E0B40E001100F20F9246C50097
:1049B000420F180337037400400A4E0F7F0A30433A
:1049C000CF4E17435A00640D520DDB0FC900B2429F
:1049D00000D1E5E001267340A61AB446534500D144
:1049E000AFE0002E00DC0DE1002A3AD103000B43BA
:1049F00000D0E4E06B0709D00F232B40042B05D037
:104A00002B1DAB42AD416D427F191D003B0200D40E
:104A100088E0BB4B01349C4200D110E13A00B94B15
:104A200051461A4001235007ED0852026405054320
:104A3000120B640D0B400021280012030D0D120B08
:104A400064052D0515436208AF4CDB072C40144369
:104A5000640064081C4321001CBC90469946A24691
:104A6000F0BDA74B9C42C5D080231B04184363466E
:104A7000382B00DDFDE01F2B00DD30E162462023F6
:104A80009B1A02009A40664690460A009940F240FE
:104A900046464B1E99413243114363460200DA40B9
:104AA000691A8D429B410D00BA1A5B42D71A3B022C
:104AB00035D57A02530A98464346002B00D1C4E00C
:104AC000404600F0ADFB0300083B1F2B00DDC5E0B6
:104AD00020222900D21A4746D1409F400A009D401B
:104AE0003A439C4200DDC0E01C1B631C1F2B00DD11
:104AF000E4E0202114002800C91AD8408C408D40E1
:104B00000443DA40681E854117002543002471E7FD
:104B1000424663461A4300D14CE2674645466B075E
:104B200000D069E7012351467807ED08FA080B40E9
:104B3000054373498C4238D012036405120B640D8F
:104B400079E7002E00DC9AE0002A47D06C4A9442B4
:104B500000D14FE78022120410436246382A00DC5D
:104B600008E10143481E81410022C9B24919D21906
:104B7000A942BF410D007F42BF183A0200D442E172
:104B80005F4A0134944200D14EE101205D4A690838
:104B90003A4028400843D507054357089A4629E775
:104BA00006000E4300D017E714E72900114300D197
:104BB000F9E1802109030A431203120B3BE70123A9
:104BC0005B429846C4446346002B72D1691A8D42F9
:104BD0009B413F1A5B42FF1A0D0068E702000A433F
:104BE00000D107E7012252429046C4446246002A9F
:104BF00000D0E6E06918A942B6413F187642F7199D
:104C00000D00BAE7002E00D080E0621C5205520D64
:104C1000012A00DCF9E06A1A91464D45B6413A1A7C
:104C20007642921B9046120200D499E04D1BA94295
:104C30008941C71B49427A1A90469A463CE7524638
:104C40000123002513400022F5E6280000F0E8FAD1
:104C500020300300083B1F2B00DC39E72A002838EE
:104C6000824000259C4200DC3EE7264FE41A1740B4
:104C7000C0E60143481E81410022C9B210E7002E60
:104C800000D0F1E0621C94465205520D012A00DC6E
:104C9000A0E01B4A944500D1C5E06918A9429241A1
:104CA0003F185242D2194908D5070D4357086446A8
:104CB000A0E6134B9C4200D0D9E69BE611001F3CB6
:104CC000E1400C00202B00D180E04021CB1A9A401B
:104CD00015436A1E95410027254300241FE76346BC
:104CE0000200203BDA406346202B71D04023664609
:104CF0009B1B98400143481E814111430022CFE68F
:104D0000FF070000FFFF7FFFFFFF0F80002C48D050
:104D1000CA4CA24200D1A2E07442A14680242404DD
:104D200027434C46382C00DDDBE01F2C00DD44E13E
:104D30004E462024A41B3E00A640A246B0464C4648
:104D40002E00E640B4464646644626435446A540F7
:104D50006C1EA54134002C434D46EF400D1B28E04E
:104D60004A4643464D461A4300D0A5E60023002498
:104D70000025DEE61F2A5ADC66462022921B06002A
:104D800096409146B04662460E00D64042461643D3
:104D90004A4691404A1E9141020060463143C2405A
:104DA000E4E63C002C435AD0F443A146002C52D1F7
:104DB0004D1BA9428941C71B49427F1A14009A46DC
:104DC00075E69E4A944200D0C7E613E600227FE7CC
:104DD00000208FE7002C00D0C8E03B002B4300D11F
:104DE0000FE103000B4300D104E66918A9429B417F
:104DF0003F185B42DF193B0200D41AE1904B0D00D3
:104E00001F406446F6E59A4689E63A002A43002C9C
:104E10005CD1002A75D102000A4300D1CAE0070024
:104E20000D009A46E6E564460022002581E66246CA
:104E30000600203AD6406246B046202A00D1B7E0AC
:104E400040226646921B904001434246481E8141E3
:104E5000114300228AE6794CA24200D061E70700A4
:104E60000D0014009A46C5E5002C41D13C002C43AE
:104E700078D0F443A146002C20D0704CA24271D0CF
:104E80004C46382C00DDB2E01F2C00DDBCE02026B3
:104E9000341BA2463C005646B4404E46A0462C0069
:104EA000F440A446444666463443A4465446A540CE
:104EB00064466E1EB54125434C46E7406D188D4251
:104EC00089413F184942CF19140056E6002A2FD1D4
:104ED00002000A4300D184E007000D009A46574CB7
:104EE00088E53D436F1EBD41ECB200270D1B60E716
:104EF000524CA24236D0744280263604A146374333
:104F0000BEE702000A4300D174E56A1A904645459F
:104F1000B6413A1A7642921B9446120200D4F7E543
:104F20004D1BA9428941C71B49427F1A9A4661E538
:104F300002000A433AD0ED087C072C438025FA088A
:104F40002D032A4208D0C7082F4205D145072C005F
:104F50003A009A46C9080C43670FD200E500174390
:104F6000364C47E507000D00140043E53A002A439C
:104F700043D002000A4319D0ED087C072C4380255A
:104F8000FA082D032A4207D0C6082E4204D147074B
:104F90003C003200C9080C43D700620FE5001743FC
:104FA0009A46264C26E50022002544E5234C21E5BF
:104FB000002049E700230025BBE54C463E00203C8D
:104FC000E6404C46B446202C31D040244E46A61B29
:104FD000B7403D436C1EA54164462C4300270D1B82
:104FE000E7E6802200231203144C0025A1E53D438F
:104FF0006F1EBD410027EDB260E707000D000F4CAA
:10500000F8E407000D00F5E44E463C00203EF44075
:10501000A0464C46202C0ED040244E46A41BA74050
:105020003D436F1EBD4144460027254346E7002708
:10503000CFE70D0073E50027F2E7C046FF07000049
:10504000FFFF7FFF70B50E4E0C031D0349005B0090
:10505000240B490D2D0B5B0DB14204D008490020F3
:105060008B4208D070BD04430120002CFAD10449C2
:1050700000208B42F6D115432800451EA841F1E7D8
:10508000FF07000070B5002830D0C317C4185C407B
:10509000C50F200000F0C4F8174B184A1B1AD21A8B
:1050A0001F2A18DD164AD21A9440002224035B05F9
:1050B000240B5B0D0021100024030A0D1205240BA4
:1050C0001443104A1B0514401C436400ED07640898
:1050D0002C43210070BD210091400A000B21081AC9
:1050E000C4405B052403240B5B0DE3E7002500238C
:1050F00000240022DEE7C0461E0400003304000046
:1051000013040000FFFF0F804B0070B55E0D0C0311
:10511000751C640A420F6D052243C90FC4006D0D52
:10512000012D2ADD3B4BF318FE2B1ADC002B42DD50
:105130008001451EA841D2001043620F0243500770
:1051400004D00F201040042800D004328020C00476
:10515000104021D00133FF2B03D09201520ADBB261
:1051600001E0FF2300225202520ADB0513435B00D9
:10517000C9075B080B43180070BD002E07D014430D
:10518000EFD08020D20080040243FF23D7E72243E0
:105190000023002A03D00522D208FF2B03D052029D
:1051A000520ADBB2DFE7002A32D08020C00302437C
:1051B0005202520AD7E71800173014DB802000048F
:1051C00002431E20C01A1F280FDC2500124BF318C3
:1051D0009D406E1EB5419A402B0013432200C240F1
:1051E0001A430023ABE70023D5E702256D42EB1AF3
:1051F0001500DD40202809D0084BF3189A401443CD
:10520000621E9441220000232A4398E70022F6E719
:105210000022A8E780FCFFFF82FCFFFFA2FCFFFF4B
:105220001C2101231B04984201D3000C10391B0AD6
:10523000984201D3000A08391B09984201D300099A
:10524000043902A2105C40187047C04604030202F1
:10525000010101010000000000000000014B18687E
:105260007047C0469800002003008218934202D085
:1052700019700133FAE770470EB410B59DB002A95A
:10528000029008610B4882248860486101204042F6
:105290001FABC881084804CBA400006801938C812F
:1052A00000F06EF80023029A13701DB010BC08BC09
:1052B00003B01847FFFFFF7F98000020F0B58E680D
:1052C00085B007000C00039201939E4243D89023BF
:1052D0008A89DB001A423ED00325096923680198B8
:1052E0005B1A029363695D43EB0F5D19029B6D10BE
:1052F00001331B18AB4200D91D00530510D52900FE
:10530000380000F03BFB061E14D0029A216900F021
:10531000D0FAA289194B134080221343A38112E0D3
:105320002A00380000F080FB061E0CD121693800ED
:1053300000F0DEFA0C23402201203B60A3894042AA
:105340001343A38117E0029B2661F618266065616E
:10535000019EED1AA560019BB34200D21E003200EF
:105360000399206800F0AEFA0020A3689B1BA3609D
:1053700023689E19266005B0F0BDC0467FFBFFFF85
:10538000F0B59FB0029005938B890F0016001B06A5
:1053900010D50B69002B0DD1402100F0EFFA3860D9
:1053A0003861002804D10C23029A01381360D8E038
:1053B00040237B61002306AD6B6120336B76103395
:1053C000AB7634002378002B03D1A31B049312D0B7
:1053D00003E0252BF9D00134F4E7A31B3200390098
:1053E0000298FFF76BFF431C00D1B4E06A69049B8D
:1053F000944663446B612378002B00D1ABE001221B
:10540000002352426A6002A95432521801342B60C0
:10541000EB60AB601370AB65534E21780522300012
:1054200000F03CFA002807D00123801B83402A6843
:10543000013413432B60EFE72B68DA0604D55322BF
:10544000202102A8121811701A0704D553222B210B
:1054500002A81218117022782A2A03D0099B002072
:105460000A210EE0059A111D12680591002A01DB40
:10547000099204E05242EA60022213432B60013495
:105480000BE02278303A092A04D84B4301349B18A8
:105490000120F6E7002800D0099323782E2B1ED197
:1054A00063782A2B0AD1059B02341A1D1B680592CA
:1054B000002B01DA01235B42079310E000230A204E
:1054C0001A0001346B6021783039092904D842432D
:1054D000013452180123F6E7002B00D00792234E27
:1054E00021780322300000F0D9F9002806D04023AB
:1054F000801B83402A68013413432B6021780622E5
:105500001B48661C297600F0C9F9002812D0194BF7
:10551000002B06D10722059B0733934308330593DD
:1055200014E005AB00933A00134B2900029800E009
:1055300000BF07E005AB00933A000F4B290002982B
:1055400000F08AF80390039B013304D06B69039A3F
:105550009B186B6135E7BB890B985B0601D5012071
:1055600040421FB0F0BDC0469A5D0008A05D000833
:10557000A45D000800000000BD520008F7B5170048
:1055800001938A680B6900900C00934200DA1300C3
:1055900022003B6043321278002A01D001333B6085
:1055A00023689B0602D53B6802333B6006252368CF
:1055B0001D401ED0230043331B785A1E934122689E
:1055C00092061CD53020E1184331087021005A1C86
:1055D00045310978A2184332023311700FE02200DE
:1055E0000123193201990098089EB047431C0ED040
:1055F0000135E3683A689B1A9D42F0DBDAE7220046
:10560000019943320098089DA847431C02D101200C
:10561000404220E006232068E1683A680340002504
:10562000042B03D18D1AEB43DB171D40A3682269BD
:10563000934201DD9B1AED180027BD420AD02200DB
:1056400001231A3201990098089EB047431CDED00E
:105650000137F2E70020FEBDF0B58BB006920A00DC
:1056600043320793059004920A7E0C00109B6E2A29
:1056700000D1ABE011D8632A22D009D8002A00D18A
:10568000B5E0582A00D0C5E045310A70814A4FE0A4
:10569000642A1DD0692A1BD0BCE0732A00D1AAE07D
:1056A00009D86F2A29D0702A00D0B3E020220968D7
:1056B0000A43226037E0752A1FD0782A33D0A9E048
:1056C0000E001A684236111D196013683370A4E089
:1056D00021681A68080606D4490604D5111D196008
:1056E0000023D55E02E0111D19601568002D3BDA1C
:1056F0002D23049A6D42137036E021681A6808065B
:1057000006D4490604D51568111D1960ADB202E032
:10571000111D196015685F4B227E039308276F2ABD
:105720001DD00A271BE022007821453211705A4A09
:1057300019680392081D226818600D68100602D4CB
:10574000500600D5ADB2D30702D520231A432260FC
:105750001027002D03D1202322689A4322602300C2
:10576000002243331A7002E00A274A4B039363680E
:10577000A360002B09DB0422216891432160002DE6
:1057800005D1049E002B11D07BE0002D79D0049E22
:1057900028003900FDF77AFD039B013E5B5C280081
:1057A00033703900FDF7ECFC051EF1D1082F09D14B
:1057B0002368DB0706D563682269934202DC302345
:1057C000013E3370049B9B1B23612BE009681A6820
:1057D000080607D4490605D5111D19601368A28A69
:1057E0001A8004E0111D1960136862691A600023B1
:1057F000049E236116E01A68111D196016680021C5
:105800006268300000F04AF8002801D0801B606018
:10581000636803E0260042363270012323610023CF
:10582000049A1370079B09AA00932100069B059810
:10583000FFF7A4FE431C02D10120404227E0236968
:10584000320006990598079DA847431CF4D02368A9
:1058500000259B070FD4099BE068984217DA1800CF
:1058600015E022000123193206990598079EB047DA
:10587000431CE1D00135E368099A9B1A9D42F0DB95
:10588000E9E72600039B42361B7833708EE70BB0A6
:10589000F0BDC046AB5D0008BC5D0008C9B282180F
:1058A000904204D003788B4202D00130F8E7002008
:1058B0007047002310B59A4203D0CC5CC454013326
:1058C000F9E710BD10B5884202D98B18984201D370
:1058D000002305E09B1A013A08D3995C8154FAE74A
:1058E000934203D0CC5CC4540133F9E710BD0000EF
:1058F00030B500293ED004390B68002B00DAC918F6
:105900001D4A13681400002B02D14B60116031E076
:105910008B420DD90A688818834203D118685B68E6
:1059200082180A604B60216024E08A4203D8130089
:105930005A68002AF9D11D685C198C420BD109689C
:10594000691858181960824214D1106852684118B9
:1059500019605A600EE08C4202D90C23036009E002
:1059600008680C18A24203D1146852682018086015
:105970004A60596030BDC046B4000020032370B5B2
:10598000CD1C9D43083506000C2D01D20C2505E0E9
:10599000002D03DA0C230020336040E0A942F9D83F
:1059A0001F4B1C681A002100002913D00B685B1BD9
:1059B0000DD40B2B02D90B60CC181EE08C4202D107
:1059C000636813601AE04B6863600C0016E00C001B
:1059D0004968E9E7134C2368002B03D1300000F03D
:1059E00049F820602900300000F044F8431CD1D071
:1059F0000323C41C9C43A0420AD125602000072237
:105A00000B30231D9043C31A09D05A42E25006E0DE
:105A1000211A300000F02EF8431CEED1BAE770BD19
:105A2000B4000020B0000020F8B506000C001500FE
:105A3000002904D11100FFF7A1FF040018E0002A9B
:105A400003D1FFF755FF2C0012E000F025F8854246
:105A50000ED929003000FFF791FF071E07D0210063
:105A60002A00FFF726FF21003000FFF741FF3C002E
:105A70002000F8BD002370B5064C05000800236027
:105A8000FBF706F9431C03D12368002B00D02B60E1
:105A900070BDC046E40000200B1F1A68101F002ACA
:105AA00004DA891804390B68D018043870470000EC
:105AB0002564204D487A0000536572766F20537438
:105AC000657020546573742C20535730000000001B
