:020000040800F2
:1000000000200020C9000008D1000008D500000829
:1000100000000000000000000000000000000000E0
:10002000000000000000000000000000F1000008D7
:100030000000000000000000F5000008F9000008C2
:10004000C5000008C5000008C5000008C50000087C
:10005000C5000008C5000008C5000008C50000086C
:10006000C5000008C5000008C5000008C50000085C
:10007000C5000008C5000008C5000008C50000084C
:10008000C5000008C500000800000000C500000809
:10009000C5000008C5000008C5000008C50000082C
:1000A000C5000008C5000008C5000008C50000081C
:1000B000C500000800000000C500000800000000A6
:1000C0005FF808F100BEFEE710B500F019F8C04671
:1000D00000BEFEE704207146084202D0EFF309801B
:1000E00001E0EFF308807146044A104700BEFEE7C6
:1000F00000BEFEE700BEFEE770470000ED0000080E
:1001000030B583B000F06AFC314B324A1360324A9A
:100110001360324B324A03E0116819600433043231
:1001200030498B42F8D32B4B1A682F4B9A4204D19B
:10013000294B1A682D4B9A4200D0FEE7244B2C4ADB
:1001400013602C4A13602C4B02E000221A60043327
:100150002A4A9342F9D3264B1B68002B03D1254B27
:100160001B68002B00D0FEE700F03CFC694601A8AC
:1001700000F064FC224C234B1C1BA410002504E05F
:10018000AA001F4BD35898470135AC42F8DC1E4CEF
:100190001E4B1C1BA410002504E0AA001A4BD358C8
:1001A00098470135AC42F8DC0099019800F0C6FA96
:1001B0000500174C174B1C1BA41004E0013CA200C7
:1001C000134BD3589847002CF8DC280000F00EFCA5
:1001D000BABADECA0000002084000020000000201F
:1001E000443E000888000020785634123254769835
:1001F00088000020BC00002088000020C0000020F3
:1002000040020008400200084002000840020008C6
:08021000400200084002000852
:10021800443E00080000002088000020443E0008FA
:10022800000000000000000088000020C00000203E
:080238000000000000000000BE
:1002400082B0430018180023019304E0C046C04662
:10025000019B01330193019B9842F7D802B070478C
:1002600070B51420FFF7ECFF0A4CA36980252D021E
:100270002B43A3611420FFF7E3FFA369802212063A
:100280001343A3611420FFF7DBFFA3692B43A36192
:1002900070BDC0460008004810B50400454A936987
:1002A0008021C9010B43936143B2002B07DA9022EE
:1002B000D2059369802109020B43936106E09022E5
:1002C000D2059369802109060B439361630607D524
:1002D0009022D2059369802149010B43936106E086
:1002E0009022D2059369802149050B439361A306AF
:1002F00006D5314A9369802189000B43936105E05B
:100300002D4A9369802189040B439361E30606D546
:10031000294A9369802149000B43936105E0264AED
:100320009369802149040B439361FFF799FF2307E9
:1003300007D59022D2059369802109020B4393616E
:1003400006E09022D2059369802109060B43936150
:10035000630707D59022D2059369802149010B4399
:10036000936106E09022D2059369802149050B43F1
:100370009361A30706D5104A9369802189000B4336
:10038000936105E00C4A9369802189040B439361D2
:10039000E30706D5084A9369802149000B4393611E
:1003A00005E0054A9369802149040B439361FFF7F7
:1003B00057FF10BD000800480004004870B5050054
:1003C000002404E0C0B2FFF767FF0134E4B228570D
:1003D0000028F7D170BDC04610B50400474A9369A4
:1003E0008021C9050B43936143B2002B07DA9022A9
:1003F000D2059369802109020B43936106E09022A4
:10040000D2059369802109060B439361630607D5E2
:100410009022D2059369802149010B43936106E044
:100420009022D2059369802149050B439361A3066D
:1004300006D5334A9369802189000B43936105E017
:100440002F4A9369802189040B439361E30606D503
:100450002B4A9369802149000B43936105E0284AA8
:100460009369802149040B439361FFF7F9FE230749
:1004700007D59022D2059369802109020B4393612D
:1004800006E09022D2059369802109060B4393610F
:10049000630707D59022D2059369802149010B4358
:1004A000936106E09022D2059369802149050B43B0
:1004B0009361A30706D5124A9369802189000B43F3
:1004C000936105E00E4A9369802189040B4393618F
:1004D000E30706D50A4A9369802149000B439361DB
:1004E00005E0074A9369802149040B439361FFF7B4
:1004F000B7FE0448FFF7A4FE10BDC0460008004840
:1005000000040048B80B000010B51B4B5A6980214D
:1005100089020A435A615A698021C9020A435A6111
:100520005A69802109030A435A619022D20513684F
:100530008221C9050B431360104A1368A021C90228
:100540000B4313600E4A1368A021C9050B431360C7
:100550000C48FFF775FE3320FFF73EFF3220FFF710
:100560003BFF0C20FFF738FF2820FFF735FF012065
:10057000FFF732FF10BDC0460010024000040048E3
:100580000008004830750000F0B58BB00121C02094
:10059000C00200F0F9FC08A90F23089300240C7195
:1005A00001254D718C71CD719026F605300000F05B
:1005B000C1FB04A92023049303270F714D718C7193
:1005C000CC71300000F0B6FB02A9402302930F71FA
:1005D0004D718C71CD71300000F0ACFB06A9FF238A
:1005E00006930D714D718C71CC710E4D280000F089
:1005F000A1FBC0231B01009302236A46137194716F
:100600005771D4716946280000F094FB02220A2138
:10061000280000F06FFC02220B21280000F06AFC89
:100620000BB0F0BD0004004810B588B001210120D6
:1006300000F0FAFC8024E405200000F06DFD05A91F
:1006400000234B800B81114B4B6002230B80002356
:100650008B72200000F00CFE14220021684602F08C
:10066000EBFE60236A461380094B029301235380FB
:100670006946200000F0CEFE6946200000F07EFFB3
:100680000121200000F07AFE08B010BD64BD00001A
:100690000C62000010B586B001218020800000F0BF
:1006A0009BFC194C200000F0D5F9684600F05AFA7E
:1006B00000230093012269460A7103930493059372
:1006C000200000F0E3F905222021200000F072FA5A
:1006D00005224021200000F06DFA0221200000F0E8
:1006E000C9FA0121200000F0A1FA0121200000F048
:1006F00041FA0121044800F0D5FA0028F9D0024857
:1007000000F080FA06B010BD0024014010B50121B0
:10071000012000F039FC054B02225A60044A9A601D
:10072000044ADA60044A1A6010BDC046080002405C
:1007300040240140A0000020A1350000F8B5FFF7DB
:10074000E3FEFFF721FF2C48FFF738FE9020C0059D
:1007500000F07CFBC307F9D4FF21284800F0A0FB80
:100760000120FFF739FEFFF75FFFFFF793FFFFF769
:10077000CDFF0220FFF730FE214E3388214F3B6032
:10078000214C224A2260224D2249280002F05CFEC0
:100790002800FFF713FE21688020C00500F072FFDB
:1007A000C020FFF719FE7088386002F093FC002229
:1007B000194B01F075FB0022184B01F087FE002257
:1007C000174B01F041F8174A174B01F07FFE00224A
:1007D000164B01F07BFE01F019F80200206014496D
:1007E000280002F031FE2800FFF7E8FD2168802094
:1007F000C00500F063FFBCE7A43C0008000400480B
:10080000A00000208C000020B4000020C86400007C
:10081000A4000020B43C000800FEAF4000000440EB
:100820000000E03F10A3F1BE421FD53F80ACE7407F
:10083000C03C000882B0002301930093264A13684D
:10084000802149020B431360234B1A6880239B02CB
:1008500013400093019B01330193009B002B04D1B3
:10086000019AA023DB019A42EED11B4B1B689B032C
:1008700002D50123009301E000230093009B012B8C
:1008800028D11122154B1A60134B5A685A605A68C6
:100890005A605968124A0A405A605A6888214903C6
:1008A0000A435A601A68802149040A431A600A4BB5
:1008B0001B689B01FBD5084B5A6803218A435A6089
:1008C000596802220A435A60034B5B680C221340AA
:1008D000082BF9D102B070470010024000200240FE
:1008E000FF7FC0FF10B5124B1A6801210A431A603E
:1008F0005868104A02405A6018680F4A02401A604D
:1009000018680E4A02401A6058680D4A02405A6040
:10091000DA6A0F208243DA62186B0A4A02401A63CD
:100920005A6B8A435A6300229A60FFF783FF10BD17
:10093000001002400CB8FF08FFFFF6FEFFFFFBFFB0
:10094000FFFFC0FFACFEFFFF10B51F4B5B680C2222
:100950001340042B07D0082B09D0002B23D11B4AAE
:100960001B4B1A6022E0194A194B1A601EE0164B05
:100970005C685A68C0235B02A40C0F200440023458
:100980001A4204D113484443114B1C600EE00E4B35
:10099000DB6A0F21194001310C4800F0ABFE4443E3
:1009A0000B4B1C6002E0094A094B1A60064B5B685E
:1009B0001B090F221340084AD35CDBB2044A1168BA
:1009C000D940116010BDC0460010024000127A00EC
:1009D0001400002000093D000400002010B5FFF7BE
:1009E00081FF10BD10B5FFF7AFFF10BDFEE7C04699
:1009F00010B50120FFF7FAFF10B503000C4A12688A
:100A0000002A02D10B490A4A1160094A10680333CF
:100A100003229343C318084A934206D902F006FD05
:100A20000C2303600120404201E0014A136010BD25
:100A300090000020C0000020001C00200123036063
:100A4000014B0B607047C0461800002010B5FFF73F
:100A5000CFFFC04610B504000A4B984203D0852151
:100A60000948FFF7F3FF074B9C4209D18024A400FB
:100A70000121200000F000FB0021200000F0FCFA22
:100A800010BDC04600240140CC3C000870B50500F4
:100A90000C00314B984203D0A1213048FFF7D6FF1C
:100AA0002368002B09D0082B07D0102B05D0182B5A
:100AB00003D0A2212948FFF7C9FF2379012B03D9CD
:100AC000A3212648FFF7C2FFA368002B0FD0802286
:100AD000D20093420BD080221201934207D0C02251
:100AE0001201934203D0A4211C48FFF7AFFFE36833
:100AF000002B0DD0402B0BD0802B09D0C02B07D062
:100B000080225200934203D0A5211448FFF79EFF94
:100B10002369002B05D0202B03D0A6210F48FFF717
:100B200095FF6369002B05D0042B03D0A7210B4848
:100B3000FFF78CFFE9680A4B1940227952032368BA
:100B40001A43A3681343E26813432269134362699B
:100B500013430B43EB6070BD00240140CC3C000804
:100B600003D2FFFF0023036003718360C36003614E
:100B70004361704770B504000D000C4B984203D0E0
:100B8000E9210B48FFF762FF012D03D9EA2108484C
:100B9000FFF75CFF002D04D0A26801231343A3607C
:100BA00003E0A26802231343A36070BD0024014048
:100BB000CC3C000870B504000D0016000D4B9842A7
:100BC00003D00D490D48FFF741FF002D01D0EB0C7C
:100BD00004D0B42189000948FFF738FF072E03D954
:100BE00007490648FFF732FFA16A2943A1626661FF
:100BF00070BDC04600240140CF020000CC3C00087C
:100C0000D102000010B50400054B984203D00549FD
:100C10000548FFF71BFFA26804231343A36010BD20
:100C2000002401406F030000CC3C000870B50400B4
:100C30000D000D4B984204D0EA2189000B48FFF7C4
:100C400005FF012D03D90A490848FFF7FFFE002DD3
:100C500004D0E26801231343E36003E0E368012268
:100C60009343E36070BDC04600240140CC3C0008C3
:100C7000A903000070B504000D00074B984203D093
:100C800006490748FFF7E2FEE36802229343E36068
:100C9000E3681D43E56070BD00240140C30300000C
:100CA000CC3C000870B505000C001A4B984203D0EC
:100CB00019491A48FFF7CAFE631E012B1CD9042CE0
:100CC0001AD0082C18D0802C16D0102C14D0144B0D
:100CD0009C4211D0134B9C420ED0134B9C420BD024
:100CE000124B9C4208D081231B069C4204D08B21CE
:100CF000C9000A48FFF7AAFEE30103D5AA680C4B16
:100D0000134000E02B681C4201D0012000E00020CD
:100D100070BDC0460024014057040000CC3C0008D0
:100D200001000001020000010400000110000001A8
:100D3000FFFFFFFE70B505000E009023DB05984213
:100D400012D03C4B98420FD03B4B98420CD03B4BBF
:100D5000984209D03A4B984206D03A4B984203D079
:100D6000B4213948FFF772FE3368002B03D1B52157
:100D70003548FFF76BFE3379032B03D9B621324890
:100D8000FFF764FEF379022B03D9B7212E48FFF752
:100D90005DFE00244AE00123A34032681A409342DA
:100DA00043D13379013BDBB2012B27D87379012B77
:100DB00005D9032B03D0C7212348FFF747FEAB68B3
:100DC000610003228A409343AB60AA6873798B4029
:100DD0001343AB60B379012B03D9CE211A48FFF737
:100DE00035FEAB882104090C01228A409343AB8075
:100DF000A888B2798A4093B20343AB802B68610024
:100E000003221000884083432B60286833798B408D
:100E100003432B60EB682004C00B82409343EB60DC
:100E2000EA68F3798B401343EB6001340F2CB2D99D
:100E300070BDC0460004004800080048000C00488F
:100E40000010004800140048FC3C000810B50400E5
:100E50009023DB05984213D00B4B984210D00B4BDC
:100E600098420DD00A4B98420AD00A4B984207D0BC
:100E7000094B984204D0A72149000848FFF7E6FD36
:100E8000208A80B210BDC046000400480008004817
:100E9000000C00480010004800140048FC3C00080A
:100EA00070B504000D009023DB05984213D00B4B66
:100EB000984210D00A4B98420DD00A4B98420AD063
:100EC000094B984207D0094B984204D0D821FF31F2
:100ED0000748FFF7BBFDA58270BDC046000400486F
:100EE00000080048000C00480010004800140048AA
:100EF000FC3C000870B505000C0016009023DB05D3
:100F0000984212D0174B98420FD0174B98420CD0F2
:100F1000164B984209D0164B984206D0154B984272
:100F200003D015491548FFF791FD0F2C03D914493B
:100F30001248FFF78BFD072E03D912490F48FFF720
:100F400085FD072323409B009E40E40821000831D3
:100F500089004A590F20984082434A514B591E43F9
:100F60004E5170BD0004004800080048000C0048C5
:100F700000100048001400480D020000FC3C00086E
:100F80000E0200000F02000070B504000D000D4BB2
:100F9000184201D1002803D10B490C48FFF756FD38
:100FA000012D03D90A490948FFF750FD002D04D04F
:100FB000084A53691C43546103E0064A5369A3433A
:100FC000536170BDAAFF81FE36050000303D000868
:100FD000370500000010024070B504000D000D4BF5
:100FE000184201D1002803D10B490C48FFF72EFD10
:100FF000012D03D90A490948FFF728FD002D04D027
:10100000084A93691C43946103E0064A9369A34329
:10101000936170BDFEA5B8FF5A050000303D000881
:101020005B0500000010024070B504000D000E4B7F
:10103000184201D1002803D10C490D48FFF706FDE5
:10104000012D04D9B121C9000948FFF7FFFC002D8B
:1010500004D0084AD3691C43D46103E0054AD3692C
:10106000A343D36170BDC046CCB61185870500008F
:10107000303D00080010024070B504000D000E4B1A
:10108000184201D1002803D10C490D48FFF7DEFCBE
:10109000012D04D9B921C9000948FFF7D7FC002D5B
:1010A00004D0084AD3681C43D46003E0054AD368DF
:1010B000A343D36070BDC046FEA5B8FFC7050000BE
:1010C000303D00080010024070B504000D000D4BCB
:1010D000184201D1002803D10B490C48FFF7B6FC98
:1010E000012D03D90A490948FFF7B0FC002D04D0AF
:1010F000084A13691C43146103E0064A1369A343B9
:10110000136170BDCCB61185F1050000303D0008BB
:10111000F20500000010024010B504004B4B98424D
:101120001CD08023DB05984218D0494B984215D03B
:10113000484B984212D0484B98420FD0474B9842A8
:101140000CD0474B984209D0464B984206D0464BAC
:10115000984203D0C5214548FFF778FC3B4B9C42A1
:101160000AD18024240101212000FFF785FF0021FE
:101170002000FFF781FF67E08023DB059C4208D158
:1011800001210120FFF7A0FF00210120FFF79CFFB4
:101190005AE02F4B9C4208D101210220FFF794FF17
:1011A00000210220FFF790FF4EE02A4B9C4208D11D
:1011B00001211020FFF788FF00211020FFF784FF96
:1011C00042E0254B9C4208D101212020FFF77CFF03
:1011D00000212020FFF778FF36E0204B9C420AD107
:1011E0008024640001212000FFF76EFF0021200011
:1011F000FFF76AFF28E01A4B9C420AD18024640260
:1012000001212000FFF738FF00212000FFF734FF05
:101210001AE0144B9C420AD18024A4020121200030
:10122000FFF72AFF00212000FFF726FF0CE00E4BFE
:101230009C4209D18024E40201212000FFF71CFF19
:1012400000212000FFF718FF10BDC046002C014010
:101250000004004000100040001400400020004046
:10126000004001400044014000480140603D00084A
:1012700070B504000D00374B98421DD08023DB056C
:10128000984219D0344B984216D0344B984213D020
:10129000334B984210D0334B98420DD0324B98428A
:1012A0000AD0324B984207D0314B984204D0862165
:1012B00049003048FFF7CAFB6B88002B0CD0102B7D
:1012C0000AD0202B08D0402B06D0602B04D00E2152
:1012D000FF312848FFF7BAFB2B89002B0CD0802266
:1012E0005200934208D00132FF32934204D087214A
:1012F00049002048FFF7AAFB23889BB2154A944275
:1013000006D08022D205944202D0134A944203D1DF
:10131000702293436A881343104A944204D0164AB9
:1013200013402A8913439BB223806B68E3622B88A6
:101330002385084B9C4208D00B4B9C4205D00B4B9D
:101340009C4202D00A4B9C4201D1AB7A23860123F6
:10135000A38270BD002C014000040040001000403A
:1013600000140040002000400040014000440140C3
:1013700000480140603D0008FFFCFFFF70B504001D
:101380000D001A4B98421DD08023DB05984219D0DE
:10139000174B984216D0174B984213D0164B9842D1
:1013A00010D0164B98420DD0154B98420AD0154BD1
:1013B000984207D0144B984204D0972189001348D3
:1013C000FFF744FB012D03D911491048FFF73EFBFD
:1013D000002D05D02288012313439BB2238003E014
:1013E000238801229343238070BDC046002C014016
:1013F00000040040001000400014004000200040A5
:10140000004001400044014000480140603D0008A8
:101410005D020000F0B5474680B404000E00494B61
:1014200098420BD08023DB05984207D0464B984268
:1014300004D0EF2189004548FFF708FB3388002BD3
:101440000DD0102B0BD0202B09D0302B07D0602BC8
:1014500005D0702B03D03E493C48FFF7F7FA73885C
:10146000012B03D93B493948FFF7F0FAB389002B28
:1014700005D0022B03D038493448FFF7E7FA228C15
:10148000364B13402384258CA788BFB2A28B7323CD
:101490009A4333881A439046314B1D40B289120259
:1014A00092B22B00134375882D02ADB21D43254B1C
:1014B0009C423ED1B388002B05D0042B03D0294990
:1014C0002248FFF7C3FAF389002B06D0082B04D07B
:1014D000F72189001D48FFF7B9FA738A802292002C
:1014E000934205D0002B03D01F491848FFF7AEFAEE
:1014F000338A80225200934205D0002B03D01B492F
:101500001248FFF7A3FA1A4B1D40F3891B029BB246
:101510001D43184B1D40B3881B029BB21D43164B45
:101520001F40338A1B019BB21F43738A1B019BB26E
:101530001F43A7804346A383B368E363258404BCA9
:101540009046F0BD002C014000040040603D0008C2
:10155000BD030000BE030000BF030000FFFEFFFF4D
:10156000FFFDFFFFDB030000DD030000DE030000E2
:10157000FFF7FFFFFFFBFFFFFFCFFFFFF0B5474681
:1015800080B404000D00344B98420AD08023DB0560
:10159000984206D0314B984203D031493148FFF789
:1015A00055FA2B88002B0DD0102B0BD0202B09D0F7
:1015B000302B07D0602B05D0702B03D02A49294847
:1015C000FFF744FA6B88012B03D928492548FFF718
:1015D0003DFAAB89002B06D0022B04D08221C90032
:1015E0002048FFF733FA228C214B13402384268CAA
:1015F000A3889BB29846A78B1E4A17402A881202DE
:1016000092B217431C4B1E40AA89120392B23300B8
:1016100013436E883603B6B21E430F4B9C4212D161
:101620002B8A80225200934205D0002B03D013490D
:101630000C48FFF70BFA124B42461A402B8A9B01CB
:101640009BB21A4390464346A380A783AB682364AA
:10165000268404BC9046F0BD002C014000040040EC
:101660000D040000603D00080E0400000F0400009F
:10167000FFEFFFFFFF8CFFFFFFDFFFFF2D040000E8
:10168000FFBFFFFF70B504000D00084B98420AD061
:101690008023DB05984206D0054B984203D00549CC
:1016A0000548FFF7D3F9E56370BDC046002C014043
:1016B00000040040C6040000603D000870B504004E
:1016C0000D00084B98420AD08023DB05984206D0D3
:1016D000054B984203D005490548FFF7B7F9256443
:1016E00070BDC046002C014000040040D60400003C
:1016F000603D0008002243088B4274D303098B42EB
:101700005FD3030A8B4244D3030B8B4228D3030CD1
:101710008B420DD3FF22090212BA030C8B4202D373
:101720001212090265D0030B8B4219D300E0090A9B
:10173000C30B8B4201D3CB03C01A5241830B8B42A4
:1017400001D38B03C01A5241430B8B4201D34B038D
:10175000C01A5241030B8B4201D30B03C01A5241F2
:10176000C30A8B4201D3CB02C01A5241830A8B4277
:1017700001D38B02C01A5241430A8B4201D34B0260
:10178000C01A5241030A8B4201D30B02C01A5241C4
:10179000CDD2C3098B4201D3CB01C01A5241830978
:1017A0008B4201D38B01C01A524143098B4201D3B2
:1017B0004B01C01A524103098B4201D30B01C01ADD
:1017C0005241C3088B4201D3CB00C01A5241830857
:1017D0008B4201D38B00C01A524143088B4201D384
:1017E0004B00C01A5241411A00D2014652411046E4
:1017F0007047FFE701B5002000F006F802BDC046C3
:101800000029F7D076E770477047C04670B50022D0
:101810000C4B04000D0001F0D3FC002804D1200083
:10182000290001F021FC70BD064B00222000290098
:1018300001F0C6F801F018FC80231B069C466044AA
:10184000F1E7C0460000E041F8B556465F464D4618
:101850004446F0B40F00FD0FAA4609037C002E0099
:101860005F00450F490A7F0D2943C5001803BC4698
:10187000400A570F640DDB0F3843D2009A4500D160
:10188000AAE06646A61B002E00DCFFE06346002BA4
:1018900039D10300134300D0D9E06B0709D00F23DF
:1018A0002B40042B05D02B1DAB42AD416D42491995
:1018B0001D000B0200D482E0CA4B01349C4200D1CF
:1018C000FEE00A005646C84BED081A405007640572
:1018D00052020543120B640D002112030B0D1B0570
:1018E0006405120B1A436308C04CF60714401C43EE
:1018F000640064083443280021003CBC90469946AB
:10190000A246AB46F8BDB74B9C42C6D080231B0411
:101910001843382E00DDEBE01F2E00DD1EE12023F2
:101920009B1B9C4603006746BB40984613004746F6
:10193000F3403B436746BA40571EBA411343020087
:10194000F240EB1A9D42B6411D008A1A7642911B65
:101950000B0231D54A02560A002E00D1B4E0300005
:1019600001F038FC0300083B1F2B00DDB5E020220E
:101970002900D21AD1409E400A009D4032439C4229
:1019800000DDB1E01C1B631C1F2B00DDD5E0202116
:1019900014002800C91A8C40D8408D400443DA4016
:1019A000681E854111002543002476E741463143F6
:1019B00000D134E2310045466B0700D06FE7564650
:1019C0004807ED08C9080543864B9C4235D00A03F9
:1019D0006405120B640D7FE76346E31A9B46002BF8
:1019E00000DC8BE06746002F3CD07E4FBC4200D12C
:1019F00053E780273F0438435B46382B00DCF7E091
:101A00000243501E82410020D2B253194218AB4209
:101A100089411D00494289180B02CDD5714B013413
:101A20009C4200D13DE101206F4A6B080A402840EA
:101A30001843D507054351082FE72B000B4300D16E
:101A4000CBE180231B030B431A03120B44E7013E37
:101A5000002E6DD1AE1AB5429B41091A5B42C91ADC
:101A6000350075E70700174300D116E701235B42F5
:101A70009C46E3445B46002B00D0E0E0AA18AA4253
:101A80009B4109185B4259181500C5E7002E75D116
:101A9000661C7605760D012E00DCF3E0AE1AB0462A
:101AA0004545BF410E1A7F42F61B370200D48FE036
:101AB000551BAA42B641411A76428E1B9A464BE705
:101AC00056460022002507E7280001F083FB20305E
:101AD0000300083B1F2B00DC49E72A00283882401E
:101AE00000259C4200DC4DE73F49E41A1140D4E652
:101AF0000243501E8241D3B2002222E7002B00D0C5
:101B0000F3E0631C9C465B055B0D012B00DC9FE052
:101B1000344B9C4500D1C3E0AA180918AA42804161
:101B200040424118CD075208154349086446B4E6BF
:101B30002C4B9C4200D0ECE6AFE611001F3CE1408C
:101B40000C00202B00D17FE04021CB1A9A40154396
:101B50006A1E95410021254300242DE7330007002C
:101B6000203BDF403B00202E70D04027BE1BB04002
:101B70000243501E824113430022E2E6002C4FD064
:101B8000184CA44500D1ABE08024240476422143C4
:101B9000382E00DDDFE01F2E00DD43E12027BC1BD7
:101BA000A1460C004F46BC40A0462C004746F440DE
:101BB0003C434F46BD406F1EBD41F1402C43151BB9
:101BC000AA429241411A5242891A64469A46BFE695
:101BD00041464546314300D0BEE60026002400259C
:101BE000F2E6C046FF070000FFFF7FFFFFFF0F8008
:101BF0001F2B59DC2027FF1ABC46070063469F4075
:101C00005B46B9461700DF40B8464F4643461F4380
:101C100063469A40531E9A415B463A43D840F4E6E5
:101C20000C002C435CD0F643002E55D1551BAA4224
:101C3000A441411A6442091B9A46644688E6964FBD
:101C4000BC4200D0D8E628E6002280E700208FE7DB
:101C50000B002B43002C00D0C2E0002B00D101E18F
:101C60000300134300D118E6AB18AB42B641091884
:101C7000764271180A0200D409E1884A1D00114019
:101C800064460AE6002C5BD10E002E4300D08AE0A9
:101C90000100114300D1C2E0010015009A46FCE5A5
:101CA0006446002100258FE620235B429C46DC44ED
:101CB00063460700DF405B46BC46202B00D1ACE00A
:101CC00040235F46DB1B98400243501E824163461F
:101CD00013431A00002098E66F4CA44500D057E744
:101CE0000100150064469A46D7E5002C39D10C0056
:101CF0002C436ED0DB43002B1AD0674CA44568D030
:101D0000382B00DDA4E01F2B00DDAEE020240F0007
:101D1000E41AA740B9462F00DF40B846A3464F4615
:101D2000444627435C46A5406C1EA541D9403D432F
:101D3000AD1895429B4109185B42591864466BE601
:101D40000C002C4315D1010011437BD0010015007C
:101D50009A46514CA1E50D43691E8D410021ECB21C
:101D60002DE74D4CA44534D0802424045B4221430C
:101D7000C6E7040014434ED0ED084C072C438025E1
:101D8000C9082D03294208D0C6082E4205D1D20821
:101D9000410711430C009A463100620FC900E5006B
:101DA00011433D4C79E50600164300D175E5AE1AA6
:101DB000B0464545BF410E1A7F42F61B370200D49C
:101DC000F4E5551BAA42B641411A7642891B9A4650
:101DD00063E50100150064465FE5002200257BE510
:101DE000002B3BD00300134315D0ED084B072B43CA
:101DF0008025C9082D03294207D0C4082C4204D1EC
:101E000041070B002100D2081343C9005A0F1143A8
:101E1000DD00214C41E5204C3FE5002054E7002641
:101E20000025D1E534000F00203CE7403C00202E87
:101E30002BD04027BE1BB1400D43691E8D410021B0
:101E40002C43BCE6802100260903134C0025BBE58A
:101E50000D43691E8D410021EDB269E701001500B7
:101E60000D4C1AE50100150017E51C000F00203C81
:101E7000E7403C00202B0CD04027FB1A99400D4333
:101E8000691E8D410021254352E70021D4E71D0042
:101E900092E50021F3E7C046FF070000FFFF7FFF48
:101EA000F0B556464D4644465F46F0B41D000E035D
:101EB0004C00CB0F87B0070092468146360B640D6D
:101EC00098466AD06D4B9C4235D08022430F120455
:101ED0001343F6001E43C3009946694B00279C46F6
:101EE0000023644402932B0368001B0BED0F514643
:101EF0009B46400D009500D178E0604B98426CD035
:101F00005B46DA004B0F802109040B4313439B46C9
:101F10005346D9005A4B9C46002360444246201A3F
:101F20006A40924601901F430F2F00D9B0E05548F8
:101F3000BF00C0598746374300D088E00023994648
:101F40000233082700260293CDE74346B3464946AD
:101F50000093029B009A9246022B00D0BFE1002121
:101F600053460122002689461A40444B002136037D
:101F70000C0D2405360B2643434C1B0526401E43FF
:101F80007600D207760816434846310007B03CBCBD
:101F900090469946A246AB46F0BD330003434FD06E
:101FA000002E00D1BCE1300001F014F903000B3B1E
:101FB0001C2B00DDADE11D220100D31A08393A00C7
:101FC0008F408E40DA40B9461643304B00279C467E
:101FD000002360444442029385E753465A46134324
:101FE0002CD1002300219B46023397E70B4320D0DE
:101FF0005B46002B00D19EE1584601F0EBF8030050
:102000000B3B1C2B00DD8FE102005946083A914042
:102010008B461D21CB1A5146D9400B0059460B4324
:1020200051469B469140194B9C46604440420023D8
:1020300074E7002300219B4601336FE703236DE71C
:102040000023994601330427002602934BE703231C
:102050000C27029347E70122D51A382D00DCB0E1A6
:1020600053461A4000210023002689467EE70023BC
:102070008026994600223603004B77E7FF070000D1
:1020800001FCFFFF903D0008FFFF0F80F3030000FD
:102090005E4500D972E100D16DE1019B4D46013BE7
:1020A00001930023340002935B461E020B0E1E4375
:1020B0000B020393330C994633041B0C4946200052
:1020C0000093FFF717FB009B370043430600494688
:1020D00020009846FFF794FB2C0C09040C43A04504
:1020E00009D9E419731EA74200D95CE1A04500D8C4
:1020F00059E1023EE4194346E41A49462000FFF73D
:10210000F9FA0300009A80465343494620009B4653
:10211000FFF776FB2A040904120C0A4393450DD9F4
:102120004346D219013B974200D93AE1934500D882
:1021300037E102235B429C46D219E0445B46D21A47
:102140004346360433439B460399180C0B0C1D0081
:10215000059309045B46090C0C001B041B0C44434B
:10216000049159436B4368431B190D0CEB189C42B7
:1021700003D980246402A44660441C0C09041B0497
:10218000090C20185D18824200D2DEE000D1D7E0B1
:10219000161A029B9C465D1BAC459B415B42F61A9E
:1021A000B74200D106E149463000FFF7A3FA009B91
:1021B00004004343494630009846FFF721FB2E0CAC
:1021C00009040E43B04509D9F619631EB74200D978
:1021D000F3E0B04500D8F0E0023CF6194346F31AAC
:1021E000494618000293FFF785FA009B0600434317
:1021F000494602989846FFF703FB2D0409042D0C6D
:102200000D43A84509D9ED19731EAF4200D9D6E098
:10221000A84500D8D3E0023EED192404210043462E
:102220003143049E059A3000ED1A0B040C0C1B0C74
:1022300058436643534354439A19030C9B189E42D8
:1022400003D980225202944664441A0C00041B04F1
:10225000000C14191B18A54250D34DD0012319436B
:10226000964A019B94466344002B00DCF3E64A0740
:1022700009D00F220A40042A05D00A1D8A4289414A
:1022800049428B4411005A46D20108D55A468C4B1C
:102290001A4093468022D2009446019B6344894AA7
:1022A000934200DD5BE65A46C908500708435602D0
:1022B000514601225B058146360B5B0D0A4055E60F
:1022C00080231B031E4211D05A461A420ED15E468D
:1022D0001E433603360B2A0089467B4B46E6032B0A
:1022E00000D1E1E0012BBBD11A40BBE61E4336030F
:1022F000360B4246744B39E6002BB1D07D194A1E8D
:10230000AF4252D91100A542A8D1039A9A42A5D151
:10231000A6E703003E00283B9E400023994654E672
:1023200000F058FF203041E603005246283B9A4017
:102330000021934677E6504600F04CFF20305EE6E1
:10234000029B0026AB4200D323E7039E0299B446CA
:1023500061448846B045B6415B467642F619B218EC
:10236000013B0291974213D290424FD800D18EE0A8
:10237000161A9B460DE7894500D28EE674084B4637
:10238000F60735005B081D434B46DB0702938BE6DF
:102390009742EDD10399029CA142E5D93E1A9B4692
:1023A000F7E69846CAE61E00A5E6AC423ED874D0D1
:1023B000110053E70121494252E71C000EE71E00BD
:1023C0002BE71F2D3CDC20230A0058465B1B98405E
:1023D000EA4099400243481E81415E461143EE4067
:1023E0004B0709D00F230B40042B05D00B00191D00
:1023F00099429B415B42F61833023CD55346012279
:1024000000211A40002601238946AFE502235B42E2
:102410009C46039CE344A446029B63449846A04523
:10242000B6417642F6190293B218B1E603988A1EB5
:1024300041008142B6417642F619AD19039161E738
:102440001F225242D31A5A46DA401300202D29D0B7
:1024500040225846551BA8400143481E8141072091
:102460000B4318400026002809D00F2200261A40EE
:102470001900042ABBD10B0070077602360BDB086B
:1024800003439946012253461A4000236EE5029900
:102490008D42BBD89B4600267BE603989842C5D365
:1024A000110032E70020D7E780265B4636031E4343
:1024B0003603360B009A8946034B57E5FF030000AD
:1024C000FFFFFFFEFE070000FF070000F0B55F46BC
:1024D00056464D464446F0B40D0399464E002B0B2C
:1024E00087B00700924680469B46760DCC0F002EA3
:1024F00069D06D4B9E4235D05B468022DD001204D0
:10250000430F13432B439B46C3009846674B00275A
:102510009C460023664401934A4615035000D20F9F
:1025200053462D0B400D914600D176E05E4A904215
:102530006CD080225B0F120413435C4AED0094467A
:102540001D4353460022DB00604449463618701C88
:102550006140029017430F2F00D9AFE05448BF00ED
:10256000C759BF465B461F4300D088E000239B4607
:102570009846023308270193CEE74946022A6AD0DB
:10258000032A00D109E2012A00D0BBE11140002258
:10259000002300259046CCB200212D030A0D120520
:1025A0002D0B1543434A1B0515401D436D00E407E1
:1025B0006D0825434046290007B03CBC904699462B
:1025C000A246AB46F0BD034352D05B46002B00D180
:1025D0008AE1584600F0FEFD03000B3B1C2B00DD9A
:1025E0007BE11D22D31A3A0001005D46DA4008392A
:1025F0008D4013008F402B439B46B8462E4B00273F
:102600009C46002360444642019385E752462A4394
:102610002CD100250023022297E752462A4321D0DD
:10262000002D00D154E1280000F0D4FD03000B3B45
:102630001C2B00DD46E11D21CB1A51460200D9407A
:102640005346083A954093400D431B4A94466044D4
:102650004042002279E7012400220C40124B002561
:10266000904699E70025002301226EE703226CE7DC
:1026700000239B4698460133042701934CE703232C
:102680000C27019348E700238025984600242D035A
:10269000054B81E75D464346019A6FE75D46434639
:1026A0002100019A6AE7C046FF07000001FCFFFF16
:1026B000D03D0008FFFF0F80F30300004246120CDC
:1026C00091461A0C9446424617044A461B041B0CBA
:1026D0005A43604690464A4642431000039262467F
:1026E0001C003F0C7A437C4342440192220C9246E8
:1026F000019A5244904506D9824680204002804685
:10270000C24450460390100C049048462404240C04
:102710001204121905922A0C2D042D0C68432C006A
:10272000824648467C4350438146200C80465743AE
:1027300057444744BA4503D9802040028046C144EB
:10274000380C3F04B84648442404240C01900498F3
:10275000A044404404905846000C81465846040466
:10276000200C8246070048465F434C464343604680
:1027700060436446834650464443380C8446E4181C
:102780006444A34203D980235B029C46E344484649
:102790003F04230C3F0C2404E419574668436F435D
:1027A00084464D46504655434243380C8146624468
:1027B0004A445B44944503D98020400284466544E2
:1027C00003983F04834604983F0C8446E344C34582
:1027D0008041404282461004844601986744844602
:1027E0006744A344BC46A345A4419946D4446442EB
:1027F0008742BF41D4458041E144A04699459B4171
:102800007F424042C8440743120CBA18A045A44175
:102810005F423B0064422343D71843467D19DB0DDA
:102820006D021D435B465A02059B1A43531E9A4193
:102830005B46DB0D1A4343465B021343EA0107D5AF
:1028400001225C0813402343EA07029E13436D08EC
:10285000574AB218002A4BDD580709D00F201840FC
:10286000042805D0181D98429B415B42ED180300D7
:10287000E80104D54F4A15408022D200B2184E48D4
:10288000824200DDE7E60124DB08680718436D0299
:10289000530580462D0B5B0D0C407DE6802259468A
:1028A0001203114208D0154206D115432D03984654
:1028B0002D0B4C46414B6FE65D4615432D032D0B0A
:1028C0003E4B69E603005546283B9D400023BCE68D
:1028D000504600F07FFC2030A8E60300283B9F40D4
:1028E0000023BB46984689E600F074FC203073E66E
:1028F0000124A61A382E07DD00220C4000230025F3
:10290000904649E6029EA3E71F2E20DC20222C00E1
:102910001800921BF040944093400443581E83419A
:102920001C43F540630709D00F232340042B05D037
:1029300023001C1D9C4292415242AD182B021FD510
:10294000012400220C4001230025904624E61F208C
:102950002C004042821AD440202E1CD04022961BCC
:10296000B5402B43581E83410720234318400025C0
:10297000002809D00F2200251A401C00042AD8D1B3
:10298000230068076D022D0B0124DB0803439846E2
:102990000C40002300E60025E3E780220124120317
:1029A00015432D0398462D0B0C40044BF4E5C0460F
:1029B000FF030000FFFFFFFEFE070000FF0700000F
:1029C000F0B557464E464546E0B40E001100F20FF2
:1029D0009246C500420F180337037400400A4E0F99
:1029E0007F0A3043CF4E17435A00640D520DDB0F60
:1029F000C900B24200D1E5E001267340A61AB446F0
:102A0000534500D1AFE0002E00DC0DE1002A3AD1A1
:102A100003000B4300D0E4E06B0709D00F232B40E9
:102A2000042B05D02B1DAB42AD416D427F191D001B
:102A30003B0200D488E0BB4B01349C4200D110E142
:102A40003A00B94B51461A4001235007ED08520293
:102A500064050543120B640D0B400021280012038E
:102A60000D0D120B64052D0515436208AF4CDB07F5
:102A70002C401443640064081C4321001CBC904695
:102A80009946A246F0BDA74B9C42C5D080231B04AB
:102A900018436346382B00DDFDE01F2B00DD30E1DD
:102AA000624620239B1A02009A40664690460A001E
:102AB0009940F24046464B1E9941324311436346CA
:102AC0000200DA40691A8D429B410D00BA1A5B423E
:102AD000D71A3B0235D57A02530A98464346002B53
:102AE00000D1C4E0404600F075FB0300083B1F2BFB
:102AF00000DDC5E020222900D21A4746D1409F4080
:102B00000A009D403A439C4200DDC0E01C1B631C50
:102B10001F2B00DDE4E0202114002800C91AD84052
:102B20008C408D400443DA40681E854117002543E0
:102B3000002471E7424663461A4300D14CE26746DF
:102B400045466B0700D069E7012351467807ED0839
:102B5000FA080B40054373498C4238D012036405D0
:102B6000120B640D79E7002E00DC9AE0002A47D0B2
:102B70006C4A944200D14FE780221204104362460F
:102B8000382A00DC08E10143481E81410022C9B215
:102B90004919D219A942BF410D007F42BF183A021C
:102BA00000D442E15F4A0134944200D14EE1012059
:102BB0005D4A69083A4028400843D507054357084D
:102BC0009A4629E706000E4300D017E714E72900CC
:102BD000114300D1F9E1802109030A431203120BCA
:102BE0003BE701235B429846C4446346002B72D105
:102BF000691A8D429B413F1A5B42FF1A0D0068E73C
:102C000002000A4300D107E7012252429046C44421
:102C10006246002A00D0E6E06918A942B6413F1892
:102C20007642F7190D00BAE7002E00D080E0621C52
:102C30005205520D012A00DCF9E06A1A91464D4511
:102C4000B6413A1A7642921B9046120200D499E09D
:102C50004D1BA9428941C71B49427A1A90469A46A0
:102C60003CE752460123002513400022F5E62800E8
:102C700000F0B0FA20300300083B1F2B00DC39E7DE
:102C80002A002838824000259C4200DC3EE7264F7F
:102C9000E41A1740C0E60143481E81410022C9B230
:102CA00010E7002E00D0F1E0621C94465205520D50
:102CB000012A00DCA0E01B4A944500D1C5E0691858
:102CC000A94292413F185242D2194908D5070D43F3
:102CD00057086446A0E6134B9C4200D0D9E69BE619
:102CE00011001F3CE1400C00202B00D180E040216E
:102CF000CB1A9A4015436A1E9541002725430024AC
:102D00001FE763460200203BDA406346202B71D068
:102D1000402366469B1B98400143481E8141114356
:102D20000022CFE6FF070000FFFF7FFFFFFF0F80BD
:102D3000002C48D0CA4CA24200D1A2E07442A14665
:102D40008024240427434C46382C00DDDBE01F2C74
:102D500000DD44E14E462024A41B3E00A640A246CE
:102D6000B0464C462E00E640B446464664462643EE
:102D70005446A5406C1EA54134002C434D46EF40FF
:102D80000D1B28E04A4643464D461A4300D0A5E6AF
:102D9000002300240025DEE61F2A5ADC6646202296
:102DA000921B060096409146B04662460E00D64001
:102DB000424616434A4691404A1E914102006046EF
:102DC0003143C240E4E63C002C435AD0F443A146D0
:102DD000002C52D14D1BA9428941C71B49427F1A81
:102DE00014009A4675E69E4A944200D0C7E613E660
:102DF00000227FE700208FE7002C00D0C8E03B00D6
:102E00002B4300D10FE103000B4300D104E6691806
:102E1000A9429B413F185B42DF193B0200D41AE1F3
:102E2000904B0D001F406446F6E59A4689E63A004D
:102E30002A43002C5CD1002A75D102000A4300D13C
:102E4000CAE007000D009A46E6E564460022002528
:102E500081E662460600203AD6406246B046202A05
:102E600000D1B7E040226646921B904001434246A3
:102E7000481E8141114300228AE6794CA24200D0CB
:102E800061E707000D0014009A46C5E5002C41D10A
:102E90003C002C4378D0F443A146002C20D0704C49
:102EA000A24271D04C46382C00DDB2E01F2C00DD70
:102EB000BCE02026341BA2463C005646B4404E4699
:102EC000A0462C00F440A446444666463443A4463B
:102ED0005446A54064466E1EB54125434C46E74026
:102EE0006D188D4289413F184942CF19140056E6AA
:102EF000002A2FD102000A4300D184E007000D0010
:102F00009A46574C88E53D436F1EBD41ECB2002701
:102F10000D1B60E7524CA24236D074428026360424
:102F2000A1463743BEE702000A4300D174E56A1A9E
:102F300090464545B6413A1A7642921B9446120293
:102F400000D4F7E54D1BA9428941C71B49427F1AAE
:102F50009A4661E502000A433AD0ED087C072C430B
:102F60008025FA082D032A4208D0C7082F4205D130
:102F700045072C003A009A46C9080C43670FD20057
:102F8000E5001743364C47E507000D00140043E504
:102F90003A002A4343D002000A4319D0ED087C07C7
:102FA0002C438025FA082D032A4207D0C6082E425A
:102FB00004D147073C003200C9080C43D700620F18
:102FC000E50017439A46264C26E50022002544E5F5
:102FD000234C21E5002049E700230025BBE54C46B2
:102FE0003E00203CE6404C46B446202C31D04024E4
:102FF0004E46A61BB7403D436C1EA54164462C437C
:1030000000270D1BE7E6802200231203144C002545
:10301000A1E53D436F1EBD410027EDB260E707000B
:103020000D000F4CF8E407000D00F5E44E463C009F
:10303000203EF440A0464C46202C0ED040244E4664
:10304000A41BA7403D436F1EBD41444600272543B6
:1030500046E70027CFE70D0073E50027F2E7C046FB
:10306000FF070000FFFF7FFF0B0330B5134D1A0B66
:103070004B005B0DC90F0024AB4211DD104CA34285
:1030800010DC8024640322430E4CE41A1F2C0CDD58
:103090000D48C31ADA4013005C42002900D11C001D
:1030A000200030BD094BCC18FAE7E040084CA4469C
:1030B00063449A4013000343EEE7C046FE0300005A
:1030C0001D0400003304000013040000FFFFFF7F15
:1030D000EDFBFFFF70B5002830D0C317C4185C406B
:1030E000C50F200000F076F8174B184A1B1AD21AA9
:1030F0001F2A18DD164AD21A9440002224035B05C9
:10310000240B5B0D0021100024030A0D1205240B73
:103110001443104A1B0514401C436400ED07640867
:103120002C43210070BD210091400A000B21081A98
:10313000C4405B052403240B5B0DE3E7002500235B
:1031400000240022DEE7C0461E0400003304000015
:1031500013040000FFFF0F808446101C62468C465B
:10316000191C634600E0C0461FB500F0F5F80028C2
:1031700001D40021C8421FBD10B500F049F84042FB
:10318000013010BD10B500F0E7F8002801DB002089
:1031900010BD012010BDC04610B500F0DDF80028BC
:1031A00001DD002010BD012010BDC04610B500F0AB
:1031B0006FF8002801DC002010BD012010BDC046C2
:1031C00010B500F065F8002801DA002010BD0120DC
:1031D00010BDC0461C2101231B04984201D3000CE2
:1031E00010391B0A984201D3000A08391B0998427A
:1031F00001D30009043902A2105C40187047C04690
:1032000004030202010101010000000000000000AF
:10321000F0B55F4656464D464446F0B41F035C0089
:10322000DB0F9A46194B0E034D00C90F8046360B33
:103230006D0D8B4691463F0B640D9D4219D0134B8B
:103240009C421BD00123A54206D018003CBC9046EE
:103250009946A246AB46F0BDBE42F6D1C845F4D170
:10326000D34510D0002DF0D1304303005A1E9341B6
:10327000EBE7310001230143E7D1E0E73A430123C3
:10328000002AE2D1DEE70023DFE7C046FF070000A7
:10329000F0B55F46444656464D46F0B41F033C0B1E
:1032A0002C4F0E034D00A3465C008446360B6D0D7B
:1032B000C90F9046640DDB0FBD422BD0254FBC4299
:1032C0002ED0002D0ED13043070081467842784140
:1032D000002C17D15F463A4314D14B460020002BF7
:1032E0000AD006E0002C02D15846024301D0994290
:1032F0001AD00123484218433CBC90469946A24646
:10330000AB46F0BD0028F2D058425841012240425D
:103310001043F1E737000743D0D002204042EBE7EB
:103320005F461743CDD0F8E7A542E2DC05DB5E45FA
:10333000DFD808D000205E45DED248424841012354
:1033400040421843D8E7C445D3D80020C445F4D33D
:10335000D2E7C046FF070000F0B55F464D46444641
:103360005646F0B41C03240BA4462F4C0F034D000B
:103370005E00C90F80463F0B6D0D8B469146760D62
:10338000DB0FA54220D0284CA64222D0002D12D11E
:10339000384344424441002E20D0002C0DD05C42E2
:1033A000634101245B421C4320003CBC904699468B
:1033B000A246AB46F0BD002E17D05B4519D05B4648
:1033C0005C4201231C43EFE7390002240143EBD1A7
:1033D000D9E7614602241143E6D1D7E761460A43A3
:1033E000DBD100240028DFD0E9E761460A43E4D1BD
:1033F000E5E7B54203DD01225C421443D4E7B54260
:10340000CDDB6745DBD809D000246745CCD25946CF
:103410004C426141012449420C43C5E7C845CED81E
:103420000024C845F3D3BFE7FF070000014B18682D
:103430007047C0468000002003008218934202D0EB
:1034400019700133FAE770470EB410B59DB002A9A8
:10345000029008610B488224886048610120404244
:103460001FABC881084804CBA400006801938C817D
:1034700000F06EF80023029A13701DB010BC08BC57
:1034800003B01847FFFFFF7F80000020F0B58E6873
:1034900085B007000C00039201939E4243D890230D
:1034A0008A89DB001A423ED0032509692368019806
:1034B0005B1A029363695D43EB0F5D19029B6D100C
:1034C00001331B18AB4200D91D00530510D529004C
:1034D000380000F041FB061E14D0029A216900F06A
:1034E000D0FAA289194B134080221343A38112E022
:1034F0002A00380000F090FB061E0CD1216938002C
:1035000000F0DEFA0C23402201203B60A3894042F8
:103510001343A38117E0029B2661F61826606561BC
:10352000019EED1AA560019BB34200D21E0032003D
:103530000399206800F0AEFA0020A3689B1BA360EB
:1035400023689E19266005B0F0BDC0467FFBFFFFD3
:10355000F0B59FB0029005938B890F0016001B06F3
:1035600010D50B69002B0DD1402100F0F5FA386021
:103570003861002804D10C23029A01381360D8E086
:1035800040237B61002306AD6B6120336B761033E3
:10359000AB7634002378002B03D1A31B049312D005
:1035A00003E0252BF9D00134F4E7A31B32003900E6
:1035B0000298FFF76BFF431C00D1B4E06A69049BDB
:1035C000944663446B612378002B00D1ABE0012269
:1035D000002352426A6002A95432521801342B600F
:1035E000EB60AB601370AB65534E21780522300061
:1035F00000F03CFA002807D00123801B83402A6892
:10360000013413432B60EFE72B68DA0604D553220D
:10361000202102A8121811701A0704D553222B2159
:1036200002A81218117022782A2A03D0099B0020C0
:103630000A210EE0059A111D12680591002A01DB8E
:10364000099204E05242EA60022213432B600134E3
:103650000BE02278303A092A04D84B4301349B18F6
:103660000120F6E7002800D0099323782E2B1ED1E5
:1036700063782A2B0AD1059B02341A1D1B68059218
:10368000002B01DA01235B42079310E000230A209C
:103690001A0001346B6021783039092904D842437B
:1036A000013452180123F6E7002B00D00792234E75
:1036B00021780322300000F0D9F9002806D04023F9
:1036C000801B83402A68013413432B602178062233
:1036D0001B48661C297600F0C9F9002812D0194B46
:1036E000002B06D10722059B07339343083305932C
:1036F00014E005AB00933A00134B2900029800E058
:1037000000BF07E005AB00933A000F4B2900029879
:1037100000F08AF80390039B013304D06B69039A8D
:103720009B186B6135E7BB890B985B0601D50120BF
:1037300040421FB0F0BDC046103E0008163E0008D3
:103740001A3E0008000000008D340008F7B517008D
:1037500001938A680B6900900C00934200DA130011
:1037600022003B6043321278002A01D001333B60D3
:1037700023689B0602D53B6802333B60062523681D
:103780001D401ED0230043331B785A1E93412268EC
:1037900092061CD53020E1184331087021005A1CD4
:1037A00045310978A2184332023311700FE022002C
:1037B0000123193201990098089EB047431C0ED08E
:1037C0000135E3683A689B1A9D42F0DBDAE7220094
:1037D000019943320098089DA847431C02D101205B
:1037E000404220E006232068E1683A680340002553
:1037F000042B03D18D1AEB43DB171D40A36822690C
:10380000934201DD9B1AED180027BD420AD0220029
:1038100001231A3201990098089EB047431CDED05C
:103820000137F2E70020FEBDF0B58BB006920A002A
:1038300043320793059004920A7E0C00109B6E2A77
:1038400000D1ABE011D8632A22D009D8002A00D1D8
:10385000B5E0582A00D0C5E045310A70814A4FE0F2
:10386000642A1DD0692A1BD0BCE0732A00D1AAE0CB
:1038700009D86F2A29D0702A00D0B3E02022096825
:103880000A43226037E0752A1FD0782A33D0A9E096
:103890000E001A684236111D196013683370A4E0D7
:1038A00021681A68080606D4490604D5111D196056
:1038B0000023D55E02E0111D19601568002D3BDA6A
:1038C0002D23049A6D42137036E021681A680806A9
:1038D00006D4490604D51568111D1960ADB202E081
:1038E000111D196015685F4B227E039308276F2A0C
:1038F0001DD00A271BE022007821453211705A4A58
:1039000019680392081D226818600D68100602D419
:10391000500600D5ADB2D30702D520231A4322604A
:103920001027002D03D1202322689A432260230010
:10393000002243331A7002E00A274A4B039363685C
:10394000A360002B09DB0422216891432160002D34
:1039500005D1049E002B11D07BE0002D79D0049E70
:1039600028003900FDF74CFF039B013E5B5C2800FB
:1039700033703900FDF7BEFE051EF1D1082F09D1C5
:103980002368DB0706D563682269934202DC302393
:10399000013E3370049B9B1B23612BE009681A686E
:1039A000080607D4490605D5111D19601368A28AB7
:1039B0001A8004E0111D1960136862691A600023FF
:1039C000049E236116E01A68111D19601668002113
:1039D0006268300000F04AF8002801D0801B606067
:1039E000636803E02600423632700123236100231E
:1039F000049A1370079B09AA00932100069B05985F
:103A0000FFF7A4FE431C02D10120404227E02369B6
:103A1000320006990598079DA847431CF4D02368F7
:103A200000259B070FD4099BE068984217DA18001D
:103A300015E022000123193206990598079EB04728
:103A4000431CE1D00135E368099A9B1A9D42F0DBE3
:103A5000E9E72600039B42361B7833708EE70BB0F4
:103A6000F0BDC046213E0008323E0008C9B28218AF
:103A7000904204D003788B4202D00130F8E7002056
:103A80007047002310B59A4203D0CC5CC454013374
:103A9000F9E710BD10B5884202D98B18984201D3BE
:103AA000002305E09B1A013A08D3995C8154FAE798
:103AB000934203D0CC5CC4540133F9E710BD00003D
:103AC00070B50500002944D00C1F2368002B00DAD4
:103AD000E418280000F0D8F81E4A13681100002BE3
:103AE00002D16360146031E0A3420DD92268A018AE
:103AF000834203D118685B688218226063600C609F
:103B000024E0A24203D813005A68002AF9D11E68A3
:103B10009819A0420BD12168711858181960824277
:103B200014D110685268411819605A600EE0A04222
:103B300002D90C232B6009E021686018824203D16E
:103B4000106852684118216062605C60280000F0D3
:103B50009CF870BD9C000020032370B5CD1C9D43D4
:103B6000083506000C2D01D20C2501E0002D01DBEB
:103B7000A94202D90C23336048E0300000F084F8F9
:103B8000234B1C681A002100002913D00B685B1B13
:103B90000DD40B2B02D90B60CC181EE08C4202D145
:103BA000636813601AE04B6863600C0016E00C0059
:103BB0004968E9E7174C2368002B03D1300000F077
:103BC00051F820602900300000F04CF8431C18D058
:103BD0000323C41C9C43A0420DD12560300000F09B
:103BE00054F8200007220B30231D9043C31A0ED037
:103BF0005A42E2500BE0211A300000F033F8431C27
:103C0000EBD10C233000336000F03FF8002070BD92
:103C10009C00002098000020F8B506000C0015005C
:103C2000002904D11100FFF797FF040018E0002AD3
:103C300003D1FFF745FF2C0012E000F027F8854282
:103C40000ED929003000FFF787FF071E07D021009B
:103C50002A00FFF716FF21003000FFF731FF3C007C
:103C60002000F8BD002370B5064C05000800236055
:103C7000FCF7C2FE431C03D12368002B00D02B604D
:103C800070BDC046B8000020704770470B1F1A680F
:103C9000101F002A04DA891804390B68D018043878
:103CA00070470000534552564F204144432054452D
:103CB00053540000414443313A2564202020200021
:103CC000414443323A256420202020002E2E5C738C
:103CD000797374656D5C7372635C73746D33326693
:103CE000302D7374647065726970685C73746D33C1
:103CF00032663078785F6164632E63002E2E5C73C9
:103D0000797374656D5C7372635C73746D33326662
:103D1000302D7374647065726970685C73746D3390
:103D200032663078785F6770696F2E63000000003C
:103D30002E2E5C73797374656D5C7372635C73743F
:103D40006D333266302D7374647065726970685CAF
:103D500073746D3332663078785F7263632E6300FC
:103D60002E2E5C73797374656D5C7372635C73740F
:103D70006D333266302D7374647065726970685C7F
:103D800073746D3332663078785F74696D2E6300BA
:103D9000902000085E1F000864200008541F0008DF
:103DA000642000086E20000864200008541F0008EA
:103DB0005E1F00085E1F00086E200008541F0008E8
:103DC0004A1F00084A1F00084A1F0008C0220008B6
:103DD000BC2600087C2500087C2500087A25000800
:103DE0009426000894260008862600087A250008F4
:103DF0009426000886260008942600087A250008E4
:103E00009C2600089C2600089C2600089C28000888
:103E1000232D302B2000686C4C00656667454647B3
:103E20000030313233343536373839414243444536
:103E300046003031323334353637383961626364A5
:033E4000656600B4
:103E44007856341200000000000000000102030450
:103E540006070809006CDC02940000200000000042
:103E6400000000000000000000000000000000004E
:103E7400000000000000000000000000000000003E
:103E8400000000000000000000000000000000002E
:103E9400000000000000000000000000000000001E
:103EA400000000000000000000000000000000000E
:103EB40000000000000000000000000000000000FE
:083EC400200000203254769822
:0400000508000101ED
:00000001FF
