:020000040800F2
:1000000000200020C9000008D1000008D500000829
:1000100000000000000000000000000000000000E0
:10002000000000000000000000000000F1000008D7
:100030000000000000000000F5000008F9000008C2
:10004000C5000008C5000008C5000008C50000087C
:10005000C5000008C5000008C5000008C50000086C
:10006000C5000008C5000008C5000008C50000085C
:10007000C5000008C5000008C5000008C50000084C
:10008000C5000008C500000800000000C500000809
:10009000C5000008C5000008C5000008C50000082C
:1000A000C5000008C5000008C5000008A506000836
:1000B000C500000800000000C500000800000000A6
:1000C0005FF808F100BEFEE710B500F019F8C04671
:1000D00000BEFEE704207146084202D0EFF309801B
:1000E00001E0EFF308807146044A104700BEFEE7C6
:1000F00000BEFEE700BEFEE770470000ED0000080E
:1001000030B583B000F0CEFB314B324A1360324A37
:100110001360324B324A03E0116819600433043231
:1001200030498B42F8D32B4B1A682F4B9A4204D19B
:10013000294B1A682D4B9A4200D0FEE7244B2C4ADB
:1001400013602C4A13602C4B02E000221A60043327
:100150002A4A9342F9D3264B1B68002B03D1254B27
:100160001B68002B00D0FEE700F0A0FB694601A849
:1001700000F0C8FB224C234B1C1BA410002504E0FC
:10018000AA001F4BD35898470135AC42F8DC1E4CEF
:100190001E4B1C1BA410002504E0AA001A4BD358C8
:1001A00098470135AC42F8DC0099019800F058FA04
:1001B0000500174C174B1C1BA41004E0013CA200C7
:1001C000134BD3589847002CF8DC280000F072FB42
:1001D000BABADECA0000002094000020000000200F
:1001E000C41C0008980000207856341232547698C7
:1001F00098000020C400002098000020C8000020C3
:1002000040020008400200084002000840020008C6
:08021000400200084002000852
:10021800C41C00080000002098000020C41C00082E
:10022800000000000000000098000020C800002026
:080238000000000000000000BE
:1002400082B0430018180023019304E0C046C04662
:10025000019B01330193019B9842F7D802B070478C
:1002600070B51420FFF7ECFF0A4CA36980252D021E
:100270002B43A3611420FFF7E3FFA369802212063A
:100280001343A3611420FFF7DBFFA3692B43A36192
:1002900070BDC0460008004810B50400454A936987
:1002A0008021C9010B43936143B2002B07DA9022EE
:1002B000D2059369802109020B43936106E09022E5
:1002C000D2059369802109060B439361630607D524
:1002D0009022D2059369802149010B43936106E086
:1002E0009022D2059369802149050B439361A306AF
:1002F00006D5314A9369802189000B43936105E05B
:100300002D4A9369802189040B439361E30606D546
:10031000294A9369802149000B43936105E0264AED
:100320009369802149040B439361FFF799FF2307E9
:1003300007D59022D2059369802109020B4393616E
:1003400006E09022D2059369802109060B43936150
:10035000630707D59022D2059369802149010B4399
:10036000936106E09022D2059369802149050B43F1
:100370009361A30706D5104A9369802189000B4336
:10038000936105E00C4A9369802189040B439361D2
:10039000E30706D5084A9369802149000B4393611E
:1003A00005E0054A9369802149040B439361FFF7F7
:1003B00057FF10BD000800480004004870B5050054
:1003C000002404E0C0B2FFF767FF0134E4B228570D
:1003D0000028F7D170BDC04610B50400474A9369A4
:1003E0008021C9050B43936143B2002B07DA9022A9
:1003F000D2059369802109020B43936106E09022A4
:10040000D2059369802109060B439361630607D5E2
:100410009022D2059369802149010B43936106E044
:100420009022D2059369802149050B439361A3066D
:1004300006D5334A9369802189000B43936105E017
:100440002F4A9369802189040B439361E30606D503
:100450002B4A9369802149000B43936105E0284AA8
:100460009369802149040B439361FFF7F9FE230749
:1004700007D59022D2059369802109020B4393612D
:1004800006E09022D2059369802109060B4393610F
:10049000630707D59022D2059369802149010B4358
:1004A000936106E09022D2059369802149050B43B0
:1004B0009361A30706D5124A9369802189000B43F3
:1004C000936105E00E4A9369802189040B4393618F
:1004D000E30706D50A4A9369802149000B439361DB
:1004E00005E0074A9369802149040B439361FFF7B4
:1004F000B7FE0448FFF7A4FE10BDC0460008004840
:1005000000040048B80B000010B51B4B5A6980214D
:1005100089020A435A615A698021C9020A435A6111
:100520005A69802109030A435A619022D20513684F
:100530008221C9050B431360104A1368A021C90228
:100540000B4313600E4A1368A021C9050B431360C7
:100550000C48FFF775FE3320FFF73EFF3220FFF710
:100560003BFF0C20FFF738FF2820FFF735FF012065
:10057000FFF732FF10BDC0460010024000040048E3
:10058000000800483075000030B587B00121802098
:10059000C00100F0CBFB124B00930023019380229B
:1005A000920102928025ED00039505930433049394
:1005B0000C4C6946200000F0E1FB23682B432360CC
:1005C0006368C022120313436360012206492000BE
:1005D00000F0DAFC0121200000F0A4FC07B030BDDF
:1005E000A0860100003801400501050010B582B069
:1005F00001218020C00200F071FB3F2300933E3BAD
:100600006A4613710023D3710D4C6946200000F037
:1006100085F92368A022120213432360E368A02215
:10062000D2011343E360A368F02212021343A360D4
:1006300000220721200000F0FDF902B010BDC046E5
:100640000004004800B583B001A81B2303700023F9
:1006500043700133837000F037FA03B000BDC04629
:1006600010B5FFF7C3FFFFF74FFFFFF7EBFFFFF7F3
:100670008BFF0848FFF7A2FEC020FFF7ADFE064B38
:100680001A88064C0649200000F06AFE2000FFF799
:1006900095FEF1E7981B00089C000020B0000020A8
:1006A000A41B000870B50F490F4800F03BFD00285F
:1006B00016D00E48FFF782FEC020FFF78DFE0A4CD1
:1006C000A28C92B20A4B1A800A4D0B49280000F006
:1006D00047FE2800FFF772FE2021200000F0D6FC24
:1006E00070BDC0460501050000380140B01B000880
:1006F0009C000020B0000020BC1B000882B000233A
:1007000001930093264A1368802149020B4313602A
:10071000234B1A6880239B0213400093019B0133F3
:100720000193009B002B04D1019AA023DB019A4284
:10073000EED11B4B1B689B0302D50123009301E004
:1007400000230093009B012B28D11122154B1A6026
:10075000134B5A685A605A685A605968124A0A40DC
:100760005A605A68882149030A435A601A688021EE
:1007700049040A431A600A4B1B689B01FBD5084BCE
:100780005A6803218A435A60596802220A435A6010
:10079000034B5B680C221340082BF9D102B0704761
:1007A0000010024000200240FF7FC0FF10B5124B36
:1007B0001A6801210A431A605868104A02405A60B8
:1007C00018680F4A02401A6018680E4A02401A6000
:1007D00058680D4A02405A60DA6A0F208243DA6292
:1007E000186B0A4A02401A635A6B8A435A63002202
:1007F0009A60FFF783FF10BD001002400CB8FF089D
:10080000FFFFF6FEFFFFFBFFFFFFC0FFACFEFFFF99
:1008100010B51F4B5B680C221340042B07D0082B2C
:1008200009D0002B23D11B4A1B4B1A6022E0194A26
:10083000194B1A601EE0164B5C685A68A40C0F2016
:1008400004400234C0235B021A4204D113484443DB
:10085000114B1C600EE00E4BDB6A0F211940013179
:100860000C4800F0EBFC44430B4B1C6002E0094ACF
:10087000094B1A60064B5B681B090F221340084A9C
:10088000D35CDBB2044A1168D940116010BDC04688
:100890000010024000127A001400002000093D0000
:1008A0000400002010B5FFF781FF10BD10B5FFF761
:1008B000AFFF10BDFEE7C04610B50120FFF7FAFFFD
:1008C00010B503000C4A1268002A02D10B490A4AEB
:1008D0001160094A1068033303229343C318084A7E
:1008E000934206D900F036FD0C23036001204042FC
:1008F00001E0014A136010BDA0000020C8000020E4
:10090000001C002001230360014B0B607047C046B0
:100910001800002010B5FFF7CFFFC04670B50500E6
:100920000E009023DB05984212D03C4B98420FD02A
:100930003B4B98420CD03B4B984209D03A4B9842E3
:1009400006D03A4B984203D0B4213948FFF7E2FF72
:100950003368002B03D1B5213548FFF7DBFF33792E
:10096000032B03D9B6213248FFF7D4FFF379022BCA
:1009700003D9B7212E48FFF7CDFF00244AE0012319
:10098000A34032681A40934243D13379013BDBB232
:10099000012B27D87379012B05D9032B03D0C7214D
:1009A0002348FFF7B7FFAB68610003228A409343F7
:1009B000AB60AA6873798B401343AB60B379012BAA
:1009C00003D9CE211A48FFF7A5FFAB882204120CE9
:1009D000012191408B43AB80A988B37993400B43AD
:1009E0009BB2AB802B6861000322100088408343D8
:1009F0002B60286833798B4003432B60EB6820041D
:100A0000C00B82409343EB60EA68F3798B40134359
:100A1000EB6001340F2CB2D970BDC0460004004811
:100A200000080048000C004800100048001400486E
:100A3000C01B000870B505000C0016009023DB05F4
:100A4000984212D0174B98420FD0174B98420CD0B7
:100A5000164B984209D0164B984206D0154B984237
:100A600003D015491548FFF755FF0F2C03D914493A
:100A70001248FFF74FFF072E03D912490F48FFF71F
:100A800049FF072323409B009E40E40821000831D2
:100A900089004A590F20984082434A514B591E43BE
:100AA0004E5170BD0004004800080048000C00488A
:100AB00000100048001400480D020000C01B000890
:100AC0000E0200000F02000070B504008378012BB5
:100AD00003D952211748FFF71DFF6378032B03D971
:100AE00053211448FFF716FFA378002B19D0217863
:100AF0008808114DC0308000465903231940C900B1
:100B0000FC331A008A4096436278920113408B406E
:100B10003343435123781F221A40012393402B6013
:100B200007E023781F221A400123934080220249C4
:100B30008B5070BDF41B000800E100E0F8B5040024
:100B40005F4B5B680C221340042B0CD002D8002BA7
:100B500005D029E0082B0AD00C2B21D024E0594BDA
:100B60000360002023E0574B036000201FE0544B3C
:100B700058685A68800C0F252840851CC0235B02EA
:100B80001A4202D15048684308E04D4BDB6A0F21FE
:100B9000194001314B4800F051FB6843206006E0EA
:100BA0004A4B0360002002E0464B2360002044498A
:100BB0004B681B090F221340454DEB5CDBB22668E6
:100BC0003200DA40130062604A68120A07273A408E
:100BD000AA5CD2B2D340A3600A6BD20502D43D4ACC
:100BE000E26008E0364A5268520402D45A08E260D1
:100BF00001E09A08E260324A126B520602D4364A89
:100C0000226102E08022120222612D4A126BD2067A
:100C100002D42C4A626100E06661294A126B920795
:100C200001D1A36119E0264A126B03210A40012A6F
:100C300001D1A66111E0224A126B03210A40022A67
:100C400003D180221202A26107E01D4A126B032128
:100C50000A40032A01D11B4AA261194A116BC02222
:100C60009202114201D1E36120E0154B1A6BC023BF
:100C70009B02134080225202934201D1E66115E0AB
:100C80000F4B1A6BC0239B021340802292029342A7
:100C900003D180231B02E36108E0094B1B6BC022D8
:100CA00092021340934201D1064BE361044B1B6B4C
:100CB0001B0602D4054B236200E02062F8BDC0464B
:100CC0000010024000127A0000093D00006CDC02B6
:100CD00020000020809FD5001280000070B5040025
:100CE0000D000D4B184201D1002803D10B490C48CF
:100CF000FFF710FE012D03D90A490948FFF70AFE44
:100D0000002D04D0084A53691C43546103E0064A8D
:100D10005369A343536170BDAAFF81FE36050000ED
:100D2000281C0008370500000010024070B50400C0
:100D30000D000D4B184201D1002803D10B490C487E
:100D4000FFF7E8FD012D03D90A490948FFF7E2FD45
:100D5000002D04D0084A93691C43946103E0064ABD
:100D60009369A343936170BDFEA5B8FF5A050000C7
:100D7000281C00085B05000000100240F0B58DB093
:100D800004000D005C4B98420CD05C4B984209D09B
:100D90005B4B984206D05B4B984203D0DC215A480B
:100DA000FFF7B8FD2B68013B584A934203D9DD2178
:100DB0005548FFF7AFFD6B68002B0AD08022520127
:100DC000934206D0524A934203D0DE214E48FFF7A9
:100DD000A1FDAB68002B0BD080229201934207D07B
:100DE000C0229201934203D0DF214748FFF792FDD2
:100DF000EB68002B0BD08022D200934207D0C02298
:100E0000D200934203D0E0213F48FFF783FD2B69D6
:100E10000C221900914301D1002B03D1E1213A4862
:100E2000FFF778FD6B69002B0FD0802252009342B0
:100E30000BD00132FF32934207D00132FF3293428E
:100E400003D0E2213048FFF765FD23680122934378
:100E5000236062682F4B1340AA68134363602168C4
:100E60002D4B19406B68EA6813432A691A430B003B
:100E700013432360A268294B13406A691343A3609C
:100E800003A8FFF75BFE1C4B9C4201D1099E05E0C5
:100E90001A4B9C4201D10A9E00E0059E23681B0468
:100EA0000CD576002B6801931900300000F0C6F9CC
:100EB00007000199300000F047FA0AE02B6801931F
:100EC0001900300000F0BAF907000199300000F075
:100ED0003BFA2B685B08994200D3013723681B0457
:100EE00006D57B0807221A400D4B3B401A431700DA
:100EF000BBB2A3810DB0F0BD0038014000440040FA
:100F000000480040004C0040581C00087F8D5B00EA
:100F100000100010FFCFFFFFF3E9FFFFFFFCFFFF12
:100F2000F0FF000070B504000D00124B98420DD088
:100F3000114B98420AD0114B984207D0104B98425F
:100F400004D0C82149000F48FFF7E4FC012D04D963
:100F50009221FF310B48FFF7DDFC002D04D0226801
:100F600001231343236003E023680122934323609A
:100F700070BDC046003801400044004000480040B9
:100F8000004C0040581C000870B505000C0016000D
:100F90002C4B98420CD02C4B984209D02B4B9842AA
:100FA00006D02B4B984203D02A492B48FFF7B2FCBE
:100FB00084235B009C4225D0284B9C4222D0284BA6
:100FC0009C421FD0274B9C421CD0274B9C4219D0DF
:100FD000264B9C4216D0264B9C4213D0C0239B002C
:100FE0009C420FD0234B9C420CD0234B9C4209D0F7
:100FF000224B9C4206D0224B9C4203D021491648EA
:10100000FFF788FC012E03D91F491348FFF782FC24
:1010100029002312FF2213401440FE3AA240022B63
:1010200001D1291D03E0032B01D129000831002E35
:1010300003D00B681A430A6002E00B6893430B600D
:1010400070BDC046003801400044004000480040E8
:10105000004C004005070000581C0008070107006D
:10106000060106000501050004010400060208004F
:101070000A0309001A010B001B010C000E011100EC
:1010800016031400060700000707000070B50500EE
:101090000C001D4B98420CD01C4B984209D01C4BA5
:1010A000984206D01B4B984203D01B491B48FFF7C0
:1010B00031FC80235B039C4223D0402C21D0102C98
:1010C0001FD0082C1DD0042C1BD0022C19D080233B
:1010D0005B009C4215D00133FF339C4211D080232A
:1010E0001B019C420DD080235B019C4209D08023D0
:1010F0009B029C4205D0012C03D009490748FFF709
:1011000009FC2C6270BDC04600380140004400401C
:1011100000480040004C0040C4070000581C000874
:10112000C507000070B505000C00304B98420CD08C
:101130002F4B984209D02F4B984206D02E4B984205
:1011400003D02E492E48FFF7E5FB84235B009C4229
:101150002AD02C4B9C4227D02B4B9C4224D02B4B8B
:101160009C4221D02A4B9C421ED02A4B9C421BD031
:10117000294B9C4218D0294B9C4215D0284B9C42AD
:1011800012D0284B9C420FD0274B9C420CD0274BAF
:101190009C4209D0264B9C4206D0264B9C4203D051
:1011A00025491748FFF7B6FB2112FF2319402340BA
:1011B0001A0001239340012902D12A68134006E056
:1011C000022902D16A68134001E0AA681340240C86
:1011D0000122A240E9690A40002B03D0002A03D172
:1011E000002002E0002000E0012070BD0038014036
:1011F0000044004000480040004C0040E60700006A
:10120000581C00080701070006010600050105003B
:1012100004010400060208000A0309000003030099
:1012200000030200000301001A010B001B010C0067
:101230000E01110016031400E70700000022430806
:101240008B4274D303098B425FD3030A8B4244D38E
:10125000030B8B4228D3030C8B420DD3FF220902D0
:1012600012BA030C8B4202D31212090265D0030B8F
:101270008B4219D300E0090AC30B8B4201D3CB0385
:10128000C01A5241830B8B4201D38B03C01A5241C7
:10129000430B8B4201D34B03C01A5241030B8B42C9
:1012A00001D30B03C01A5241C30A8B4201D3CB02B4
:1012B000C01A5241830A8B4201D38B02C01A524199
:1012C000430A8B4201D34B02C01A5241030A8B429C
:1012D00001D30B02C01A5241CDD2C3098B4201D3B4
:1012E000CB01C01A524183098B4201D38B01C01A32
:1012F000524143098B4201D34B01C01A52410309A9
:101300008B4201D30B01C01A5241C3088B4201D357
:10131000CB00C01A524183088B4201D38B00C01A04
:10132000524143088B4201D34B00C01A5241411A2B
:1013300000D20146524110467047FFE701B5002038
:1013400000F006F802BDC0460029F7D076E77047E6
:101350007047C046014B18687047C0469000002097
:101360000EB410B59DB002A9029008610B4882240A
:1013700088604861012040421FABC881084804CB07
:10138000A400006801938C8100F06EF80023029A9B
:1013900013701DB010BC08BC03B01847FFFFFF7FDF
:1013A00090000020F0B58E6885B007000C00039215
:1013B00001939E4243D890238A89DB001A423ED093
:1013C00003250969236801985B1A029363695D43E9
:1013D000EB0F5D19029B6D1001331B18AB4200D956
:1013E0001D00530510D52900380000F03BFB061EF8
:1013F00014D0029A216900F0D0FAA289194B134047
:1014000080221343A38112E02A00380000F080FB01
:10141000061E0CD12169380000F0DEFA0C234022B0
:1014200001203B60A38940421343A38117E0029B44
:101430002661F61826606561019EED1AA560019B84
:10144000B34200D21E0032000399206800F0AEFAC9
:101450000020A3689B1BA36023689E19266005B02B
:10146000F0BDC0467FFBFFFFF0B59FB00290059333
:101470008B890F0016001B0610D50B69002B0DD1B0
:10148000402100F0EFFA38603861002804D10C23C5
:10149000029A01381360D8E040237B61002306AD37
:1014A0006B6120336B761033AB7634002378002BDE
:1014B00003D1A31B049312D003E0252BF9D00134F0
:1014C000F4E7A31B320039000298FFF76BFF431CBF
:1014D00000D1B4E06A69049B944663446B6123784D
:1014E000002B00D1ABE00122002352426A6002A926
:1014F0005432521801342B60EB60AB601370AB6553
:10150000534E21780522300000F03CFA002807D025
:101510000123801B83402A68013413432B60EFE7CB
:101520002B68DA0604D55322202102A81218117064
:101530001A0704D553222B2102A812181170227801
:101540002A2A03D0099B00200A210EE0059A111DCA
:1015500012680591002A01DB099204E05242EA6018
:10156000022213432B6001340BE02278303A092A1F
:1015700004D84B4301349B180120F6E7002800D023
:10158000099323782E2B1ED163782A2B0AD1059B31
:1015900002341A1D1B680592002B01DA01235B42FD
:1015A000079310E000230A201A0001346B602178B1
:1015B0003039092904D84243013452180123F6E78F
:1015C000002B00D00792234E21780322300000F038
:1015D000D9F9002806D04023801B83402A680134B3
:1015E00013432B60217806221B48661C297600F0E5
:1015F000C9F9002812D0194B002B06D10722059BF0
:10160000073393430833059314E005AB00933A0086
:10161000134B2900029800E000BF07E005AB0093E0
:101620003A000F4B2900029800F08AF80390039BC0
:10163000013304D06B69039A9B186B6135E7BB8952
:101640000B985B0601D5012040421FB0F0BDC0469B
:101650008E1C0008941C0008981C00080000000064
:10166000A5130008F7B5170001938A680B6900906D
:101670000C00934200DA130022003B6043321278E0
:10168000002A01D001333B6023689B0602D53B68EA
:1016900002333B60062523681D401ED023004333E0
:1016A0001B785A1E9341226892061CD53020E118FF
:1016B0004331087021005A1C45310978A218433281
:1016C000023311700FE022000123193201990098B2
:1016D000089EB047431C0ED00135E3683A689B1A58
:1016E0009D42F0DBDAE72200019943320098089D21
:1016F000A847431C02D10120404220E00623206875
:10170000E1683A6803400025042B03D18D1AEB43AE
:10171000DB171D40A3682269934201DD9B1AED1877
:101720000027BD420AD0220001231A3201990098F5
:10173000089EB047431CDED00137F2E70020FEBD13
:10174000F0B58BB006920A004332079305900492DD
:101750000A7E0C00109B6E2A00D1ABE011D8632AE0
:1017600022D009D8002A00D1B5E0582A00D0C5E01F
:1017700045310A70814A4FE0642A1DD0692A1BD086
:10178000BCE0732A00D1AAE009D86F2A29D0702AB8
:1017900000D0B3E0202209680A43226037E0752AAE
:1017A0001FD0782A33D0A9E00E001A684236111DE6
:1017B000196013683370A4E021681A68080606D41B
:1017C000490604D5111D19600023D55E02E0111DE4
:1017D00019601568002D3BDA2D23049A6D421370B1
:1017E00036E021681A68080606D4490604D515684B
:1017F000111D1960ADB202E0111D196015685F4B33
:10180000227E039308276F2A1DD00A271BE022009F
:101810007821453211705A4A19680392081D2268CE
:1018200018600D68100602D4500600D5ADB2D3077B
:1018300002D520231A4322601027002D03D1202334
:1018400022689A4322602300002243331A7002E088
:101850000A274A4B03936368A360002B09DB042229
:10186000216891432160002D05D1049E002B11D0E9
:101870007BE0002D79D0049E28003900FFF764FD3D
:10188000039B013E5B5C280033703900FFF7D6FCF8
:10189000051EF1D1082F09D12368DB0706D563683F
:1018A0002269934202DC3023013E3370049B9B1B70
:1018B00023612BE009681A68080607D4490605D594
:1018C000111D19601368A28A1A8004E0111D1960A5
:1018D000136862691A600023049E236116E01A6887
:1018E000111D1960166800216268300000F04AF886
:1018F000002801D0801B6060636803E02600423648
:101900003270012323610023049A1370079B09AAF4
:1019100000932100069B0598FFF7A4FE431C02D10B
:101920000120404227E02369320006990598079D6F
:10193000A847431CF4D0236800259B070FD4099BBC
:10194000E068984217DA180015E0220001231932E6
:1019500006990598079EB047431CE1D00135E3681E
:10196000099A9B1A9D42F0DBE9E72600039B423669
:101970001B7833708EE70BB0F0BDC0469F1C00088B
:10198000B01C0008C9B28218904204D003788B4280
:1019900002D00130F8E700207047002310B59A42CA
:1019A00003D0CC5CC4540133F9E710BD10B58842B4
:1019B00002D98B18984201D3002305E09B1A013A03
:1019C00008D3995C8154FAE7934203D0CC5CC454A9
:1019D0000133F9E710BD000030B500293ED00439CD
:1019E0000B68002B00DAC9181D4A13681400002B7D
:1019F00002D14B60116031E08B420DD90A68881822
:101A0000834203D118685B6882180A604B602160CA
:101A100024E08A4203D813005A68002AF9D11D68CD
:101A20005C198C420BD109686918581819608242F8
:101A300014D110685268411819605A600EE08C4247
:101A400002D90C23036009E008680C18A24203D1F4
:101A500014685268201808604A60596030BDC0465A
:101A6000AC000020032370B5CD1C9D430835060053
:101A70000C2D01D20C2505E0002D03DA0C230020EB
:101A8000336040E0A942F9D81F4B1C681A002100BE
:101A9000002913D00B685B1B0DD40B2B02D90B60F4
:101AA000CC181EE08C4202D1636813601AE04B68C8
:101AB00063600C0016E00C004968E9E7134C2368EA
:101AC000002B03D1300000F049F8206029003000DD
:101AD00000F044F8431CD1D00323C41C9C43A04213
:101AE0000AD12560200007220B30231D9043C31A22
:101AF00009D05A42E25006E0211A300000F02EF8D8
:101B0000431CEED1BAE770BDAC000020A800002055
:101B1000F8B506000C001500002904D11100FFF7EC
:101B2000A1FF040018E0002A03D1FFF755FF2C00A5
:101B300012E000F025F885420ED929003000FFF7A9
:101B400091FF071E07D021002A00FFF726FF210082
:101B50003000FFF741FF3C002000F8BD002370B5C6
:101B6000064C050008002360FEF7AAFE431C03D1C3
:101B70002368002B00D02B6070BDC046C000002041
:101B80000B1F1A68101F002A04DA891804390B6821
:101B9000D018043870470000555341525420544522
:101BA000535432004750494F423A20256400000008
:101BB000555341525420494E000000002564000056
:101BC0002E2E5C73797374656D5C7372635C7374D1
:101BD0006D333266302D7374647065726970685C41
:101BE00073746D3332663078785F6770696F2E6317
:101BF000000000002E2E5C73797374656D5C737247
:101C0000635C73746D333266302D73746470657207
:101C10006970685C73746D3332663078785F6D69B3
:101C200073632E63000000002E2E5C73797374655D
:101C30006D5C7372635C73746D333266302D7374D4
:101C4000647065726970685C73746D333266307885
:101C5000785F7263632E63002E2E5C7379737465F4
:101C60006D5C7372635C73746D333266302D7374A4
:101C7000647065726970685C73746D333266307855
:101C8000785F75736172742E630000004300232D2A
:101C9000302B2000686C4C00656667454647003075
:101CA00031323334353637383941424344454600C2
:101CB00030313233343536373839616263646566C2
:011CC0000023
:101CC40078563412000000000000000001020304F2
:101CD40006070809006CDC02A400002000000000D4
:101CE40000000000010203040102030406070809BE
:101CF40000000000000000000000000000000000E0
:101D040000000000000000000000000000000000CF
:101D14008C1C00080000000000000000000000000F
:101D240000000000000000000000000000000000AF
:101D3400000000000000000000000000000000009F
:101D4400000000000000000000000000000000008F
:081D54003000002032547698A3
:0400000508000101ED
:00000001FF
