:020000040800F2
:1000000000200020C9000008D1000008D500000829
:1000100000000000000000000000000000000000E0
:10002000000000000000000000000000F1000008D7
:100030000000000000000000F5000008F9000008C2
:10004000C5000008C5000008C5000008C50000087C
:10005000C5000008C5000008C5000008C50000086C
:10006000C5000008C5000008C5000008C50000085C
:10007000C5000008C5000008C5000008C50000084C
:10008000C5000008C500000800000000C500000809
:10009000C5000008C5000008C5000008C50000082C
:1000A000C5000008C5000008C5000008C50000081C
:1000B000C500000800000000C500000800000000A6
:1000C0005FF808F100BEFEE710B500F019F8C04671
:1000D00000BEFEE704207146084202D0EFF309801B
:1000E00001E0EFF308807146044A104700BEFEE7C6
:1000F00000BEFEE700BEFEE770470000ED0000080E
:1001000030B583B000F026FB314B324A1360324ADF
:100110001360324B324A03E0116819600433043231
:1001200030498B42F8D32B4B1A682F4B9A4204D19B
:10013000294B1A682D4B9A4200D0FEE7244B2C4ADB
:1001400013602C4A13602C4B02E000221A60043327
:100150002A4A9342F9D3264B1B68002B03D1254B27
:100160001B68002B00D0FEE700F0F8FA694601A8F2
:1001700000F0FAFA224C234B1C1BA410002504E0CB
:10018000AA001F4BD35898470135AC42F8DC1E4CEF
:100190001E4B1C1BA410002504E0AA001A4BD358C8
:1001A00098470135AC42F8DC0099019800F0ECF971
:1001B0000500174C174B1C1BA41004E0013CA200C7
:1001C000134BD3589847002CF8DC280000F0CAFAEB
:1001D000BABADECA00000020200000200000002083
:1001E000AC08000824000020785634123254769867
:1001F000240000202C0000202400002030000020DB
:1002000040020008400200084002000840020008C6
:08021000400200084002000852
:10021800AC0800080000002024000020AC080008FA
:100228000000000000000000240000203000002032
:080238000000000000000000BE
:1002400082B0430018180023019304E0C046C04662
:10025000019B01330193019B9842F7D802B070478C
:1002600070B51420FFF7ECFF0A4CA36980252D021E
:100270002B43A3611420FFF7E3FFA369802212063A
:100280001343A3611420FFF7DBFFA3692B43A36192
:1002900070BDC0460008004810B50400454A936987
:1002A0008021C9010B43936143B2002B07DA9022EE
:1002B000D2059369802109020B43936106E09022E5
:1002C000D2059369802109060B439361630607D524
:1002D0009022D2059369802149010B43936106E086
:1002E0009022D2059369802149050B439361A306AF
:1002F00006D5314A9369802189000B43936105E05B
:100300002D4A9369802189040B439361E30606D546
:10031000294A9369802149000B43936105E0264AED
:100320009369802149040B439361FFF799FF2307E9
:1003300007D59022D2059369802109020B4393616E
:1003400006E09022D2059369802109060B43936150
:10035000630707D59022D2059369802149010B4399
:10036000936106E09022D2059369802149050B43F1
:100370009361A30706D5104A9369802189000B4336
:10038000936105E00C4A9369802189040B439361D2
:10039000E30706D5084A9369802149000B4393611E
:1003A00005E0054A9369802149040B439361FFF7F7
:1003B00057FF10BD000800480004004870B5050054
:1003C000002404E0C0B2FFF767FF0134E4B228570D
:1003D0000028F7D170BDC04610B50400474A9369A4
:1003E0008021C9050B43936143B2002B07DA9022A9
:1003F000D2059369802109020B43936106E09022A4
:10040000D2059369802109060B439361630607D5E2
:100410009022D2059369802149010B43936106E044
:100420009022D2059369802149050B439361A3066D
:1004300006D5334A9369802189000B43936105E017
:100440002F4A9369802189040B439361E30606D503
:100450002B4A9369802149000B43936105E0284AA8
:100460009369802149040B439361FFF7F9FE230749
:1004700007D59022D2059369802109020B4393612D
:1004800006E09022D2059369802109060B4393610F
:10049000630707D59022D2059369802149010B4358
:1004A000936106E09022D2059369802149050B43B0
:1004B0009361A30706D5124A9369802189000B43F3
:1004C000936105E00E4A9369802189040B4393618F
:1004D000E30706D50A4A9369802149000B439361DB
:1004E00005E0074A9369802149040B439361FFF7B4
:1004F000B7FE0448FFF7A4FE10BDC0460008004840
:1005000000040048B80B000010B51B4B5A6980214D
:1005100089020A435A615A698021C9020A435A6111
:100520005A69802109030A435A619022D20513684F
:100530008221C9050B431360104A1368A021C90228
:100540000B4313600E4A1368A021C9050B431360C7
:100550000C48FFF775FE3320FFF73EFF3220FFF710
:100560003BFF0C20FFF738FF2820FFF735FF012065
:10057000FFF732FF10BDC0460010024000040048E3
:10058000000800483075000010B5FFF7BDFF0548B2
:10059000FFF714FFC020FFF71FFF0348FFF70EFF10
:1005A000FEE7C04690080008A008000882B00023BB
:1005B00001930093264A1368802149020B4313607C
:1005C000234B1A6880239B0213400093019B013345
:1005D0000193009B002B04D1019AA023DB019A42D6
:1005E000EED11B4B1B689B0302D50123009301E056
:1005F00000230093009B012B28D11122154B1A6078
:10060000134B5A685A605A685A605968124A0A402D
:100610005A605A68882149030A435A601A6880213F
:1006200049040A431A600A4B1B689B01FBD5084B1F
:100630005A6803218A435A60596802220A435A6061
:10064000034B5B680C221340082BF9D102B07047B2
:100650000010024000200240FF7FC0FF10B5124B87
:100660001A6801210A431A605868104A02405A6009
:1006700018680F4A02401A6018680E4A02401A6051
:1006800058680D4A02405A60DA6A0F208243DA62E3
:10069000186B0A4A02401A635A6B8A435A63002253
:1006A0009A60FFF783FF10BD001002400CB8FF08EE
:1006B000FFFFF6FEFFFFFBFFFFFFC0FFACFEFFFFEB
:1006C00010B51F4B5B680C221340042B07D0082B7E
:1006D00009D0002B23D11B4A1B4B1A6022E0194A78
:1006E000194B1A601EE0164B5C685A68A40C0F2068
:1006F00004400234C0235B021A4204D1134844432D
:10070000114B1C600EE00E4BDB6A0F2119400131CA
:100710000C4800F031F844430B4B1C6002E0094ADE
:10072000094B1A60064B5B681B090F221340084AED
:10073000D35CDBB2044A1168D940116010BDC046D9
:100740000010024000127A001400002000093D0051
:100750000400002010B5FFF781FF10BD10B5FFF7B2
:10076000AFFF10BDFEE7C04601230360014B0B60E5
:100770007047C04618000020002243088B4274D303
:1007800003098B425FD3030A8B4244D3030B8B4292
:1007900028D3030C8B420DD3FF22090212BA030C9B
:1007A0008B4202D31212090265D0030B8B4219D37C
:1007B00000E0090AC30B8B4201D3CB03C01A52419C
:1007C000830B8B4201D38B03C01A5241430B8B42E4
:1007D00001D34B03C01A5241030B8B4201D30B03CD
:1007E000C01A5241C30A8B4201D3CB02C01A5241F4
:1007F000830A8B4201D38B02C01A5241430A8B42B7
:1008000001D34B02C01A5241030A8B4201D30B029F
:10081000C01A5241CDD2C3098B4201D3CB01C01AB9
:10082000524183098B4201D38B01C01A52414309C3
:100830008B4201D34B01C01A524103098B4201D3B1
:100840000B01C01A5241C3088B4201D3CB00C01A1E
:10085000524183088B4201D38B00C01A5241430896
:100860008B4201D34B00C01A5241411A00D20146BB
:10087000524110467047FFE701B5002000F006F82E
:1008800002BDC0460029F7D076E770477047C046E2
:10089000454545333031375720507261632036006B
:0C08A0002A2A6E616D65732A2A00000090
:1008AC00785634120000000000000000010203041E
:1008BC0006070809006CDC0228000020000000007C
:0408CC003254769894
:0400000508000101ED
:00000001FF
