:020000040800F2
:1000000000200020C9000008D1000008D500000829
:1000100000000000000000000000000000000000E0
:10002000000000000000000000000000F1000008D7
:100030000000000000000000F5000008F9000008C2
:10004000C5000008C5000008C5000008C50000087C
:10005000C5000008C5000008C5000008C50000086C
:10006000C5000008C5000008C5000008C50000085C
:10007000C5000008C5000008C5000008C50000084C
:10008000C5000008C500000800000000C500000809
:10009000C5000008C5000008C5000008C50000082C
:1000A000C5000008C5000008C5000008C50000081C
:1000B000C500000800000000C500000800000000A6
:1000C0005FF808F100BEFEE708B500F019F8C04679
:1000D00000BEFEE704207146084202D0EFF309801B
:1000E00001E0EFF308807146044A104700BEFEE7C6
:1000F00000BEFEE700BEFEE770470000ED0000080E
:1001000030B583B000F024FB314B324A1360324AE1
:100110001360324B324A03E0116819600433043231
:1001200030498B42F8D32B4B1A682F4B9A4204D19B
:10013000294B1A682D4B9A4200D0FEE7244B2C4ADB
:1001400013602C4A13602C4B02E000221A60043327
:100150002A4A9342F9D3264B1B68002B03D1254B27
:100160001B68002B00D0FEE700F0F6FA01A86946F4
:1001700000F0F8FA224B234DED1AAD10002404E0F4
:10018000A2001F4BD35898470134A542F8DC1E4B00
:100190001E4DED1AAD10002404E0A2001A4BD358F6
:1001A00098470134A542F8DC0198009900F0ECF979
:1001B000051C174B174CE41AA41004E0013CA200E4
:1001C000134BD3589847002CF8DC281C00F0C8FAD1
:1001D000BABADECA00000020200000200000002083
:1001E00030080008240000207856341232547698E3
:1001F000240000202C0000202400002030000020DB
:1002000040020008400200084002000840020008C6
:08021000400200084002000852
:1002180030080008000000202400002030080008F2
:100228000000000000000000240000203000002032
:080238000000000000000000BE
:1002400082B0430018180023019304E0C046C04662
:10025000019B01330193019B8342F7D302B07047A6
:1002600038B51420FFF7ECFF0A4CA36980252D0256
:100270002B43A3611420FFF7E3FFA26980231B0631
:100280001343A3611420FFF7DBFFA3691D43A5619E
:1002900038BDC0460008004810B5041C454B99699C
:1002A0008022D2010A439A6143B2002B07DA9023DD
:1002B000DB059969802212020A439A6106E09023C5
:1002C000DB059969802212060A439A61630607D505
:1002D0009023DB059969802252010A439A6106E066
:1002E0009023DB059969802252050A439A61A3068F
:1002F00006D5314B9969802292000A439A6105E044
:100300002D4B9969802292040A439A61E30606D52F
:10031000294B9969802252000A439A6105E0264BD5
:100320009969802252040A439A61FFF799FF2307D3
:1003300007D59023DB059969802212020A439A614E
:1003400006E09023DB059969802212060A439A6130
:10035000630707D59023DB059969802252010A4380
:100360009A6106E09023DB059969802252050A43D1
:100370009A61A30706D5104B9969802292000A431F
:100380009A6105E00C4B9969802292040A439A61B4
:10039000E30706D5084B9969802252000A439A6107
:1003A00005E0054B9969802252040A439A61FFF7E0
:1003B00057FF10BD000800480004004838B5051C70
:1003C000002404E0D8B2FFF767FF0134E4B22B5DEC
:1003D000002BF7D138BDC04610B5041C474B9969B6
:1003E0008022D2050A439A6143B2002B07DA902398
:1003F000DB059969802212020A439A6106E0902384
:10040000DB059969802212060A439A61630607D5C3
:100410009023DB059969802252010A439A6106E024
:100420009023DB059969802252050A439A61A3064D
:1004300006D5334B9969802292000A439A6105E000
:100440002F4B9969802292040A439A61E30606D5EC
:100450002B4B9969802252000A439A6105E0284B90
:100460009969802252040A439A61FFF7F9FE230733
:1004700007D59023DB059969802212020A439A610D
:1004800006E09023DB059969802212060A439A61EF
:10049000630707D59023DB059969802252010A433F
:1004A0009A6106E09023DB059969802252050A4390
:1004B0009A61A30706D5124B9969802292000A43DC
:1004C0009A6105E00E4B9969802292040A439A6171
:1004D000E30706D50A4B9969802252000A439A61C4
:1004E00005E0074B9969802252040A439A61FFF79D
:1004F000B7FE0448FFF7A4FE10BDC0460008004840
:1005000000040048B80B000008B51B4B5969802255
:1005100092020A435A6159698022D2020A435A61FF
:100520005969802212030A435A619023DB05196836
:100530008222D2050A431A60104B1968A022D20207
:100540000A431A600E4B1968A022D2050A431A60AA
:100550000C48FFF775FE3320FFF73EFF3220FFF710
:100560003BFF0C20FFF738FF2820FFF735FF012065
:10057000FFF732FF08BDC0460010024000040048EB
:10058000000800483075000008B5FFF7BDFF0548BA
:10059000FFF714FFC020FFF71FFF0348FFF70EFF10
:1005A000FEE7C046140800082408000882B00023B3
:1005B00001930093264B1968802252020A431A6065
:1005C000234B1A6880239B0213400093019B013345
:1005D0000193009B002B04D1019AA023DB019A42D6
:1005E000EED11B4B1B689A0302D50123009301E057
:1005F00000230093009B012B28D11122154B1A6078
:10060000134B5A685A605A685A605968124A0A402D
:100610005A605968882252030A435A601968802236
:1006200052040A431A600A4B1B689A01FBD5084B17
:100630005A6803218A435A60596802220A435A6061
:10064000034B5B680C221340082BF9D102B07047B2
:100650000010024000200240FF7FC0FF08B5124B8F
:100660001968012211431960586810490140596006
:1006700018680F490140196018680E490140196057
:1006800058680D4901405960D96A0F208143D962E9
:10069000186B0A4901401963596B91435963002251
:1006A0009A60FFF783FF08BD001002400CB8FF08F6
:1006B000FFFFF6FEFFFFFBFFFFFFC0FFACFEFFFFEB
:1006C00010B51E4B5B680C221340042B07D0082B7F
:1006D00009D0002B22D11A4A1A4B1A6021E0184A7D
:1006E000184B1A601DE0154B5C68A4025A68240F71
:1006F0000234C0235B021A4204D1134B5C43114BFA
:100700001C600EE00D4BDB6A0F21194001310C48D3
:1007100000F030F844430B4B1C6002E0084A094BE0
:100720001A60064B5B681B061B0F084AD25CD2B2EC
:10073000044B1968D140196010BDC046001002403A
:1007400000127A001400002000093D00040000207F
:1007500008B5FFF783FF08BD08B5FFF7B1FF08BD77
:10076000FEE7C04601230360014B0B607047C046A3
:1007700018000020002934D00123002210B4884240
:100780002CD301242407A14204D2814202D20901C0
:100790001B01F8E7E400A14204D2814202D24900E1
:1007A0005B00F8E7884201D3401A1A434C08A04284
:1007B00002D3001B5C0822438C08A04202D3001B1A
:1007C0009C082243CC08A04202D3001BDC08224331
:1007D000002803D01B0901D00909E3E7101C10BC55
:1007E0007047002801D00020C04307B4024802A18E
:1007F0004018029003BDC046190000000029F0D047
:1008000003B5FFF7B9FF0EBC4243891A1847C0462B
:100810007047C046454545333031375720507261E7
:10082000632036002A2A6E616D65732A2A00000053
:10083000785634120000000000000000010203049A
:1008400006070809006CDC022800002000000000F8
:040850003254769810
:0400000508000101ED
:00000001FF
